{
  "_format": "hh-sol-artifact-1",
  "contractName": "MockUSDC",
  "sourceName": "contracts/MockUSDC.sol",
  "abi": [
    {
      "inputs": [],
      "stateMutability": "nonpayable",
      "type": "constructor"
    },
    {
      "inputs": [
        {
          "internalType": "address",
          "name": "spender",
          "type": "address"
        },
        {
          "internalType": "uint256",
          "name": "allowance",
          "type": "uint256"
        },
        {
          "internalType": "uint256",
          "name": "needed",
          "type": "uint256"
        }
      ],
      "name": "ERC20InsufficientAllowance",
      "type": "error"
    },
    {
      "inputs": [
        {
          "internalType": "address",
          "name": "sender",
          "type": "address"
        },
        {
          "internalType": "uint256",
          "name": "balance",
          "type": "uint256"
        },
        {
          "internalType": "uint256",
          "name": "needed",
          "type": "uint256"
        }
      ],
      "name": "ERC20InsufficientBalance",
      "type": "error"
    },
    {
      "inputs": [
        {
          "internalType": "address",
          "name": "approver",
          "type": "address"
        }
      ],
      "name": "ERC20InvalidApprover",
      "type": "error"
    },
    {
      "inputs": [
        {
          "internalType": "address",
          "name": "receiver",
          "type": "address"
        }
      ],
      "name": "ERC20InvalidReceiver",
      "type": "error"
    },
    {
      "inputs": [
        {
          "internalType": "address",
          "name": "sender",
          "type": "address"
        }
      ],
      "name": "ERC20InvalidSender",
      "type": "error"
    },
    {
      "inputs": [
        {
          "internalType": "address",
          "name": "spender",
          "type": "address"
        }
      ],
      "name": "ERC20InvalidSpender",
      "type": "error"
    },
    {
      "anonymous": false,
      "inputs": [
        {
          "indexed": true,
          "internalType": "address",
          "name": "owner",
          "type": "address"
        },
        {
          "indexed": true,
          "internalType": "address",
          "name": "spender",
          "type": "address"
        },
        {
          "indexed": false,
          "internalType": "uint256",
          "name": "value",
          "type": "uint256"
        }
      ],
      "name": "Approval",
      "type": "event"
    },
    {
      "anonymous": false,
      "inputs": [
        {
          "indexed": true,
          "internalType": "address",
          "name": "from",
          "type": "address"
        },
        {
          "indexed": true,
          "internalType": "address",
          "name": "to",
          "type": "address"
        },
        {
          "indexed": false,
          "internalType": "uint256",
          "name": "value",
          "type": "uint256"
        }
      ],
      "name": "Transfer",
      "type": "event"
    },
    {
      "inputs": [
        {
          "internalType": "address",
          "name": "owner",
          "type": "address"
        },
        {
          "internalType": "address",
          "name": "spender",
          "type": "address"
        }
      ],
      "name": "allowance",
      "outputs": [
        {
          "internalType": "uint256",
          "name": "",
          "type": "uint256"
        }
      ],
      "stateMutability": "view",
      "type": "function"
    },
    {
      "inputs": [
        {
          "internalType": "address",
          "name": "spender",
          "type": "address"
        },
        {
          "internalType": "uint256",
          "name": "value",
          "type": "uint256"
        }
      ],
      "name": "approve",
      "outputs": [
        {
          "internalType": "bool",
          "name": "",
          "type": "bool"
        }
      ],
      "stateMutability": "nonpayable",
      "type": "function"
    },
    {
      "inputs": [
        {
          "internalType": "address",
          "name": "account",
          "type": "address"
        }
      ],
      "name": "balanceOf",
      "outputs": [
        {
          "internalType": "uint256",
          "name": "",
          "type": "uint256"
        }
      ],
      "stateMutability": "view",
      "type": "function"
    },
    {
      "inputs": [],
      "name": "decimals",
      "outputs": [
        {
          "internalType": "uint8",
          "name": "",
          "type": "uint8"
        }
      ],
      "stateMutability": "view",
      "type": "function"
    },
    {
      "inputs": [],
      "name": "mintFaucet",
      "outputs": [],
      "stateMutability": "nonpayable",
      "type": "function"
    },
    {
      "inputs": [],
      "name": "name",
      "outputs": [
        {
          "internalType": "string",
          "name": "",
          "type": "string"
        }
      ],
      "stateMutability": "view",
      "type": "function"
    },
    {
      "inputs": [],
      "name": "symbol",
      "outputs": [
        {
          "internalType": "string",
          "name": "",
          "type": "string"
        }
      ],
      "stateMutability": "view",
      "type": "function"
    },
    {
      "inputs": [],
      "name": "totalSupply",
      "outputs": [
        {
          "internalType": "uint256",
          "name": "",
          "type": "uint256"
        }
      ],
      "stateMutability": "view",
      "type": "function"
    },
    {
      "inputs": [
        {
          "internalType": "address",
          "name": "to",
          "type": "address"
        },
        {
          "internalType": "uint256",
          "name": "value",
          "type": "uint256"
        }
      ],
      "name": "transfer",
      "outputs": [
        {
          "internalType": "bool",
          "name": "",
          "type": "bool"
        }
      ],
      "stateMutability": "nonpayable",
      "type": "function"
    },
    {
      "inputs": [
        {
          "internalType": "address",
          "name": "from",
          "type": "address"
        },
        {
          "internalType": "address",
          "name": "to",
          "type": "address"
        },
        {
          "internalType": "uint256",
          "name": "value",
          "type": "uint256"
        }
      ],
      "name": "transferFrom",
      "outputs": [
        {
          "internalType": "bool",
          "name": "",
          "type": "bool"
        }
      ],
      "stateMutability": "nonpayable",
      "type": "function"
    }
  ],
  "bytecode": "0x608060405234801562000010575f80fd5b506040518060400160405280600d81526020017f4d6f636b2055534420436f696e000000000000000000000000000000000000008152506040518060400160405280600581526020017f6d5553444300000000000000000000000000000000000000000000000000000081525081600390816200008e919062000659565b508060049081620000a0919062000659565b505050620000bf6746d87036c29e819f60c01b6200013c60201b60201c565b620000db670c334dd89818655160c01b6200013c60201b60201c565b620000f767cf05067e9cd11f6860c01b6200013c60201b60201c565b62000136336200010c6200013f60201b60201c565b600a6200011a9190620008c6565b620f42406200012a919062000916565b6200014760201b60201c565b62000a5f565b50565b5f6012905090565b5f73ffffffffffffffffffffffffffffffffffffffff168273ffffffffffffffffffffffffffffffffffffffff1603620001ba575f6040517fec442f05000000000000000000000000000000000000000000000000000000008152600401620001b19190620009a3565b60405180910390fd5b620001cd5f8383620001d160201b60201c565b5050565b5f73ffffffffffffffffffffffffffffffffffffffff168373ffffffffffffffffffffffffffffffffffffffff160362000225578060025f828254620002189190620009be565b92505081905550620002f6565b5f805f8573ffffffffffffffffffffffffffffffffffffffff1673ffffffffffffffffffffffffffffffffffffffff1681526020019081526020015f2054905081811015620002b1578381836040517fe450d38c000000000000000000000000000000000000000000000000000000008152600401620002a89392919062000a09565b60405180910390fd5b8181035f808673ffffffffffffffffffffffffffffffffffffffff1673ffffffffffffffffffffffffffffffffffffffff1681526020019081526020015f2081905550505b5f73ffffffffffffffffffffffffffffffffffffffff168273ffffffffffffffffffffffffffffffffffffffff16036200033f578060025f828254039250508190555062000389565b805f808473ffffffffffffffffffffffffffffffffffffffff1673ffffffffffffffffffffffffffffffffffffffff1681526020019081526020015f205f82825401925050819055505b8173ffffffffffffffffffffffffffffffffffffffff168373ffffffffffffffffffffffffffffffffffffffff167fddf252ad1be2c89b69c2b068fc378daa952ba7f163c4a11628f55a4df523b3ef83604051620003e8919062000a44565b60405180910390a3505050565b5f81519050919050565b7f4e487b71000000000000000000000000000000000000000000000000000000005f52604160045260245ffd5b7f4e487b71000000000000000000000000000000000000000000000000000000005f52602260045260245ffd5b5f60028204905060018216806200047157607f821691505b6020821081036200048757620004866200042c565b5b50919050565b5f819050815f5260205f209050919050565b5f6020601f8301049050919050565b5f82821b905092915050565b5f60088302620004eb7fffffffffffffffffffffffffffffffffffffffffffffffffffffffffffffffff82620004ae565b620004f78683620004ae565b95508019841693508086168417925050509392505050565b5f819050919050565b5f819050919050565b5f620005416200053b62000535846200050f565b62000518565b6200050f565b9050919050565b5f819050919050565b6200055c8362000521565b620005746200056b8262000548565b848454620004ba565b825550505050565b5f90565b6200058a6200057c565b6200059781848462000551565b505050565b5b81811015620005be57620005b25f8262000580565b6001810190506200059d565b5050565b601f8211156200060d57620005d7816200048d565b620005e2846200049f565b81016020851015620005f2578190505b6200060a62000601856200049f565b8301826200059c565b50505b505050565b5f82821c905092915050565b5f6200062f5f198460080262000612565b1980831691505092915050565b5f6200064983836200061e565b9150826002028217905092915050565b6200066482620003f5565b67ffffffffffffffff81111562000680576200067f620003ff565b5b6200068c825462000459565b62000699828285620005c2565b5f60209050601f831160018114620006cf575f8415620006ba578287015190505b620006c685826200063c565b86555062000735565b601f198416620006df866200048d565b5f5b828110156200070857848901518255600182019150602085019450602081019050620006e1565b8683101562000728578489015162000724601f8916826200061e565b8355505b6001600288020188555050505b505050505050565b7f4e487b71000000000000000000000000000000000000000000000000000000005f52601160045260245ffd5b5f8160011c9050919050565b5f808291508390505b6001851115620007c7578086048111156200079f576200079e6200073d565b5b6001851615620007af5780820291505b8081029050620007bf856200076a565b94506200077f565b94509492505050565b5f82620007e15760019050620008b3565b81620007f0575f9050620008b3565b816001811462000809576002811462000814576200084a565b6001915050620008b3565b60ff8411156200082957620008286200073d565b5b8360020a9150848211156200084357620008426200073d565b5b50620008b3565b5060208310610133831016604e8410600b8410161715620008845782820a9050838111156200087e576200087d6200073d565b5b620008b3565b62000893848484600162000776565b92509050818404811115620008ad57620008ac6200073d565b5b81810290505b9392505050565b5f60ff82169050919050565b5f620008d2826200050f565b9150620008df83620008ba565b92506200090e7fffffffffffffffffffffffffffffffffffffffffffffffffffffffffffffffff8484620007d0565b905092915050565b5f62000922826200050f565b91506200092f836200050f565b92508282026200093f816200050f565b915082820484148315176200095957620009586200073d565b5b5092915050565b5f73ffffffffffffffffffffffffffffffffffffffff82169050919050565b5f6200098b8262000960565b9050919050565b6200099d816200097f565b82525050565b5f602082019050620009b85f83018462000992565b92915050565b5f620009ca826200050f565b9150620009d7836200050f565b9250828201905080821115620009f257620009f16200073d565b5b92915050565b62000a03816200050f565b82525050565b5f60608201905062000a1e5f83018662000992565b62000a2d6020830185620009f8565b62000a3c6040830184620009f8565b949350505050565b5f60208201905062000a595f830184620009f8565b92915050565b6110b58062000a6d5f395ff3fe608060405234801561000f575f80fd5b506004361061009c575f3560e01c806370a082311161006457806370a082311461015a57806395d89b411461018a578063a9059cbb146101a8578063dd62ed3e146101d8578063e65026de146102085761009c565b806306fdde03146100a0578063095ea7b3146100be57806318160ddd146100ee57806323b872dd1461010c578063313ce5671461013c575b5f80fd5b6100a8610212565b6040516100b59190610b74565b60405180910390f35b6100d860048036038101906100d39190610c25565b6102a2565b6040516100e59190610c7d565b60405180910390f35b6100f66102c4565b6040516101039190610ca5565b60405180910390f35b61012660048036038101906101219190610cbe565b6102cd565b6040516101339190610c7d565b60405180910390f35b6101446102fb565b6040516101519190610d29565b60405180910390f35b610174600480360381019061016f9190610d42565b610303565b6040516101819190610ca5565b60405180910390f35b610192610348565b60405161019f9190610b74565b60405180910390f35b6101c260048036038101906101bd9190610c25565b6103d8565b6040516101cf9190610c7d565b60405180910390f35b6101f260048036038101906101ed9190610d6d565b6103fa565b6040516101ff9190610ca5565b60405180910390f35b61021061047c565b005b60606003805461022190610dd8565b80601f016020809104026020016040519081016040528092919081815260200182805461024d90610dd8565b80156102985780601f1061026f57610100808354040283529160200191610298565b820191905f5260205f20905b81548152906001019060200180831161027b57829003601f168201915b5050505050905090565b5f806102ac6104e4565b90506102b98185856104eb565b600191505092915050565b5f600254905090565b5f806102d76104e4565b90506102e48582856104fd565b6102ef858585610590565b60019150509392505050565b5f6012905090565b5f805f8373ffffffffffffffffffffffffffffffffffffffff1673ffffffffffffffffffffffffffffffffffffffff1681526020019081526020015f20549050919050565b60606004805461035790610dd8565b80601f016020809104026020016040519081016040528092919081815260200182805461038390610dd8565b80156103ce5780601f106103a5576101008083540402835291602001916103ce565b820191905f5260205f20905b8154815290600101906020018083116103b157829003601f168201915b5050505050905090565b5f806103e26104e4565b90506103ef818585610590565b600191505092915050565b5f60015f8473ffffffffffffffffffffffffffffffffffffffff1673ffffffffffffffffffffffffffffffffffffffff1681526020019081526020015f205f8373ffffffffffffffffffffffffffffffffffffffff1673ffffffffffffffffffffffffffffffffffffffff1681526020019081526020015f2054905092915050565b610490679e6c16cf5513b4f460c01b610680565b6104a467f1d819a84b14b6b560c01b610680565b6104b8670fcaa849f155e4fa60c01b610680565b6104e2336104c46102fb565b600a6104d09190610f64565b6103e86104dd9190610fae565b610683565b565b5f33905090565b6104f88383836001610702565b505050565b5f61050884846103fa565b90507fffffffffffffffffffffffffffffffffffffffffffffffffffffffffffffffff81101561058a578181101561057b578281836040517ffb8f41b200000000000000000000000000000000000000000000000000000000815260040161057293929190610ffe565b60405180910390fd5b61058984848484035f610702565b5b50505050565b5f73ffffffffffffffffffffffffffffffffffffffff168373ffffffffffffffffffffffffffffffffffffffff1603610600575f6040517f96c6fd1e0000000000000000000000000000000000000000000000000000000081526004016105f79190611033565b60405180910390fd5b5f73ffffffffffffffffffffffffffffffffffffffff168273ffffffffffffffffffffffffffffffffffffffff1603610670575f6040517fec442f050000000000000000000000000000000000000000000000000000000081526004016106679190611033565b60405180910390fd5b61067b8383836108d1565b505050565b50565b5f73ffffffffffffffffffffffffffffffffffffffff168273ffffffffffffffffffffffffffffffffffffffff16036106f3575f6040517fec442f050000000000000000000000000000000000000000000000000000000081526004016106ea9190611033565b60405180910390fd5b6106fe5f83836108d1565b5050565b5f73ffffffffffffffffffffffffffffffffffffffff168473ffffffffffffffffffffffffffffffffffffffff1603610772575f6040517fe602df050000000000000000000000000000000000000000000000000000000081526004016107699190611033565b60405180910390fd5b5f73ffffffffffffffffffffffffffffffffffffffff168373ffffffffffffffffffffffffffffffffffffffff16036107e2575f6040517f94280d620000000000000000000000000000000000000000000000000000000081526004016107d99190611033565b60405180910390fd5b8160015f8673ffffffffffffffffffffffffffffffffffffffff1673ffffffffffffffffffffffffffffffffffffffff1681526020019081526020015f205f8573ffffffffffffffffffffffffffffffffffffffff1673ffffffffffffffffffffffffffffffffffffffff1681526020019081526020015f208190555080156108cb578273ffffffffffffffffffffffffffffffffffffffff168473ffffffffffffffffffffffffffffffffffffffff167f8c5be1e5ebec7d5bd14f71427d1e84f3dd0314c0f7b2291e5b200ac8c7c3b925846040516108c29190610ca5565b60405180910390a35b50505050565b5f73ffffffffffffffffffffffffffffffffffffffff168373ffffffffffffffffffffffffffffffffffffffff1603610921578060025f828254610915919061104c565b925050819055506109ef565b5f805f8573ffffffffffffffffffffffffffffffffffffffff1673ffffffffffffffffffffffffffffffffffffffff1681526020019081526020015f20549050818110156109aa578381836040517fe450d38c0000000000000000000000000000000000000000000000000000000081526004016109a193929190610ffe565b60405180910390fd5b8181035f808673ffffffffffffffffffffffffffffffffffffffff1673ffffffffffffffffffffffffffffffffffffffff1681526020019081526020015f2081905550505b5f73ffffffffffffffffffffffffffffffffffffffff168273ffffffffffffffffffffffffffffffffffffffff1603610a36578060025f8282540392505081905550610a80565b805f808473ffffffffffffffffffffffffffffffffffffffff1673ffffffffffffffffffffffffffffffffffffffff1681526020019081526020015f205f82825401925050819055505b8173ffffffffffffffffffffffffffffffffffffffff168373ffffffffffffffffffffffffffffffffffffffff167fddf252ad1be2c89b69c2b068fc378daa952ba7f163c4a11628f55a4df523b3ef83604051610add9190610ca5565b60405180910390a3505050565b5f81519050919050565b5f82825260208201905092915050565b5f5b83811015610b21578082015181840152602081019050610b06565b5f8484015250505050565b5f601f19601f8301169050919050565b5f610b4682610aea565b610b508185610af4565b9350610b60818560208601610b04565b610b6981610b2c565b840191505092915050565b5f6020820190508181035f830152610b8c8184610b3c565b905092915050565b5f80fd5b5f73ffffffffffffffffffffffffffffffffffffffff82169050919050565b5f610bc182610b98565b9050919050565b610bd181610bb7565b8114610bdb575f80fd5b50565b5f81359050610bec81610bc8565b92915050565b5f819050919050565b610c0481610bf2565b8114610c0e575f80fd5b50565b5f81359050610c1f81610bfb565b92915050565b5f8060408385031215610c3b57610c3a610b94565b5b5f610c4885828601610bde565b9250506020610c5985828601610c11565b9150509250929050565b5f8115159050919050565b610c7781610c63565b82525050565b5f602082019050610c905f830184610c6e565b92915050565b610c9f81610bf2565b82525050565b5f602082019050610cb85f830184610c96565b92915050565b5f805f60608486031215610cd557610cd4610b94565b5b5f610ce286828701610bde565b9350506020610cf386828701610bde565b9250506040610d0486828701610c11565b9150509250925092565b5f60ff82169050919050565b610d2381610d0e565b82525050565b5f602082019050610d3c5f830184610d1a565b92915050565b5f60208284031215610d5757610d56610b94565b5b5f610d6484828501610bde565b91505092915050565b5f8060408385031215610d8357610d82610b94565b5b5f610d9085828601610bde565b9250506020610da185828601610bde565b9150509250929050565b7f4e487b71000000000000000000000000000000000000000000000000000000005f52602260045260245ffd5b5f6002820490506001821680610def57607f821691505b602082108103610e0257610e01610dab565b5b50919050565b7f4e487b71000000000000000000000000000000000000000000000000000000005f52601160045260245ffd5b5f8160011c9050919050565b5f808291508390505b6001851115610e8a57808604811115610e6657610e65610e08565b5b6001851615610e755780820291505b8081029050610e8385610e35565b9450610e4a565b94509492505050565b5f82610ea25760019050610f5d565b81610eaf575f9050610f5d565b8160018114610ec55760028114610ecf57610efe565b6001915050610f5d565b60ff841115610ee157610ee0610e08565b5b8360020a915084821115610ef857610ef7610e08565b5b50610f5d565b5060208310610133831016604e8410600b8410161715610f335782820a905083811115610f2e57610f2d610e08565b5b610f5d565b610f408484846001610e41565b92509050818404811115610f5757610f56610e08565b5b81810290505b9392505050565b5f610f6e82610bf2565b9150610f7983610d0e565b9250610fa67fffffffffffffffffffffffffffffffffffffffffffffffffffffffffffffffff8484610e93565b905092915050565b5f610fb882610bf2565b9150610fc383610bf2565b9250828202610fd181610bf2565b91508282048414831517610fe857610fe7610e08565b5b5092915050565b610ff881610bb7565b82525050565b5f6060820190506110115f830186610fef565b61101e6020830185610c96565b61102b6040830184610c96565b949350505050565b5f6020820190506110465f830184610fef565b92915050565b5f61105682610bf2565b915061106183610bf2565b925082820190508082111561107957611078610e08565b5b9291505056fea26469706673582212204bbacbe5bb06a3854f4cd76249f8f343b7579a1118930b0c259f93a0284e0e8a64736f6c63430008140033",
  "linkReferences": {},
  "deployedLinkReferences": {}
}