{
  "_format": "hh-sol-artifact-1",
  "contractName": "MockUSDC",
  "sourceName": "contracts/MockUSDC.sol",
  "abi": [
    {
      "inputs": [],
      "stateMutability": "nonpayable",
      "type": "constructor"
    },
    {
      "inputs": [
        {
          "internalType": "address",
          "name": "spender",
          "type": "address"
        },
        {
          "internalType": "uint256",
          "name": "allowance",
          "type": "uint256"
        },
        {
          "internalType": "uint256",
          "name": "needed",
          "type": "uint256"
        }
      ],
      "name": "ERC20InsufficientAllowance",
      "type": "error"
    },
    {
      "inputs": [
        {
          "internalType": "address",
          "name": "sender",
          "type": "address"
        },
        {
          "internalType": "uint256",
          "name": "balance",
          "type": "uint256"
        },
        {
          "internalType": "uint256",
          "name": "needed",
          "type": "uint256"
        }
      ],
      "name": "ERC20InsufficientBalance",
      "type": "error"
    },
    {
      "inputs": [
        {
          "internalType": "address",
          "name": "approver",
          "type": "address"
        }
      ],
      "name": "ERC20InvalidApprover",
      "type": "error"
    },
    {
      "inputs": [
        {
          "internalType": "address",
          "name": "receiver",
          "type": "address"
        }
      ],
      "name": "ERC20InvalidReceiver",
      "type": "error"
    },
    {
      "inputs": [
        {
          "internalType": "address",
          "name": "sender",
          "type": "address"
        }
      ],
      "name": "ERC20InvalidSender",
      "type": "error"
    },
    {
      "inputs": [
        {
          "internalType": "address",
          "name": "spender",
          "type": "address"
        }
      ],
      "name": "ERC20InvalidSpender",
      "type": "error"
    },
    {
      "anonymous": false,
      "inputs": [
        {
          "indexed": true,
          "internalType": "address",
          "name": "owner",
          "type": "address"
        },
        {
          "indexed": true,
          "internalType": "address",
          "name": "spender",
          "type": "address"
        },
        {
          "indexed": false,
          "internalType": "uint256",
          "name": "value",
          "type": "uint256"
        }
      ],
      "name": "Approval",
      "type": "event"
    },
    {
      "anonymous": false,
      "inputs": [
        {
          "indexed": true,
          "internalType": "address",
          "name": "from",
          "type": "address"
        },
        {
          "indexed": true,
          "internalType": "address",
          "name": "to",
          "type": "address"
        },
        {
          "indexed": false,
          "internalType": "uint256",
          "name": "value",
          "type": "uint256"
        }
      ],
      "name": "Transfer",
      "type": "event"
    },
    {
      "inputs": [
        {
          "internalType": "address",
          "name": "owner",
          "type": "address"
        },
        {
          "internalType": "address",
          "name": "spender",
          "type": "address"
        }
      ],
      "name": "allowance",
      "outputs": [
        {
          "internalType": "uint256",
          "name": "",
          "type": "uint256"
        }
      ],
      "stateMutability": "view",
      "type": "function"
    },
    {
      "inputs": [
        {
          "internalType": "address",
          "name": "spender",
          "type": "address"
        },
        {
          "internalType": "uint256",
          "name": "value",
          "type": "uint256"
        }
      ],
      "name": "approve",
      "outputs": [
        {
          "internalType": "bool",
          "name": "",
          "type": "bool"
        }
      ],
      "stateMutability": "nonpayable",
      "type": "function"
    },
    {
      "inputs": [
        {
          "internalType": "address",
          "name": "account",
          "type": "address"
        }
      ],
      "name": "balanceOf",
      "outputs": [
        {
          "internalType": "uint256",
          "name": "",
          "type": "uint256"
        }
      ],
      "stateMutability": "view",
      "type": "function"
    },
    {
      "inputs": [],
      "name": "decimals",
      "outputs": [
        {
          "internalType": "uint8",
          "name": "",
          "type": "uint8"
        }
      ],
      "stateMutability": "view",
      "type": "function"
    },
    {
      "inputs": [],
      "name": "mintFaucet",
      "outputs": [],
      "stateMutability": "nonpayable",
      "type": "function"
    },
    {
      "inputs": [],
      "name": "name",
      "outputs": [
        {
          "internalType": "string",
          "name": "",
          "type": "string"
        }
      ],
      "stateMutability": "view",
      "type": "function"
    },
    {
      "inputs": [],
      "name": "symbol",
      "outputs": [
        {
          "internalType": "string",
          "name": "",
          "type": "string"
        }
      ],
      "stateMutability": "view",
      "type": "function"
    },
    {
      "inputs": [],
      "name": "totalSupply",
      "outputs": [
        {
          "internalType": "uint256",
          "name": "",
          "type": "uint256"
        }
      ],
      "stateMutability": "view",
      "type": "function"
    },
    {
      "inputs": [
        {
          "internalType": "address",
          "name": "to",
          "type": "address"
        },
        {
          "internalType": "uint256",
          "name": "value",
          "type": "uint256"
        }
      ],
      "name": "transfer",
      "outputs": [
        {
          "internalType": "bool",
          "name": "",
          "type": "bool"
        }
      ],
      "stateMutability": "nonpayable",
      "type": "function"
    },
    {
      "inputs": [
        {
          "internalType": "address",
          "name": "from",
          "type": "address"
        },
        {
          "internalType": "address",
          "name": "to",
          "type": "address"
        },
        {
          "internalType": "uint256",
          "name": "value",
          "type": "uint256"
        }
      ],
      "name": "transferFrom",
      "outputs": [
        {
          "internalType": "bool",
          "name": "",
          "type": "bool"
        }
      ],
      "stateMutability": "nonpayable",
      "type": "function"
    }
  ],
  "bytecode": "0x60806040523480156200001157600080fd5b506040518060400160405280600d81526020017f4d6f636b2055534420436f696e000000000000000000000000000000000000008152506040518060400160405280600581526020017f6d5553444300000000000000000000000000000000000000000000000000000081525081600390816200008f919062000629565b508060049081620000a1919062000629565b505050620000e333620000b9620000e960201b60201c565b600a620000c79190620008a0565b620f4240620000d79190620008f1565b620000f260201b60201c565b62000a44565b60006012905090565b600073ffffffffffffffffffffffffffffffffffffffff168273ffffffffffffffffffffffffffffffffffffffff1603620001675760006040517fec442f050000000000000000000000000000000000000000000000000000000081526004016200015e919062000981565b60405180910390fd5b6200017b600083836200017f60201b60201c565b5050565b600073ffffffffffffffffffffffffffffffffffffffff168373ffffffffffffffffffffffffffffffffffffffff1603620001d5578060026000828254620001c891906200099e565b92505081905550620002ab565b60008060008573ffffffffffffffffffffffffffffffffffffffff1673ffffffffffffffffffffffffffffffffffffffff1681526020019081526020016000205490508181101562000264578381836040517fe450d38c0000000000000000000000000000000000000000000000000000000081526004016200025b93929190620009ea565b60405180910390fd5b8181036000808673ffffffffffffffffffffffffffffffffffffffff1673ffffffffffffffffffffffffffffffffffffffff16815260200190815260200160002081905550505b600073ffffffffffffffffffffffffffffffffffffffff168273ffffffffffffffffffffffffffffffffffffffff1603620002f6578060026000828254039250508190555062000343565b806000808473ffffffffffffffffffffffffffffffffffffffff1673ffffffffffffffffffffffffffffffffffffffff168152602001908152602001600020600082825401925050819055505b8173ffffffffffffffffffffffffffffffffffffffff168373ffffffffffffffffffffffffffffffffffffffff167fddf252ad1be2c89b69c2b068fc378daa952ba7f163c4a11628f55a4df523b3ef83604051620003a2919062000a27565b60405180910390a3505050565b600081519050919050565b7f4e487b7100000000000000000000000000000000000000000000000000000000600052604160045260246000fd5b7f4e487b7100000000000000000000000000000000000000000000000000000000600052602260045260246000fd5b600060028204905060018216806200043157607f821691505b602082108103620004475762000446620003e9565b5b50919050565b60008190508160005260206000209050919050565b60006020601f8301049050919050565b600082821b905092915050565b600060088302620004b17fffffffffffffffffffffffffffffffffffffffffffffffffffffffffffffffff8262000472565b620004bd868362000472565b95508019841693508086168417925050509392505050565b6000819050919050565b6000819050919050565b60006200050a62000504620004fe84620004d5565b620004df565b620004d5565b9050919050565b6000819050919050565b6200052683620004e9565b6200053e620005358262000511565b8484546200047f565b825550505050565b600090565b6200055562000546565b620005628184846200051b565b505050565b5b818110156200058a576200057e6000826200054b565b60018101905062000568565b5050565b601f821115620005d957620005a3816200044d565b620005ae8462000462565b81016020851015620005be578190505b620005d6620005cd8562000462565b83018262000567565b50505b505050565b600082821c905092915050565b6000620005fe60001984600802620005de565b1980831691505092915050565b6000620006198383620005eb565b9150826002028217905092915050565b6200063482620003af565b67ffffffffffffffff81111562000650576200064f620003ba565b5b6200065c825462000418565b620006698282856200058e565b600060209050601f831160018114620006a157600084156200068c578287015190505b6200069885826200060b565b86555062000708565b601f198416620006b1866200044d565b60005b82811015620006db57848901518255600182019150602085019450602081019050620006b4565b86831015620006fb5784890151620006f7601f891682620005eb565b8355505b6001600288020188555050505b505050505050565b7f4e487b7100000000000000000000000000000000000000000000000000000000600052601160045260246000fd5b60008160011c9050919050565b6000808291508390505b60018511156200079e5780860481111562000776576200077562000710565b5b6001851615620007865780820291505b808102905062000796856200073f565b945062000756565b94509492505050565b600082620007b957600190506200088c565b81620007c957600090506200088c565b8160018114620007e25760028114620007ed5762000823565b60019150506200088c565b60ff84111562000802576200080162000710565b5b8360020a9150848211156200081c576200081b62000710565b5b506200088c565b5060208310610133831016604e8410600b84101617156200085d5782820a90508381111562000857576200085662000710565b5b6200088c565b6200086c84848460016200074c565b9250905081840481111562000886576200088562000710565b5b81810290505b9392505050565b600060ff82169050919050565b6000620008ad82620004d5565b9150620008ba8362000893565b9250620008e97fffffffffffffffffffffffffffffffffffffffffffffffffffffffffffffffff8484620007a7565b905092915050565b6000620008fe82620004d5565b91506200090b83620004d5565b92508282026200091b81620004d5565b9150828204841483151762000935576200093462000710565b5b5092915050565b600073ffffffffffffffffffffffffffffffffffffffff82169050919050565b600062000969826200093c565b9050919050565b6200097b816200095c565b82525050565b600060208201905062000998600083018462000970565b92915050565b6000620009ab82620004d5565b9150620009b883620004d5565b9250828201905080821115620009d357620009d262000710565b5b92915050565b620009e481620004d5565b82525050565b600060608201905062000a01600083018662000970565b62000a106020830185620009d9565b62000a1f6040830184620009d9565b949350505050565b600060208201905062000a3e6000830184620009d9565b92915050565b6110d98062000a546000396000f3fe608060405234801561001057600080fd5b506004361061009e5760003560e01c806370a082311161006657806370a082311461015d57806395d89b411461018d578063a9059cbb146101ab578063dd62ed3e146101db578063e65026de1461020b5761009e565b806306fdde03146100a3578063095ea7b3146100c157806318160ddd146100f157806323b872dd1461010f578063313ce5671461013f575b600080fd5b6100ab610215565b6040516100b89190610b6d565b60405180910390f35b6100db60048036038101906100d69190610c28565b6102a7565b6040516100e89190610c83565b60405180910390f35b6100f96102ca565b6040516101069190610cad565b60405180910390f35b61012960048036038101906101249190610cc8565b6102d4565b6040516101369190610c83565b60405180910390f35b610147610303565b6040516101549190610d37565b60405180910390f35b61017760048036038101906101729190610d52565b61030c565b6040516101849190610cad565b60405180910390f35b610195610354565b6040516101a29190610b6d565b60405180910390f35b6101c560048036038101906101c09190610c28565b6103e6565b6040516101d29190610c83565b60405180910390f35b6101f560048036038101906101f09190610d7f565b610409565b6040516102029190610cad565b60405180910390f35b610213610490565b005b60606003805461022490610dee565b80601f016020809104026020016040519081016040528092919081815260200182805461025090610dee565b801561029d5780601f106102725761010080835404028352916020019161029d565b820191906000526020600020905b81548152906001019060200180831161028057829003601f168201915b5050505050905090565b6000806102b26104bc565b90506102bf8185856104c4565b600191505092915050565b6000600254905090565b6000806102df6104bc565b90506102ec8582856104d6565b6102f785858561056b565b60019150509392505050565b60006012905090565b60008060008373ffffffffffffffffffffffffffffffffffffffff1673ffffffffffffffffffffffffffffffffffffffff168152602001908152602001600020549050919050565b60606004805461036390610dee565b80601f016020809104026020016040519081016040528092919081815260200182805461038f90610dee565b80156103dc5780601f106103b1576101008083540402835291602001916103dc565b820191906000526020600020905b8154815290600101906020018083116103bf57829003601f168201915b5050505050905090565b6000806103f16104bc565b90506103fe81858561056b565b600191505092915050565b6000600160008473ffffffffffffffffffffffffffffffffffffffff1673ffffffffffffffffffffffffffffffffffffffff16815260200190815260200160002060008373ffffffffffffffffffffffffffffffffffffffff1673ffffffffffffffffffffffffffffffffffffffff16815260200190815260200160002054905092915050565b6104ba3361049c610303565b600a6104a89190610f81565b6103e86104b59190610fcc565b61065f565b565b600033905090565b6104d183838360016106e1565b505050565b60006104e28484610409565b90507fffffffffffffffffffffffffffffffffffffffffffffffffffffffffffffffff8110156105655781811015610555578281836040517ffb8f41b200000000000000000000000000000000000000000000000000000000815260040161054c9392919061101d565b60405180910390fd5b610564848484840360006106e1565b5b50505050565b600073ffffffffffffffffffffffffffffffffffffffff168373ffffffffffffffffffffffffffffffffffffffff16036105dd5760006040517f96c6fd1e0000000000000000000000000000000000000000000000000000000081526004016105d49190611054565b60405180910390fd5b600073ffffffffffffffffffffffffffffffffffffffff168273ffffffffffffffffffffffffffffffffffffffff160361064f5760006040517fec442f050000000000000000000000000000000000000000000000000000000081526004016106469190611054565b60405180910390fd5b61065a8383836108b8565b505050565b600073ffffffffffffffffffffffffffffffffffffffff168273ffffffffffffffffffffffffffffffffffffffff16036106d15760006040517fec442f050000000000000000000000000000000000000000000000000000000081526004016106c89190611054565b60405180910390fd5b6106dd600083836108b8565b5050565b600073ffffffffffffffffffffffffffffffffffffffff168473ffffffffffffffffffffffffffffffffffffffff16036107535760006040517fe602df0500000000000000000000000000000000000000000000000000000000815260040161074a9190611054565b60405180910390fd5b600073ffffffffffffffffffffffffffffffffffffffff168373ffffffffffffffffffffffffffffffffffffffff16036107c55760006040517f94280d620000000000000000000000000000000000000000000000000000000081526004016107bc9190611054565b60405180910390fd5b81600160008673ffffffffffffffffffffffffffffffffffffffff1673ffffffffffffffffffffffffffffffffffffffff16815260200190815260200160002060008573ffffffffffffffffffffffffffffffffffffffff1673ffffffffffffffffffffffffffffffffffffffff1681526020019081526020016000208190555080156108b2578273ffffffffffffffffffffffffffffffffffffffff168473ffffffffffffffffffffffffffffffffffffffff167f8c5be1e5ebec7d5bd14f71427d1e84f3dd0314c0f7b2291e5b200ac8c7c3b925846040516108a99190610cad565b60405180910390a35b50505050565b600073ffffffffffffffffffffffffffffffffffffffff168373ffffffffffffffffffffffffffffffffffffffff160361090a5780600260008282546108fe919061106f565b925050819055506109dd565b60008060008573ffffffffffffffffffffffffffffffffffffffff1673ffffffffffffffffffffffffffffffffffffffff16815260200190815260200160002054905081811015610996578381836040517fe450d38c00000000000000000000000000000000000000000000000000000000815260040161098d9392919061101d565b60405180910390fd5b8181036000808673ffffffffffffffffffffffffffffffffffffffff1673ffffffffffffffffffffffffffffffffffffffff16815260200190815260200160002081905550505b600073ffffffffffffffffffffffffffffffffffffffff168273ffffffffffffffffffffffffffffffffffffffff1603610a265780600260008282540392505081905550610a73565b806000808473ffffffffffffffffffffffffffffffffffffffff1673ffffffffffffffffffffffffffffffffffffffff168152602001908152602001600020600082825401925050819055505b8173ffffffffffffffffffffffffffffffffffffffff168373ffffffffffffffffffffffffffffffffffffffff167fddf252ad1be2c89b69c2b068fc378daa952ba7f163c4a11628f55a4df523b3ef83604051610ad09190610cad565b60405180910390a3505050565b600081519050919050565b600082825260208201905092915050565b60005b83811015610b17578082015181840152602081019050610afc565b60008484015250505050565b6000601f19601f8301169050919050565b6000610b3f82610add565b610b498185610ae8565b9350610b59818560208601610af9565b610b6281610b23565b840191505092915050565b60006020820190508181036000830152610b878184610b34565b905092915050565b600080fd5b600073ffffffffffffffffffffffffffffffffffffffff82169050919050565b6000610bbf82610b94565b9050919050565b610bcf81610bb4565b8114610bda57600080fd5b50565b600081359050610bec81610bc6565b92915050565b6000819050919050565b610c0581610bf2565b8114610c1057600080fd5b50565b600081359050610c2281610bfc565b92915050565b60008060408385031215610c3f57610c3e610b8f565b5b6000610c4d85828601610bdd565b9250506020610c5e85828601610c13565b9150509250929050565b60008115159050919050565b610c7d81610c68565b82525050565b6000602082019050610c986000830184610c74565b92915050565b610ca781610bf2565b82525050565b6000602082019050610cc26000830184610c9e565b92915050565b600080600060608486031215610ce157610ce0610b8f565b5b6000610cef86828701610bdd565b9350506020610d0086828701610bdd565b9250506040610d1186828701610c13565b9150509250925092565b600060ff82169050919050565b610d3181610d1b565b82525050565b6000602082019050610d4c6000830184610d28565b92915050565b600060208284031215610d6857610d67610b8f565b5b6000610d7684828501610bdd565b91505092915050565b60008060408385031215610d9657610d95610b8f565b5b6000610da485828601610bdd565b9250506020610db585828601610bdd565b9150509250929050565b7f4e487b7100000000000000000000000000000000000000000000000000000000600052602260045260246000fd5b60006002820490506001821680610e0657607f821691505b602082108103610e1957610e18610dbf565b5b50919050565b7f4e487b7100000000000000000000000000000000000000000000000000000000600052601160045260246000fd5b60008160011c9050919050565b6000808291508390505b6001851115610ea557808604811115610e8157610e80610e1f565b5b6001851615610e905780820291505b8081029050610e9e85610e4e565b9450610e65565b94509492505050565b600082610ebe5760019050610f7a565b81610ecc5760009050610f7a565b8160018114610ee25760028114610eec57610f1b565b6001915050610f7a565b60ff841115610efe57610efd610e1f565b5b8360020a915084821115610f1557610f14610e1f565b5b50610f7a565b5060208310610133831016604e8410600b8410161715610f505782820a905083811115610f4b57610f4a610e1f565b5b610f7a565b610f5d8484846001610e5b565b92509050818404811115610f7457610f73610e1f565b5b81810290505b9392505050565b6000610f8c82610bf2565b9150610f9783610d1b565b9250610fc47fffffffffffffffffffffffffffffffffffffffffffffffffffffffffffffffff8484610eae565b905092915050565b6000610fd782610bf2565b9150610fe283610bf2565b9250828202610ff081610bf2565b9150828204841483151761100757611006610e1f565b5b5092915050565b61101781610bb4565b82525050565b6000606082019050611032600083018661100e565b61103f6020830185610c9e565b61104c6040830184610c9e565b949350505050565b6000602082019050611069600083018461100e565b92915050565b600061107a82610bf2565b915061108583610bf2565b925082820190508082111561109d5761109c610e1f565b5b9291505056fea26469706673582212209bb536625625307b0456f9e806f6a50d541e9a9e2154b992c665e455faf46c3f64736f6c63430008140033",
  "linkReferences": {},
  "deployedLinkReferences": {}
}