{"contracts/AgroToken.sol":{"AgroToken":{"abi":[{"inputs":[],"stateMutability":"nonpayable","type":"constructor"},{"inputs":[{"internalType":"address","name":"sender","type":"address"},{"internalType":"uint256","name":"balance","type":"uint256"},{"internalType":"uint256","name":"needed","type":"uint256"},{"internalType":"uint256","name":"tokenId","type":"uint256"}],"name":"ERC1155InsufficientBalance","type":"error"},{"inputs":[{"internalType":"address","name":"approver","type":"address"}],"name":"ERC1155InvalidApprover","type":"error"},{"inputs":[{"internalType":"uint256","name":"idsLength","type":"uint256"},{"internalType":"uint256","name":"valuesLength","type":"uint256"}],"name":"ERC1155InvalidArrayLength","type":"error"},{"inputs":[{"internalType":"address","name":"operator","type":"address"}],"name":"ERC1155InvalidOperator","type":"error"},{"inputs":[{"internalType":"address","name":"receiver","type":"address"}],"name":"ERC1155InvalidReceiver","type":"error"},{"inputs":[{"internalType":"address","name":"sender","type":"address"}],"name":"ERC1155InvalidSender","type":"error"},{"inputs":[{"internalType":"address","name":"operator","type":"address"},{"internalType":"address","name":"owner","type":"address"}],"name":"ERC1155MissingApprovalForAll","type":"error"},{"inputs":[{"internalType":"address","name":"owner","type":"address"}],"name":"OwnableInvalidOwner","type":"error"},{"inputs":[{"internalType":"address","name":"account","type":"address"}],"name":"OwnableUnauthorizedAccount","type":"error"},{"anonymous":false,"inputs":[{"indexed":true,"internalType":"address","name":"account","type":"address"},{"indexed":true,"internalType":"address","name":"operator","type":"address"},{"indexed":false,"internalType":"bool","name":"approved","type":"bool"}],"name":"ApprovalForAll","type":"event"},{"anonymous":false,"inputs":[{"indexed":true,"internalType":"address","name":"previousOwner","type":"address"},{"indexed":true,"internalType":"address","name":"newOwner","type":"address"}],"name":"OwnershipTransferred","type":"event"},{"anonymous":false,"inputs":[{"indexed":true,"internalType":"address","name":"operator","type":"address"},{"indexed":true,"internalType":"address","name":"from","type":"address"},{"indexed":true,"internalType":"address","name":"to","type":"address"},{"indexed":false,"internalType":"uint256[]","name":"ids","type":"uint256[]"},{"indexed":false,"internalType":"uint256[]","name":"values","type":"uint256[]"}],"name":"TransferBatch","type":"event"},{"anonymous":false,"inputs":[{"indexed":true,"internalType":"address","name":"operator","type":"address"},{"indexed":true,"internalType":"address","name":"from","type":"address"},{"indexed":true,"internalType":"address","name":"to","type":"address"},{"indexed":false,"internalType":"uint256","name":"id","type":"uint256"},{"indexed":false,"internalType":"uint256","name":"value","type":"uint256"}],"name":"TransferSingle","type":"event"},{"anonymous":false,"inputs":[{"indexed":false,"internalType":"string","name":"value","type":"string"},{"indexed":true,"internalType":"uint256","name":"id","type":"uint256"}],"name":"URI","type":"event"},{"inputs":[{"internalType":"address","name":"account","type":"address"},{"internalType":"uint256","name":"id","type":"uint256"}],"name":"balanceOf","outputs":[{"internalType":"uint256","name":"","type":"uint256"}],"stateMutability":"view","type":"function"},{"inputs":[{"internalType":"address[]","name":"accounts","type":"address[]"},{"internalType":"uint256[]","name":"ids","type":"uint256[]"}],"name":"balanceOfBatch","outputs":[{"internalType":"uint256[]","name":"","type":"uint256[]"}],"stateMutability":"view","type":"function"},{"inputs":[],"name":"currentAssetId","outputs":[{"internalType":"uint256","name":"","type":"uint256"}],"stateMutability":"view","type":"function"},{"inputs":[{"internalType":"uint256","name":"","type":"uint256"}],"name":"detallesActivo","outputs":[{"internalType":"string","name":"nombre","type":"string"},{"internalType":"uint256","name":"valorTotal","type":"uint256"},{"internalType":"uint256","name":"fracciones","type":"uint256"}],"stateMutability":"view","type":"function"},{"inputs":[{"internalType":"address","name":"account","type":"address"},{"internalType":"address","name":"operator","type":"address"}],"name":"isApprovedForAll","outputs":[{"internalType":"bool","name":"","type":"bool"}],"stateMutability":"view","type":"function"},{"inputs":[],"name":"name","outputs":[{"internalType":"string","name":"","type":"string"}],"stateMutability":"view","type":"function"},{"inputs":[],"name":"owner","outputs":[{"internalType":"address","name":"","type":"address"}],"stateMutability":"view","type":"function"},{"inputs":[],"name":"renounceOwnership","outputs":[],"stateMutability":"nonpayable","type":"function"},{"inputs":[{"internalType":"address","name":"from","type":"address"},{"internalType":"address","name":"to","type":"address"},{"internalType":"uint256[]","name":"ids","type":"uint256[]"},{"internalType":"uint256[]","name":"values","type":"uint256[]"},{"internalType":"bytes","name":"data","type":"bytes"}],"name":"safeBatchTransferFrom","outputs":[],"stateMutability":"nonpayable","type":"function"},{"inputs":[{"internalType":"address","name":"from","type":"address"},{"internalType":"address","name":"to","type":"address"},{"internalType":"uint256","name":"id","type":"uint256"},{"internalType":"uint256","name":"value","type":"uint256"},{"internalType":"bytes","name":"data","type":"bytes"}],"name":"safeTransferFrom","outputs":[],"stateMutability":"nonpayable","type":"function"},{"inputs":[{"internalType":"address","name":"operator","type":"address"},{"internalType":"bool","name":"approved","type":"bool"}],"name":"setApprovalForAll","outputs":[],"stateMutability":"nonpayable","type":"function"},{"inputs":[{"internalType":"bytes4","name":"interfaceId","type":"bytes4"}],"name":"supportsInterface","outputs":[{"internalType":"bool","name":"","type":"bool"}],"stateMutability":"view","type":"function"},{"inputs":[],"name":"symbol","outputs":[{"internalType":"string","name":"","type":"string"}],"stateMutability":"view","type":"function"},{"inputs":[{"internalType":"string","name":"_nombre","type":"string"},{"internalType":"uint256","name":"_valorTotal","type":"uint256"},{"internalType":"uint256","name":"_cantidadFracciones","type":"uint256"}],"name":"tokenizarHectarea","outputs":[],"stateMutability":"nonpayable","type":"function"},{"inputs":[{"internalType":"address","name":"newOwner","type":"address"}],"name":"transferOwnership","outputs":[],"stateMutability":"nonpayable","type":"function"},{"inputs":[{"internalType":"uint256","name":"_id","type":"uint256"}],"name":"uri","outputs":[{"internalType":"string","name":"","type":"string"}],"stateMutability":"pure","type":"function"}],"evm":{"bytecode":{"linkReferences":{},"object":"60806040526040518060400160405280601081526020017f4167726f4669204c6174616d2052574100000000000000000000000000000000815250600490816200004a9190620004a5565b506040518060400160405280600481526020017f4147524f0000000000000000000000000000000000000000000000000000000081525060059081620000919190620004a5565b503480156200009f57600080fd5b503360405180602001604052806000815250620000c2816200015060201b60201c565b50600073ffffffffffffffffffffffffffffffffffffffff168173ffffffffffffffffffffffffffffffffffffffff1603620001385760006040517f1e4fbdf70000000000000000000000000000000000000000000000000000000081526004016200012f9190620005d1565b60405180910390fd5b62000149816200016560201b60201c565b50620005ee565b8060029081620001619190620004a5565b5050565b6000600360009054906101000a900473ffffffffffffffffffffffffffffffffffffffff16905081600360006101000a81548173ffffffffffffffffffffffffffffffffffffffff021916908373ffffffffffffffffffffffffffffffffffffffff1602179055508173ffffffffffffffffffffffffffffffffffffffff168173ffffffffffffffffffffffffffffffffffffffff167f8be0079c531659141344cd1fd0a4f28419497f9722a3daafe3b4186f6b6457e060405160405180910390a35050565b600081519050919050565b7f4e487b7100000000000000000000000000000000000000000000000000000000600052604160045260246000fd5b7f4e487b7100000000000000000000000000000000000000000000000000000000600052602260045260246000fd5b60006002820490506001821680620002ad57607f821691505b602082108103620002c357620002c262000265565b5b50919050565b60008190508160005260206000209050919050565b60006020601f8301049050919050565b600082821b905092915050565b6000600883026200032d7fffffffffffffffffffffffffffffffffffffffffffffffffffffffffffffffff82620002ee565b620003398683620002ee565b95508019841693508086168417925050509392505050565b6000819050919050565b6000819050919050565b600062000386620003806200037a8462000351565b6200035b565b62000351565b9050919050565b6000819050919050565b620003a28362000365565b620003ba620003b1826200038d565b848454620002fb565b825550505050565b600090565b620003d1620003c2565b620003de81848462000397565b505050565b5b818110156200040657620003fa600082620003c7565b600181019050620003e4565b5050565b601f82111562000455576200041f81620002c9565b6200042a84620002de565b810160208510156200043a578190505b620004526200044985620002de565b830182620003e3565b50505b505050565b600082821c905092915050565b60006200047a600019846008026200045a565b1980831691505092915050565b600062000495838362000467565b9150826002028217905092915050565b620004b0826200022b565b67ffffffffffffffff811115620004cc57620004cb62000236565b5b620004d8825462000294565b620004e58282856200040a565b600060209050601f8311600181146200051d576000841562000508578287015190505b62000514858262000487565b86555062000584565b601f1984166200052d86620002c9565b60005b82811015620005575784890151825560018201915060208501945060208101905062000530565b8683101562000577578489015162000573601f89168262000467565b8355505b6001600288020188555050505b505050505050565b600073ffffffffffffffffffffffffffffffffffffffff82169050919050565b6000620005b9826200058c565b9050919050565b620005cb81620005ac565b82525050565b6000602082019050620005e86000830184620005c0565b92915050565b612c5680620005fe6000396000f3fe608060405234801561001057600080fd5b50600436106100ff5760003560e01c8063729a12f711610097578063a22cb46511610066578063a22cb465146102b0578063e985e9c5146102cc578063f242432a146102fc578063f2fde38b14610318576100ff565b8063729a12f7146102245780638b4df833146102565780638da5cb5b1461027457806395d89b4114610292576100ff565b8063151798f2116100d3578063151798f2146101b25780632eb2c2d6146101ce5780634e1273f4146101ea578063715018a61461021a576100ff565b8062fdd58e1461010457806301ffc9a71461013457806306fdde03146101645780630e89341c14610182575b600080fd5b61011e60048036038101906101199190611b95565b610334565b60405161012b9190611be4565b60405180910390f35b61014e60048036038101906101499190611c57565b61038e565b60405161015b9190611c9f565b60405180910390f35b61016c610470565b6040516101799190611d4a565b60405180910390f35b61019c60048036038101906101979190611d6c565b6104fe565b6040516101a99190611d4a565b60405180910390f35b6101cc60048036038101906101c79190611ece565b61052f565b005b6101e860048036038101906101e391906120a6565b6105ce565b005b61020460048036038101906101ff9190612238565b610676565b604051610211919061236e565b60405180910390f35b610222610785565b005b61023e60048036038101906102399190611d6c565b610799565b60405161024d93929190612390565b60405180910390f35b61025e61084b565b60405161026b9190611be4565b60405180910390f35b61027c610851565b60405161028991906123dd565b60405180910390f35b61029a61087b565b6040516102a79190611d4a565b60405180910390f35b6102ca60048036038101906102c59190612424565b610909565b005b6102e660048036038101906102e19190612464565b61091f565b6040516102f39190611c9f565b60405180910390f35b610316600480360381019061031191906124a4565b6109b3565b005b610332600480360381019061032d919061253b565b610a5b565b005b600080600083815260200190815260200160002060008473ffffffffffffffffffffffffffffffffffffffff1673ffffffffffffffffffffffffffffffffffffffff16815260200190815260200160002054905092915050565b60007fd9b67a26000000000000000000000000000000000000000000000000000000007bffffffffffffffffffffffffffffffffffffffffffffffffffffffff1916827bffffffffffffffffffffffffffffffffffffffffffffffffffffffff1916148061045957507f0e89341c000000000000000000000000000000000000000000000000000000007bffffffffffffffffffffffffffffffffffffffffffffffffffffffff1916827bffffffffffffffffffffffffffffffffffffffffffffffffffffffff1916145b80610469575061046882610ae1565b5b9050919050565b6004805461047d90612597565b80601f01602080910402602001604051908101604052809291908181526020018280546104a990612597565b80156104f65780601f106104cb576101008083540402835291602001916104f6565b820191906000526020600020905b8154815290600101906020018083116104d957829003601f168201915b505050505081565b606061050982610b4b565b6040516020016105199190612650565b6040516020818303038152906040529050919050565b610537610c19565b604051806060016040528084815260200183815260200182815250600760006006548152602001908152602001600020600082015181600001908161057c919061281e565b5060208201518160010155604082015181600201559050506105b1336006548360405180602001604052806000815250610ca0565b600660008154809291906105c49061291f565b9190505550505050565b60006105d8610d39565b90508073ffffffffffffffffffffffffffffffffffffffff168673ffffffffffffffffffffffffffffffffffffffff161415801561061d575061061b868261091f565b155b156106615780866040517fe237d922000000000000000000000000000000000000000000000000000000008152600401610658929190612967565b60405180910390fd5b61066e8686868686610d41565b505050505050565b606081518351146106c257815183516040517f5b0599910000000000000000000000000000000000000000000000000000000081526004016106b9929190612990565b60405180910390fd5b6000835167ffffffffffffffff8111156106df576106de611da3565b5b60405190808252806020026020018201604052801561070d5781602001602082028036833780820191505090505b50905060005b845181101561077a5761074a6107328287610e3990919063ffffffff16565b6107458387610e4d90919063ffffffff16565b610334565b82828151811061075d5761075c6129b9565b5b602002602001018181525050806107739061291f565b9050610713565b508091505092915050565b61078d610c19565b6107976000610e61565b565b60076020528060005260406000206000915090508060000180546107bc90612597565b80601f01602080910402602001604051908101604052809291908181526020018280546107e890612597565b80156108355780601f1061080a57610100808354040283529160200191610835565b820191906000526020600020905b81548152906001019060200180831161081857829003601f168201915b5050505050908060010154908060020154905083565b60065481565b6000600360009054906101000a900473ffffffffffffffffffffffffffffffffffffffff16905090565b6005805461088890612597565b80601f01602080910402602001604051908101604052809291908181526020018280546108b490612597565b80156109015780601f106108d657610100808354040283529160200191610901565b820191906000526020600020905b8154815290600101906020018083116108e457829003601f168201915b505050505081565b61091b610914610d39565b8383610f27565b5050565b6000600160008473ffffffffffffffffffffffffffffffffffffffff1673ffffffffffffffffffffffffffffffffffffffff16815260200190815260200160002060008373ffffffffffffffffffffffffffffffffffffffff1673ffffffffffffffffffffffffffffffffffffffff16815260200190815260200160002060009054906101000a900460ff16905092915050565b60006109bd610d39565b90508073ffffffffffffffffffffffffffffffffffffffff168673ffffffffffffffffffffffffffffffffffffffff1614158015610a025750610a00868261091f565b155b15610a465780866040517fe237d922000000000000000000000000000000000000000000000000000000008152600401610a3d929190612967565b60405180910390fd5b610a538686868686611097565b505050505050565b610a63610c19565b600073ffffffffffffffffffffffffffffffffffffffff168173ffffffffffffffffffffffffffffffffffffffff1603610ad55760006040517f1e4fbdf7000000000000000000000000000000000000000000000000000000008152600401610acc91906123dd565b60405180910390fd5b610ade81610e61565b50565b60007f01ffc9a7000000000000000000000000000000000000000000000000000000007bffffffffffffffffffffffffffffffffffffffffffffffffffffffff1916827bffffffffffffffffffffffffffffffffffffffffffffffffffffffff1916149050919050565b606060006001610b5a846111a2565b01905060008167ffffffffffffffff811115610b7957610b78611da3565b5b6040519080825280601f01601f191660200182016040528015610bab5781602001600182028036833780820191505090505b509050600082602083010190505b600115610c0e578080600190039150507f3031323334353637383961626364656600000000000000000000000000000000600a86061a8153600a8581610c0257610c016129e8565b5b04945060008503610bb9575b819350505050919050565b610c21610d39565b73ffffffffffffffffffffffffffffffffffffffff16610c3f610851565b73ffffffffffffffffffffffffffffffffffffffff1614610c9e57610c62610d39565b6040517f118cdaa7000000000000000000000000000000000000000000000000000000008152600401610c9591906123dd565b60405180910390fd5b565b600073ffffffffffffffffffffffffffffffffffffffff168473ffffffffffffffffffffffffffffffffffffffff1603610d125760006040517f57f447ce000000000000000000000000000000000000000000000000000000008152600401610d0991906123dd565b60405180910390fd5b600080610d1f85856112f5565b91509150610d31600087848487611325565b505050505050565b600033905090565b600073ffffffffffffffffffffffffffffffffffffffff168473ffffffffffffffffffffffffffffffffffffffff1603610db35760006040517f57f447ce000000000000000000000000000000000000000000000000000000008152600401610daa91906123dd565b60405180910390fd5b600073ffffffffffffffffffffffffffffffffffffffff168573ffffffffffffffffffffffffffffffffffffffff1603610e255760006040517f01a83514000000000000000000000000000000000000000000000000000000008152600401610e1c91906123dd565b60405180910390fd5b610e328585858585611325565b5050505050565b600060208202602084010151905092915050565b600060208202602084010151905092915050565b6000600360009054906101000a900473ffffffffffffffffffffffffffffffffffffffff16905081600360006101000a81548173ffffffffffffffffffffffffffffffffffffffff021916908373ffffffffffffffffffffffffffffffffffffffff1602179055508173ffffffffffffffffffffffffffffffffffffffff168173ffffffffffffffffffffffffffffffffffffffff167f8be0079c531659141344cd1fd0a4f28419497f9722a3daafe3b4186f6b6457e060405160405180910390a35050565b600073ffffffffffffffffffffffffffffffffffffffff168273ffffffffffffffffffffffffffffffffffffffff1603610f995760006040517fced3e100000000000000000000000000000000000000000000000000000000008152600401610f9091906123dd565b60405180910390fd5b80600160008573ffffffffffffffffffffffffffffffffffffffff1673ffffffffffffffffffffffffffffffffffffffff16815260200190815260200160002060008473ffffffffffffffffffffffffffffffffffffffff1673ffffffffffffffffffffffffffffffffffffffff16815260200190815260200160002060006101000a81548160ff0219169083151502179055508173ffffffffffffffffffffffffffffffffffffffff168373ffffffffffffffffffffffffffffffffffffffff167f17307eab39ab6107e8899845ad3d59bd9653f200f220920489ca2b5937696c318360405161108a9190611c9f565b60405180910390a3505050565b600073ffffffffffffffffffffffffffffffffffffffff168473ffffffffffffffffffffffffffffffffffffffff16036111095760006040517f57f447ce00000000000000000000000000000000000000000000000000000000815260040161110091906123dd565b60405180910390fd5b600073ffffffffffffffffffffffffffffffffffffffff168573ffffffffffffffffffffffffffffffffffffffff160361117b5760006040517f01a8351400000000000000000000000000000000000000000000000000000000815260040161117291906123dd565b60405180910390fd5b60008061118885856112f5565b915091506111998787848487611325565b50505050505050565b600080600090507a184f03e93ff9f4daa797ed6e38ed64bf6a1f0100000000000000008310611200577a184f03e93ff9f4daa797ed6e38ed64bf6a1f01000000000000000083816111f6576111f56129e8565b5b0492506040810190505b6d04ee2d6d415b85acef8100000000831061123d576d04ee2d6d415b85acef81000000008381611233576112326129e8565b5b0492506020810190505b662386f26fc10000831061126c57662386f26fc100008381611262576112616129e8565b5b0492506010810190505b6305f5e1008310611295576305f5e100838161128b5761128a6129e8565b5b0492506008810190505b61271083106112ba5761271083816112b0576112af6129e8565b5b0492506004810190505b606483106112dd57606483816112d3576112d26129e8565b5b0492506002810190505b600a83106112ec576001810190505b80915050919050565b60608060405191506001825283602083015260408201905060018152826020820152604081016040529250929050565b611331858585856113d7565b600073ffffffffffffffffffffffffffffffffffffffff168473ffffffffffffffffffffffffffffffffffffffff16146113d057600061136f610d39565b905060018451036113bf576000611390600086610e4d90919063ffffffff16565b905060006113a8600086610e4d90919063ffffffff16565b90506113b8838989858589611785565b50506113ce565b6113cd818787878787611939565b5b505b5050505050565b805182511461142157815181516040517f5b059991000000000000000000000000000000000000000000000000000000008152600401611418929190612990565b60405180910390fd5b600061142b610d39565b905060005b835181101561164057600061144e8286610e4d90919063ffffffff16565b905060006114658386610e4d90919063ffffffff16565b9050600073ffffffffffffffffffffffffffffffffffffffff168873ffffffffffffffffffffffffffffffffffffffff161461159257600080600084815260200190815260200160002060008a73ffffffffffffffffffffffffffffffffffffffff1673ffffffffffffffffffffffffffffffffffffffff1681526020019081526020016000205490508181101561153a57888183856040517f03dee4c50000000000000000000000000000000000000000000000000000000081526004016115319493929190612a17565b60405180910390fd5b81810360008085815260200190815260200160002060008b73ffffffffffffffffffffffffffffffffffffffff1673ffffffffffffffffffffffffffffffffffffffff16815260200190815260200160002081905550505b600073ffffffffffffffffffffffffffffffffffffffff168773ffffffffffffffffffffffffffffffffffffffff161461162d578060008084815260200190815260200160002060008973ffffffffffffffffffffffffffffffffffffffff1673ffffffffffffffffffffffffffffffffffffffff16815260200190815260200160002060008282546116259190612a5c565b925050819055505b5050806116399061291f565b9050611430565b5060018351036116ff576000611660600085610e4d90919063ffffffff16565b90506000611678600085610e4d90919063ffffffff16565b90508573ffffffffffffffffffffffffffffffffffffffff168773ffffffffffffffffffffffffffffffffffffffff168473ffffffffffffffffffffffffffffffffffffffff167fc3d58168c5ae7397731d063d5bbf3d657854427343f4c083240f7aacaa2d0f6285856040516116f0929190612990565b60405180910390a4505061177e565b8373ffffffffffffffffffffffffffffffffffffffff168573ffffffffffffffffffffffffffffffffffffffff168273ffffffffffffffffffffffffffffffffffffffff167f4a39dc06d4c0dbc64b70af90fd698a233a518aa5d07e595d983b8c0526c8f7fb8686604051611775929190612a90565b60405180910390a45b5050505050565b60008473ffffffffffffffffffffffffffffffffffffffff163b1115611931578373ffffffffffffffffffffffffffffffffffffffff1663f23a6e6187878686866040518663ffffffff1660e01b81526004016117e6959493929190612b1c565b6020604051808303816000875af192505050801561182257506040513d601f19601f8201168201806040525081019061181f9190612b8b565b60015b6118a6573d8060008114611852576040519150601f19603f3d011682016040523d82523d6000602084013e611857565b606091505b50600081510361189e57846040517f57f447ce00000000000000000000000000000000000000000000000000000000815260040161189591906123dd565b60405180910390fd5b805160208201fd5b63f23a6e6160e01b7bffffffffffffffffffffffffffffffffffffffffffffffffffffffff1916817bffffffffffffffffffffffffffffffffffffffffffffffffffffffff19161461192f57846040517f57f447ce00000000000000000000000000000000000000000000000000000000815260040161192691906123dd565b60405180910390fd5b505b505050505050565b60008473ffffffffffffffffffffffffffffffffffffffff163b1115611ae5578373ffffffffffffffffffffffffffffffffffffffff1663bc197c8187878686866040518663ffffffff1660e01b815260040161199a959493929190612bb8565b6020604051808303816000875af19250505080156119d657506040513d601f19601f820116820180604052508101906119d39190612b8b565b60015b611a5a573d8060008114611a06576040519150601f19603f3d011682016040523d82523d6000602084013e611a0b565b606091505b506000815103611a5257846040517f57f447ce000000000000000000000000000000000000000000000000000000008152600401611a4991906123dd565b60405180910390fd5b805160208201fd5b63bc197c8160e01b7bffffffffffffffffffffffffffffffffffffffffffffffffffffffff1916817bffffffffffffffffffffffffffffffffffffffffffffffffffffffff191614611ae357846040517f57f447ce000000000000000000000000000000000000000000000000000000008152600401611ada91906123dd565b60405180910390fd5b505b505050505050565b6000604051905090565b600080fd5b600080fd5b600073ffffffffffffffffffffffffffffffffffffffff82169050919050565b6000611b2c82611b01565b9050919050565b611b3c81611b21565b8114611b4757600080fd5b50565b600081359050611b5981611b33565b92915050565b6000819050919050565b611b7281611b5f565b8114611b7d57600080fd5b50565b600081359050611b8f81611b69565b92915050565b60008060408385031215611bac57611bab611af7565b5b6000611bba85828601611b4a565b9250506020611bcb85828601611b80565b9150509250929050565b611bde81611b5f565b82525050565b6000602082019050611bf96000830184611bd5565b92915050565b60007fffffffff0000000000000000000000000000000000000000000000000000000082169050919050565b611c3481611bff565b8114611c3f57600080fd5b50565b600081359050611c5181611c2b565b92915050565b600060208284031215611c6d57611c6c611af7565b5b6000611c7b84828501611c42565b91505092915050565b60008115159050919050565b611c9981611c84565b82525050565b6000602082019050611cb46000830184611c90565b92915050565b600081519050919050565b600082825260208201905092915050565b60005b83811015611cf4578082015181840152602081019050611cd9565b60008484015250505050565b6000601f19601f8301169050919050565b6000611d1c82611cba565b611d268185611cc5565b9350611d36818560208601611cd6565b611d3f81611d00565b840191505092915050565b60006020820190508181036000830152611d648184611d11565b905092915050565b600060208284031215611d8257611d81611af7565b5b6000611d9084828501611b80565b91505092915050565b600080fd5b600080fd5b7f4e487b7100000000000000000000000000000000000000000000000000000000600052604160045260246000fd5b611ddb82611d00565b810181811067ffffffffffffffff82111715611dfa57611df9611da3565b5b80604052505050565b6000611e0d611aed565b9050611e198282611dd2565b919050565b600067ffffffffffffffff821115611e3957611e38611da3565b5b611e4282611d00565b9050602081019050919050565b82818337600083830152505050565b6000611e71611e6c84611e1e565b611e03565b905082815260208101848484011115611e8d57611e8c611d9e565b5b611e98848285611e4f565b509392505050565b600082601f830112611eb557611eb4611d99565b5b8135611ec5848260208601611e5e565b91505092915050565b600080600060608486031215611ee757611ee6611af7565b5b600084013567ffffffffffffffff811115611f0557611f04611afc565b5b611f1186828701611ea0565b9350506020611f2286828701611b80565b9250506040611f3386828701611b80565b9150509250925092565b600067ffffffffffffffff821115611f5857611f57611da3565b5b602082029050602081019050919050565b600080fd5b6000611f81611f7c84611f3d565b611e03565b90508083825260208201905060208402830185811115611fa457611fa3611f69565b5b835b81811015611fcd5780611fb98882611b80565b845260208401935050602081019050611fa6565b5050509392505050565b600082601f830112611fec57611feb611d99565b5b8135611ffc848260208601611f6e565b91505092915050565b600067ffffffffffffffff8211156120205761201f611da3565b5b61202982611d00565b9050602081019050919050565b600061204961204484612005565b611e03565b90508281526020810184848401111561206557612064611d9e565b5b612070848285611e4f565b509392505050565b600082601f83011261208d5761208c611d99565b5b813561209d848260208601612036565b91505092915050565b600080600080600060a086880312156120c2576120c1611af7565b5b60006120d088828901611b4a565b95505060206120e188828901611b4a565b945050604086013567ffffffffffffffff81111561210257612101611afc565b5b61210e88828901611fd7565b935050606086013567ffffffffffffffff81111561212f5761212e611afc565b5b61213b88828901611fd7565b925050608086013567ffffffffffffffff81111561215c5761215b611afc565b5b61216888828901612078565b9150509295509295909350565b600067ffffffffffffffff8211156121905761218f611da3565b5b602082029050602081019050919050565b60006121b46121af84612175565b611e03565b905080838252602082019050602084028301858111156121d7576121d6611f69565b5b835b8181101561220057806121ec8882611b4a565b8452602084019350506020810190506121d9565b5050509392505050565b600082601f83011261221f5761221e611d99565b5b813561222f8482602086016121a1565b91505092915050565b6000806040838503121561224f5761224e611af7565b5b600083013567ffffffffffffffff81111561226d5761226c611afc565b5b6122798582860161220a565b925050602083013567ffffffffffffffff81111561229a57612299611afc565b5b6122a685828601611fd7565b9150509250929050565b600081519050919050565b600082825260208201905092915050565b6000819050602082019050919050565b6122e581611b5f565b82525050565b60006122f783836122dc565b60208301905092915050565b6000602082019050919050565b600061231b826122b0565b61232581856122bb565b9350612330836122cc565b8060005b8381101561236157815161234888826122eb565b975061235383612303565b925050600181019050612334565b5085935050505092915050565b600060208201905081810360008301526123888184612310565b905092915050565b600060608201905081810360008301526123aa8186611d11565b90506123b96020830185611bd5565b6123c66040830184611bd5565b949350505050565b6123d781611b21565b82525050565b60006020820190506123f260008301846123ce565b92915050565b61240181611c84565b811461240c57600080fd5b50565b60008135905061241e816123f8565b92915050565b6000806040838503121561243b5761243a611af7565b5b600061244985828601611b4a565b925050602061245a8582860161240f565b9150509250929050565b6000806040838503121561247b5761247a611af7565b5b600061248985828601611b4a565b925050602061249a85828601611b4a565b9150509250929050565b600080600080600060a086880312156124c0576124bf611af7565b5b60006124ce88828901611b4a565b95505060206124df88828901611b4a565b94505060406124f088828901611b80565b935050606061250188828901611b80565b925050608086013567ffffffffffffffff81111561252257612521611afc565b5b61252e88828901612078565b9150509295509295909350565b60006020828403121561255157612550611af7565b5b600061255f84828501611b4a565b91505092915050565b7f4e487b7100000000000000000000000000000000000000000000000000000000600052602260045260246000fd5b600060028204905060018216806125af57607f821691505b6020821081036125c2576125c1612568565b5b50919050565b600081905092915050565b7f68747470733a2f2f6170692e6167726f66692e636f6d2f6d657461646174612f600082015250565b60006126096020836125c8565b9150612614826125d3565b602082019050919050565b600061262a82611cba565b61263481856125c8565b9350612644818560208601611cd6565b80840191505092915050565b600061265b826125fc565b9150612667828461261f565b915081905092915050565b60008190508160005260206000209050919050565b60006020601f8301049050919050565b600082821b905092915050565b6000600883026126d47fffffffffffffffffffffffffffffffffffffffffffffffffffffffffffffffff82612697565b6126de8683612697565b95508019841693508086168417925050509392505050565b6000819050919050565b600061271b61271661271184611b5f565b6126f6565b611b5f565b9050919050565b6000819050919050565b61273583612700565b61274961274182612722565b8484546126a4565b825550505050565b600090565b61275e612751565b61276981848461272c565b505050565b5b8181101561278d57612782600082612756565b60018101905061276f565b5050565b601f8211156127d2576127a381612672565b6127ac84612687565b810160208510156127bb578190505b6127cf6127c785612687565b83018261276e565b50505b505050565b600082821c905092915050565b60006127f5600019846008026127d7565b1980831691505092915050565b600061280e83836127e4565b9150826002028217905092915050565b61282782611cba565b67ffffffffffffffff8111156128405761283f611da3565b5b61284a8254612597565b612855828285612791565b600060209050601f8311600181146128885760008415612876578287015190505b6128808582612802565b8655506128e8565b601f19841661289686612672565b60005b828110156128be57848901518255600182019150602085019450602081019050612899565b868310156128db57848901516128d7601f8916826127e4565b8355505b6001600288020188555050505b505050505050565b7f4e487b7100000000000000000000000000000000000000000000000000000000600052601160045260246000fd5b600061292a82611b5f565b91507fffffffffffffffffffffffffffffffffffffffffffffffffffffffffffffffff820361295c5761295b6128f0565b5b600182019050919050565b600060408201905061297c60008301856123ce565b61298960208301846123ce565b9392505050565b60006040820190506129a56000830185611bd5565b6129b26020830184611bd5565b9392505050565b7f4e487b7100000000000000000000000000000000000000000000000000000000600052603260045260246000fd5b7f4e487b7100000000000000000000000000000000000000000000000000000000600052601260045260246000fd5b6000608082019050612a2c60008301876123ce565b612a396020830186611bd5565b612a466040830185611bd5565b612a536060830184611bd5565b95945050505050565b6000612a6782611b5f565b9150612a7283611b5f565b9250828201905080821115612a8a57612a896128f0565b5b92915050565b60006040820190508181036000830152612aaa8185612310565b90508181036020830152612abe8184612310565b90509392505050565b600081519050919050565b600082825260208201905092915050565b6000612aee82612ac7565b612af88185612ad2565b9350612b08818560208601611cd6565b612b1181611d00565b840191505092915050565b600060a082019050612b3160008301886123ce565b612b3e60208301876123ce565b612b4b6040830186611bd5565b612b586060830185611bd5565b8181036080830152612b6a8184612ae3565b90509695505050505050565b600081519050612b8581611c2b565b92915050565b600060208284031215612ba157612ba0611af7565b5b6000612baf84828501612b76565b91505092915050565b600060a082019050612bcd60008301886123ce565b612bda60208301876123ce565b8181036040830152612bec8186612310565b90508181036060830152612c008185612310565b90508181036080830152612c148184612ae3565b9050969550505050505056fea2646970667358221220d895a26bbd8a32f4d698d9f42b09466afb3de2042adc3f235299b3812fc8981164736f6c63430008140033","opcodes":"PUSH1 0x80 PUSH1 0x40 MSTORE PUSH1 0x40 MLOAD DUP1 PUSH1 0x40 ADD PUSH1 0x40 MSTORE DUP1 PUSH1 0x10 DUP2 MSTORE PUSH1 0x20 ADD PUSH32 0x4167726F4669204C6174616D2052574100000000000000000000000000000000 DUP2 MSTORE POP PUSH1 0x4 SWAP1 DUP2 PUSH3 0x4A SWAP2 SWAP1 PUSH3 0x4A5 JUMP JUMPDEST POP PUSH1 0x40 MLOAD DUP1 PUSH1 0x40 ADD PUSH1 0x40 MSTORE DUP1 PUSH1 0x4 DUP2 MSTORE PUSH1 0x20 ADD PUSH32 0x4147524F00000000000000000000000000000000000000000000000000000000 DUP2 MSTORE POP PUSH1 0x5 SWAP1 DUP2 PUSH3 0x91 SWAP2 SWAP1 PUSH3 0x4A5 JUMP JUMPDEST POP CALLVALUE DUP1 ISZERO PUSH3 0x9F JUMPI PUSH1 0x0 DUP1 REVERT JUMPDEST POP CALLER PUSH1 0x40 MLOAD DUP1 PUSH1 0x20 ADD PUSH1 0x40 MSTORE DUP1 PUSH1 0x0 DUP2 MSTORE POP PUSH3 0xC2 DUP2 PUSH3 0x150 PUSH1 0x20 SHL PUSH1 0x20 SHR JUMP JUMPDEST POP PUSH1 0x0 PUSH20 0xFFFFFFFFFFFFFFFFFFFFFFFFFFFFFFFFFFFFFFFF AND DUP2 PUSH20 0xFFFFFFFFFFFFFFFFFFFFFFFFFFFFFFFFFFFFFFFF AND SUB PUSH3 0x138 JUMPI PUSH1 0x0 PUSH1 0x40 MLOAD PUSH32 0x1E4FBDF700000000000000000000000000000000000000000000000000000000 DUP2 MSTORE PUSH1 0x4 ADD PUSH3 0x12F SWAP2 SWAP1 PUSH3 0x5D1 JUMP JUMPDEST PUSH1 0x40 MLOAD DUP1 SWAP2 SUB SWAP1 REVERT JUMPDEST PUSH3 0x149 DUP2 PUSH3 0x165 PUSH1 0x20 SHL PUSH1 0x20 SHR JUMP JUMPDEST POP PUSH3 0x5EE JUMP JUMPDEST DUP1 PUSH1 0x2 SWAP1 DUP2 PUSH3 0x161 SWAP2 SWAP1 PUSH3 0x4A5 JUMP JUMPDEST POP POP JUMP JUMPDEST PUSH1 0x0 PUSH1 0x3 PUSH1 0x0 SWAP1 SLOAD SWAP1 PUSH2 0x100 EXP SWAP1 DIV PUSH20 0xFFFFFFFFFFFFFFFFFFFFFFFFFFFFFFFFFFFFFFFF AND SWAP1 POP DUP2 PUSH1 0x3 PUSH1 0x0 PUSH2 0x100 EXP DUP2 SLOAD DUP2 PUSH20 0xFFFFFFFFFFFFFFFFFFFFFFFFFFFFFFFFFFFFFFFF MUL NOT AND SWAP1 DUP4 PUSH20 0xFFFFFFFFFFFFFFFFFFFFFFFFFFFFFFFFFFFFFFFF AND MUL OR SWAP1 SSTORE POP DUP2 PUSH20 0xFFFFFFFFFFFFFFFFFFFFFFFFFFFFFFFFFFFFFFFF AND DUP2 PUSH20 0xFFFFFFFFFFFFFFFFFFFFFFFFFFFFFFFFFFFFFFFF AND PUSH32 0x8BE0079C531659141344CD1FD0A4F28419497F9722A3DAAFE3B4186F6B6457E0 PUSH1 0x40 MLOAD PUSH1 0x40 MLOAD DUP1 SWAP2 SUB SWAP1 LOG3 POP POP JUMP JUMPDEST PUSH1 0x0 DUP2 MLOAD SWAP1 POP SWAP2 SWAP1 POP JUMP JUMPDEST PUSH32 0x4E487B7100000000000000000000000000000000000000000000000000000000 PUSH1 0x0 MSTORE PUSH1 0x41 PUSH1 0x4 MSTORE PUSH1 0x24 PUSH1 0x0 REVERT JUMPDEST PUSH32 0x4E487B7100000000000000000000000000000000000000000000000000000000 PUSH1 0x0 MSTORE PUSH1 0x22 PUSH1 0x4 MSTORE PUSH1 0x24 PUSH1 0x0 REVERT JUMPDEST PUSH1 0x0 PUSH1 0x2 DUP3 DIV SWAP1 POP PUSH1 0x1 DUP3 AND DUP1 PUSH3 0x2AD JUMPI PUSH1 0x7F DUP3 AND SWAP2 POP JUMPDEST PUSH1 0x20 DUP3 LT DUP2 SUB PUSH3 0x2C3 JUMPI PUSH3 0x2C2 PUSH3 0x265 JUMP JUMPDEST JUMPDEST POP SWAP2 SWAP1 POP JUMP JUMPDEST PUSH1 0x0 DUP2 SWAP1 POP DUP2 PUSH1 0x0 MSTORE PUSH1 0x20 PUSH1 0x0 KECCAK256 SWAP1 POP SWAP2 SWAP1 POP JUMP JUMPDEST PUSH1 0x0 PUSH1 0x20 PUSH1 0x1F DUP4 ADD DIV SWAP1 POP SWAP2 SWAP1 POP JUMP JUMPDEST PUSH1 0x0 DUP3 DUP3 SHL SWAP1 POP SWAP3 SWAP2 POP POP JUMP JUMPDEST PUSH1 0x0 PUSH1 0x8 DUP4 MUL PUSH3 0x32D PUSH32 0xFFFFFFFFFFFFFFFFFFFFFFFFFFFFFFFFFFFFFFFFFFFFFFFFFFFFFFFFFFFFFFFF DUP3 PUSH3 0x2EE JUMP JUMPDEST PUSH3 0x339 DUP7 DUP4 PUSH3 0x2EE JUMP JUMPDEST SWAP6 POP DUP1 NOT DUP5 AND SWAP4 POP DUP1 DUP7 AND DUP5 OR SWAP3 POP POP POP SWAP4 SWAP3 POP POP POP JUMP JUMPDEST PUSH1 0x0 DUP2 SWAP1 POP SWAP2 SWAP1 POP JUMP JUMPDEST PUSH1 0x0 DUP2 SWAP1 POP SWAP2 SWAP1 POP JUMP JUMPDEST PUSH1 0x0 PUSH3 0x386 PUSH3 0x380 PUSH3 0x37A DUP5 PUSH3 0x351 JUMP JUMPDEST PUSH3 0x35B JUMP JUMPDEST PUSH3 0x351 JUMP JUMPDEST SWAP1 POP SWAP2 SWAP1 POP JUMP JUMPDEST PUSH1 0x0 DUP2 SWAP1 POP SWAP2 SWAP1 POP JUMP JUMPDEST PUSH3 0x3A2 DUP4 PUSH3 0x365 JUMP JUMPDEST PUSH3 0x3BA PUSH3 0x3B1 DUP3 PUSH3 0x38D JUMP JUMPDEST DUP5 DUP5 SLOAD PUSH3 0x2FB JUMP JUMPDEST DUP3 SSTORE POP POP POP POP JUMP JUMPDEST PUSH1 0x0 SWAP1 JUMP JUMPDEST PUSH3 0x3D1 PUSH3 0x3C2 JUMP JUMPDEST PUSH3 0x3DE DUP2 DUP5 DUP5 PUSH3 0x397 JUMP JUMPDEST POP POP POP JUMP JUMPDEST JUMPDEST DUP2 DUP2 LT ISZERO PUSH3 0x406 JUMPI PUSH3 0x3FA PUSH1 0x0 DUP3 PUSH3 0x3C7 JUMP JUMPDEST PUSH1 0x1 DUP2 ADD SWAP1 POP PUSH3 0x3E4 JUMP JUMPDEST POP POP JUMP JUMPDEST PUSH1 0x1F DUP3 GT ISZERO PUSH3 0x455 JUMPI PUSH3 0x41F DUP2 PUSH3 0x2C9 JUMP JUMPDEST PUSH3 0x42A DUP5 PUSH3 0x2DE JUMP JUMPDEST DUP2 ADD PUSH1 0x20 DUP6 LT ISZERO PUSH3 0x43A JUMPI DUP2 SWAP1 POP JUMPDEST PUSH3 0x452 PUSH3 0x449 DUP6 PUSH3 0x2DE JUMP JUMPDEST DUP4 ADD DUP3 PUSH3 0x3E3 JUMP JUMPDEST POP POP JUMPDEST POP POP POP JUMP JUMPDEST PUSH1 0x0 DUP3 DUP3 SHR SWAP1 POP SWAP3 SWAP2 POP POP JUMP JUMPDEST PUSH1 0x0 PUSH3 0x47A PUSH1 0x0 NOT DUP5 PUSH1 0x8 MUL PUSH3 0x45A JUMP JUMPDEST NOT DUP1 DUP4 AND SWAP2 POP POP SWAP3 SWAP2 POP POP JUMP JUMPDEST PUSH1 0x0 PUSH3 0x495 DUP4 DUP4 PUSH3 0x467 JUMP JUMPDEST SWAP2 POP DUP3 PUSH1 0x2 MUL DUP3 OR SWAP1 POP SWAP3 SWAP2 POP POP JUMP JUMPDEST PUSH3 0x4B0 DUP3 PUSH3 0x22B JUMP JUMPDEST PUSH8 0xFFFFFFFFFFFFFFFF DUP2 GT ISZERO PUSH3 0x4CC JUMPI PUSH3 0x4CB PUSH3 0x236 JUMP JUMPDEST JUMPDEST PUSH3 0x4D8 DUP3 SLOAD PUSH3 0x294 JUMP JUMPDEST PUSH3 0x4E5 DUP3 DUP3 DUP6 PUSH3 0x40A JUMP JUMPDEST PUSH1 0x0 PUSH1 0x20 SWAP1 POP PUSH1 0x1F DUP4 GT PUSH1 0x1 DUP2 EQ PUSH3 0x51D JUMPI PUSH1 0x0 DUP5 ISZERO PUSH3 0x508 JUMPI DUP3 DUP8 ADD MLOAD SWAP1 POP JUMPDEST PUSH3 0x514 DUP6 DUP3 PUSH3 0x487 JUMP JUMPDEST DUP7 SSTORE POP PUSH3 0x584 JUMP JUMPDEST PUSH1 0x1F NOT DUP5 AND PUSH3 0x52D DUP7 PUSH3 0x2C9 JUMP JUMPDEST PUSH1 0x0 JUMPDEST DUP3 DUP2 LT ISZERO PUSH3 0x557 JUMPI DUP5 DUP10 ADD MLOAD DUP3 SSTORE PUSH1 0x1 DUP3 ADD SWAP2 POP PUSH1 0x20 DUP6 ADD SWAP5 POP PUSH1 0x20 DUP2 ADD SWAP1 POP PUSH3 0x530 JUMP JUMPDEST DUP7 DUP4 LT ISZERO PUSH3 0x577 JUMPI DUP5 DUP10 ADD MLOAD PUSH3 0x573 PUSH1 0x1F DUP10 AND DUP3 PUSH3 0x467 JUMP JUMPDEST DUP4 SSTORE POP JUMPDEST PUSH1 0x1 PUSH1 0x2 DUP9 MUL ADD DUP9 SSTORE POP POP POP JUMPDEST POP POP POP POP POP POP JUMP JUMPDEST PUSH1 0x0 PUSH20 0xFFFFFFFFFFFFFFFFFFFFFFFFFFFFFFFFFFFFFFFF DUP3 AND SWAP1 POP SWAP2 SWAP1 POP JUMP JUMPDEST PUSH1 0x0 PUSH3 0x5B9 DUP3 PUSH3 0x58C JUMP JUMPDEST SWAP1 POP SWAP2 SWAP1 POP JUMP JUMPDEST PUSH3 0x5CB DUP2 PUSH3 0x5AC JUMP JUMPDEST DUP3 MSTORE POP POP JUMP JUMPDEST PUSH1 0x0 PUSH1 0x20 DUP3 ADD SWAP1 POP PUSH3 0x5E8 PUSH1 0x0 DUP4 ADD DUP5 PUSH3 0x5C0 JUMP JUMPDEST SWAP3 SWAP2 POP POP JUMP JUMPDEST PUSH2 0x2C56 DUP1 PUSH3 0x5FE PUSH1 0x0 CODECOPY PUSH1 0x0 RETURN INVALID PUSH1 0x80 PUSH1 0x40 MSTORE CALLVALUE DUP1 ISZERO PUSH2 0x10 JUMPI PUSH1 0x0 DUP1 REVERT JUMPDEST POP PUSH1 0x4 CALLDATASIZE LT PUSH2 0xFF JUMPI PUSH1 0x0 CALLDATALOAD PUSH1 0xE0 SHR DUP1 PUSH4 0x729A12F7 GT PUSH2 0x97 JUMPI DUP1 PUSH4 0xA22CB465 GT PUSH2 0x66 JUMPI DUP1 PUSH4 0xA22CB465 EQ PUSH2 0x2B0 JUMPI DUP1 PUSH4 0xE985E9C5 EQ PUSH2 0x2CC JUMPI DUP1 PUSH4 0xF242432A EQ PUSH2 0x2FC JUMPI DUP1 PUSH4 0xF2FDE38B EQ PUSH2 0x318 JUMPI PUSH2 0xFF JUMP JUMPDEST DUP1 PUSH4 0x729A12F7 EQ PUSH2 0x224 JUMPI DUP1 PUSH4 0x8B4DF833 EQ PUSH2 0x256 JUMPI DUP1 PUSH4 0x8DA5CB5B EQ PUSH2 0x274 JUMPI DUP1 PUSH4 0x95D89B41 EQ PUSH2 0x292 JUMPI PUSH2 0xFF JUMP JUMPDEST DUP1 PUSH4 0x151798F2 GT PUSH2 0xD3 JUMPI DUP1 PUSH4 0x151798F2 EQ PUSH2 0x1B2 JUMPI DUP1 PUSH4 0x2EB2C2D6 EQ PUSH2 0x1CE JUMPI DUP1 PUSH4 0x4E1273F4 EQ PUSH2 0x1EA JUMPI DUP1 PUSH4 0x715018A6 EQ PUSH2 0x21A JUMPI PUSH2 0xFF JUMP JUMPDEST DUP1 PUSH3 0xFDD58E EQ PUSH2 0x104 JUMPI DUP1 PUSH4 0x1FFC9A7 EQ PUSH2 0x134 JUMPI DUP1 PUSH4 0x6FDDE03 EQ PUSH2 0x164 JUMPI DUP1 PUSH4 0xE89341C EQ PUSH2 0x182 JUMPI JUMPDEST PUSH1 0x0 DUP1 REVERT JUMPDEST PUSH2 0x11E PUSH1 0x4 DUP1 CALLDATASIZE SUB DUP2 ADD SWAP1 PUSH2 0x119 SWAP2 SWAP1 PUSH2 0x1B95 JUMP JUMPDEST PUSH2 0x334 JUMP JUMPDEST PUSH1 0x40 MLOAD PUSH2 0x12B SWAP2 SWAP1 PUSH2 0x1BE4 JUMP JUMPDEST PUSH1 0x40 MLOAD DUP1 SWAP2 SUB SWAP1 RETURN JUMPDEST PUSH2 0x14E PUSH1 0x4 DUP1 CALLDATASIZE SUB DUP2 ADD SWAP1 PUSH2 0x149 SWAP2 SWAP1 PUSH2 0x1C57 JUMP JUMPDEST PUSH2 0x38E JUMP JUMPDEST PUSH1 0x40 MLOAD PUSH2 0x15B SWAP2 SWAP1 PUSH2 0x1C9F JUMP JUMPDEST PUSH1 0x40 MLOAD DUP1 SWAP2 SUB SWAP1 RETURN JUMPDEST PUSH2 0x16C PUSH2 0x470 JUMP JUMPDEST PUSH1 0x40 MLOAD PUSH2 0x179 SWAP2 SWAP1 PUSH2 0x1D4A JUMP JUMPDEST PUSH1 0x40 MLOAD DUP1 SWAP2 SUB SWAP1 RETURN JUMPDEST PUSH2 0x19C PUSH1 0x4 DUP1 CALLDATASIZE SUB DUP2 ADD SWAP1 PUSH2 0x197 SWAP2 SWAP1 PUSH2 0x1D6C JUMP JUMPDEST PUSH2 0x4FE JUMP JUMPDEST PUSH1 0x40 MLOAD PUSH2 0x1A9 SWAP2 SWAP1 PUSH2 0x1D4A JUMP JUMPDEST PUSH1 0x40 MLOAD DUP1 SWAP2 SUB SWAP1 RETURN JUMPDEST PUSH2 0x1CC PUSH1 0x4 DUP1 CALLDATASIZE SUB DUP2 ADD SWAP1 PUSH2 0x1C7 SWAP2 SWAP1 PUSH2 0x1ECE JUMP JUMPDEST PUSH2 0x52F JUMP JUMPDEST STOP JUMPDEST PUSH2 0x1E8 PUSH1 0x4 DUP1 CALLDATASIZE SUB DUP2 ADD SWAP1 PUSH2 0x1E3 SWAP2 SWAP1 PUSH2 0x20A6 JUMP JUMPDEST PUSH2 0x5CE JUMP JUMPDEST STOP JUMPDEST PUSH2 0x204 PUSH1 0x4 DUP1 CALLDATASIZE SUB DUP2 ADD SWAP1 PUSH2 0x1FF SWAP2 SWAP1 PUSH2 0x2238 JUMP JUMPDEST PUSH2 0x676 JUMP JUMPDEST PUSH1 0x40 MLOAD PUSH2 0x211 SWAP2 SWAP1 PUSH2 0x236E JUMP JUMPDEST PUSH1 0x40 MLOAD DUP1 SWAP2 SUB SWAP1 RETURN JUMPDEST PUSH2 0x222 PUSH2 0x785 JUMP JUMPDEST STOP JUMPDEST PUSH2 0x23E PUSH1 0x4 DUP1 CALLDATASIZE SUB DUP2 ADD SWAP1 PUSH2 0x239 SWAP2 SWAP1 PUSH2 0x1D6C JUMP JUMPDEST PUSH2 0x799 JUMP JUMPDEST PUSH1 0x40 MLOAD PUSH2 0x24D SWAP4 SWAP3 SWAP2 SWAP1 PUSH2 0x2390 JUMP JUMPDEST PUSH1 0x40 MLOAD DUP1 SWAP2 SUB SWAP1 RETURN JUMPDEST PUSH2 0x25E PUSH2 0x84B JUMP JUMPDEST PUSH1 0x40 MLOAD PUSH2 0x26B SWAP2 SWAP1 PUSH2 0x1BE4 JUMP JUMPDEST PUSH1 0x40 MLOAD DUP1 SWAP2 SUB SWAP1 RETURN JUMPDEST PUSH2 0x27C PUSH2 0x851 JUMP JUMPDEST PUSH1 0x40 MLOAD PUSH2 0x289 SWAP2 SWAP1 PUSH2 0x23DD JUMP JUMPDEST PUSH1 0x40 MLOAD DUP1 SWAP2 SUB SWAP1 RETURN JUMPDEST PUSH2 0x29A PUSH2 0x87B JUMP JUMPDEST PUSH1 0x40 MLOAD PUSH2 0x2A7 SWAP2 SWAP1 PUSH2 0x1D4A JUMP JUMPDEST PUSH1 0x40 MLOAD DUP1 SWAP2 SUB SWAP1 RETURN JUMPDEST PUSH2 0x2CA PUSH1 0x4 DUP1 CALLDATASIZE SUB DUP2 ADD SWAP1 PUSH2 0x2C5 SWAP2 SWAP1 PUSH2 0x2424 JUMP JUMPDEST PUSH2 0x909 JUMP JUMPDEST STOP JUMPDEST PUSH2 0x2E6 PUSH1 0x4 DUP1 CALLDATASIZE SUB DUP2 ADD SWAP1 PUSH2 0x2E1 SWAP2 SWAP1 PUSH2 0x2464 JUMP JUMPDEST PUSH2 0x91F JUMP JUMPDEST PUSH1 0x40 MLOAD PUSH2 0x2F3 SWAP2 SWAP1 PUSH2 0x1C9F JUMP JUMPDEST PUSH1 0x40 MLOAD DUP1 SWAP2 SUB SWAP1 RETURN JUMPDEST PUSH2 0x316 PUSH1 0x4 DUP1 CALLDATASIZE SUB DUP2 ADD SWAP1 PUSH2 0x311 SWAP2 SWAP1 PUSH2 0x24A4 JUMP JUMPDEST PUSH2 0x9B3 JUMP JUMPDEST STOP JUMPDEST PUSH2 0x332 PUSH1 0x4 DUP1 CALLDATASIZE SUB DUP2 ADD SWAP1 PUSH2 0x32D SWAP2 SWAP1 PUSH2 0x253B JUMP JUMPDEST PUSH2 0xA5B JUMP JUMPDEST STOP JUMPDEST PUSH1 0x0 DUP1 PUSH1 0x0 DUP4 DUP2 MSTORE PUSH1 0x20 ADD SWAP1 DUP2 MSTORE PUSH1 0x20 ADD PUSH1 0x0 KECCAK256 PUSH1 0x0 DUP5 PUSH20 0xFFFFFFFFFFFFFFFFFFFFFFFFFFFFFFFFFFFFFFFF AND PUSH20 0xFFFFFFFFFFFFFFFFFFFFFFFFFFFFFFFFFFFFFFFF AND DUP2 MSTORE PUSH1 0x20 ADD SWAP1 DUP2 MSTORE PUSH1 0x20 ADD PUSH1 0x0 KECCAK256 SLOAD SWAP1 POP SWAP3 SWAP2 POP POP JUMP JUMPDEST PUSH1 0x0 PUSH32 0xD9B67A2600000000000000000000000000000000000000000000000000000000 PUSH28 0xFFFFFFFFFFFFFFFFFFFFFFFFFFFFFFFFFFFFFFFFFFFFFFFFFFFFFFFF NOT AND DUP3 PUSH28 0xFFFFFFFFFFFFFFFFFFFFFFFFFFFFFFFFFFFFFFFFFFFFFFFFFFFFFFFF NOT AND EQ DUP1 PUSH2 0x459 JUMPI POP PUSH32 0xE89341C00000000000000000000000000000000000000000000000000000000 PUSH28 0xFFFFFFFFFFFFFFFFFFFFFFFFFFFFFFFFFFFFFFFFFFFFFFFFFFFFFFFF NOT AND DUP3 PUSH28 0xFFFFFFFFFFFFFFFFFFFFFFFFFFFFFFFFFFFFFFFFFFFFFFFFFFFFFFFF NOT AND EQ JUMPDEST DUP1 PUSH2 0x469 JUMPI POP PUSH2 0x468 DUP3 PUSH2 0xAE1 JUMP JUMPDEST JUMPDEST SWAP1 POP SWAP2 SWAP1 POP JUMP JUMPDEST PUSH1 0x4 DUP1 SLOAD PUSH2 0x47D SWAP1 PUSH2 0x2597 JUMP JUMPDEST DUP1 PUSH1 0x1F ADD PUSH1 0x20 DUP1 SWAP2 DIV MUL PUSH1 0x20 ADD PUSH1 0x40 MLOAD SWAP1 DUP2 ADD PUSH1 0x40 MSTORE DUP1 SWAP3 SWAP2 SWAP1 DUP2 DUP2 MSTORE PUSH1 0x20 ADD DUP3 DUP1 SLOAD PUSH2 0x4A9 SWAP1 PUSH2 0x2597 JUMP JUMPDEST DUP1 ISZERO PUSH2 0x4F6 JUMPI DUP1 PUSH1 0x1F LT PUSH2 0x4CB JUMPI PUSH2 0x100 DUP1 DUP4 SLOAD DIV MUL DUP4 MSTORE SWAP2 PUSH1 0x20 ADD SWAP2 PUSH2 0x4F6 JUMP JUMPDEST DUP3 ADD SWAP2 SWAP1 PUSH1 0x0 MSTORE PUSH1 0x20 PUSH1 0x0 KECCAK256 SWAP1 JUMPDEST DUP2 SLOAD DUP2 MSTORE SWAP1 PUSH1 0x1 ADD SWAP1 PUSH1 0x20 ADD DUP1 DUP4 GT PUSH2 0x4D9 JUMPI DUP3 SWAP1 SUB PUSH1 0x1F AND DUP3 ADD SWAP2 JUMPDEST POP POP POP POP POP DUP2 JUMP JUMPDEST PUSH1 0x60 PUSH2 0x509 DUP3 PUSH2 0xB4B JUMP JUMPDEST PUSH1 0x40 MLOAD PUSH1 0x20 ADD PUSH2 0x519 SWAP2 SWAP1 PUSH2 0x2650 JUMP JUMPDEST PUSH1 0x40 MLOAD PUSH1 0x20 DUP2 DUP4 SUB SUB DUP2 MSTORE SWAP1 PUSH1 0x40 MSTORE SWAP1 POP SWAP2 SWAP1 POP JUMP JUMPDEST PUSH2 0x537 PUSH2 0xC19 JUMP JUMPDEST PUSH1 0x40 MLOAD DUP1 PUSH1 0x60 ADD PUSH1 0x40 MSTORE DUP1 DUP5 DUP2 MSTORE PUSH1 0x20 ADD DUP4 DUP2 MSTORE PUSH1 0x20 ADD DUP3 DUP2 MSTORE POP PUSH1 0x7 PUSH1 0x0 PUSH1 0x6 SLOAD DUP2 MSTORE PUSH1 0x20 ADD SWAP1 DUP2 MSTORE PUSH1 0x20 ADD PUSH1 0x0 KECCAK256 PUSH1 0x0 DUP3 ADD MLOAD DUP2 PUSH1 0x0 ADD SWAP1 DUP2 PUSH2 0x57C SWAP2 SWAP1 PUSH2 0x281E JUMP JUMPDEST POP PUSH1 0x20 DUP3 ADD MLOAD DUP2 PUSH1 0x1 ADD SSTORE PUSH1 0x40 DUP3 ADD MLOAD DUP2 PUSH1 0x2 ADD SSTORE SWAP1 POP POP PUSH2 0x5B1 CALLER PUSH1 0x6 SLOAD DUP4 PUSH1 0x40 MLOAD DUP1 PUSH1 0x20 ADD PUSH1 0x40 MSTORE DUP1 PUSH1 0x0 DUP2 MSTORE POP PUSH2 0xCA0 JUMP JUMPDEST PUSH1 0x6 PUSH1 0x0 DUP2 SLOAD DUP1 SWAP3 SWAP2 SWAP1 PUSH2 0x5C4 SWAP1 PUSH2 0x291F JUMP JUMPDEST SWAP2 SWAP1 POP SSTORE POP POP POP POP JUMP JUMPDEST PUSH1 0x0 PUSH2 0x5D8 PUSH2 0xD39 JUMP JUMPDEST SWAP1 POP DUP1 PUSH20 0xFFFFFFFFFFFFFFFFFFFFFFFFFFFFFFFFFFFFFFFF AND DUP7 PUSH20 0xFFFFFFFFFFFFFFFFFFFFFFFFFFFFFFFFFFFFFFFF AND EQ ISZERO DUP1 ISZERO PUSH2 0x61D JUMPI POP PUSH2 0x61B DUP7 DUP3 PUSH2 0x91F JUMP JUMPDEST ISZERO JUMPDEST ISZERO PUSH2 0x661 JUMPI DUP1 DUP7 PUSH1 0x40 MLOAD PUSH32 0xE237D92200000000000000000000000000000000000000000000000000000000 DUP2 MSTORE PUSH1 0x4 ADD PUSH2 0x658 SWAP3 SWAP2 SWAP1 PUSH2 0x2967 JUMP JUMPDEST PUSH1 0x40 MLOAD DUP1 SWAP2 SUB SWAP1 REVERT JUMPDEST PUSH2 0x66E DUP7 DUP7 DUP7 DUP7 DUP7 PUSH2 0xD41 JUMP JUMPDEST POP POP POP POP POP POP JUMP JUMPDEST PUSH1 0x60 DUP2 MLOAD DUP4 MLOAD EQ PUSH2 0x6C2 JUMPI DUP2 MLOAD DUP4 MLOAD PUSH1 0x40 MLOAD PUSH32 0x5B05999100000000000000000000000000000000000000000000000000000000 DUP2 MSTORE PUSH1 0x4 ADD PUSH2 0x6B9 SWAP3 SWAP2 SWAP1 PUSH2 0x2990 JUMP JUMPDEST PUSH1 0x40 MLOAD DUP1 SWAP2 SUB SWAP1 REVERT JUMPDEST PUSH1 0x0 DUP4 MLOAD PUSH8 0xFFFFFFFFFFFFFFFF DUP2 GT ISZERO PUSH2 0x6DF JUMPI PUSH2 0x6DE PUSH2 0x1DA3 JUMP JUMPDEST JUMPDEST PUSH1 0x40 MLOAD SWAP1 DUP1 DUP3 MSTORE DUP1 PUSH1 0x20 MUL PUSH1 0x20 ADD DUP3 ADD PUSH1 0x40 MSTORE DUP1 ISZERO PUSH2 0x70D JUMPI DUP2 PUSH1 0x20 ADD PUSH1 0x20 DUP3 MUL DUP1 CALLDATASIZE DUP4 CALLDATACOPY DUP1 DUP3 ADD SWAP2 POP POP SWAP1 POP JUMPDEST POP SWAP1 POP PUSH1 0x0 JUMPDEST DUP5 MLOAD DUP2 LT ISZERO PUSH2 0x77A JUMPI PUSH2 0x74A PUSH2 0x732 DUP3 DUP8 PUSH2 0xE39 SWAP1 SWAP2 SWAP1 PUSH4 0xFFFFFFFF AND JUMP JUMPDEST PUSH2 0x745 DUP4 DUP8 PUSH2 0xE4D SWAP1 SWAP2 SWAP1 PUSH4 0xFFFFFFFF AND JUMP JUMPDEST PUSH2 0x334 JUMP JUMPDEST DUP3 DUP3 DUP2 MLOAD DUP2 LT PUSH2 0x75D JUMPI PUSH2 0x75C PUSH2 0x29B9 JUMP JUMPDEST JUMPDEST PUSH1 0x20 MUL PUSH1 0x20 ADD ADD DUP2 DUP2 MSTORE POP POP DUP1 PUSH2 0x773 SWAP1 PUSH2 0x291F JUMP JUMPDEST SWAP1 POP PUSH2 0x713 JUMP JUMPDEST POP DUP1 SWAP2 POP POP SWAP3 SWAP2 POP POP JUMP JUMPDEST PUSH2 0x78D PUSH2 0xC19 JUMP JUMPDEST PUSH2 0x797 PUSH1 0x0 PUSH2 0xE61 JUMP JUMPDEST JUMP JUMPDEST PUSH1 0x7 PUSH1 0x20 MSTORE DUP1 PUSH1 0x0 MSTORE PUSH1 0x40 PUSH1 0x0 KECCAK256 PUSH1 0x0 SWAP2 POP SWAP1 POP DUP1 PUSH1 0x0 ADD DUP1 SLOAD PUSH2 0x7BC SWAP1 PUSH2 0x2597 JUMP JUMPDEST DUP1 PUSH1 0x1F ADD PUSH1 0x20 DUP1 SWAP2 DIV MUL PUSH1 0x20 ADD PUSH1 0x40 MLOAD SWAP1 DUP2 ADD PUSH1 0x40 MSTORE DUP1 SWAP3 SWAP2 SWAP1 DUP2 DUP2 MSTORE PUSH1 0x20 ADD DUP3 DUP1 SLOAD PUSH2 0x7E8 SWAP1 PUSH2 0x2597 JUMP JUMPDEST DUP1 ISZERO PUSH2 0x835 JUMPI DUP1 PUSH1 0x1F LT PUSH2 0x80A JUMPI PUSH2 0x100 DUP1 DUP4 SLOAD DIV MUL DUP4 MSTORE SWAP2 PUSH1 0x20 ADD SWAP2 PUSH2 0x835 JUMP JUMPDEST DUP3 ADD SWAP2 SWAP1 PUSH1 0x0 MSTORE PUSH1 0x20 PUSH1 0x0 KECCAK256 SWAP1 JUMPDEST DUP2 SLOAD DUP2 MSTORE SWAP1 PUSH1 0x1 ADD SWAP1 PUSH1 0x20 ADD DUP1 DUP4 GT PUSH2 0x818 JUMPI DUP3 SWAP1 SUB PUSH1 0x1F AND DUP3 ADD SWAP2 JUMPDEST POP POP POP POP POP SWAP1 DUP1 PUSH1 0x1 ADD SLOAD SWAP1 DUP1 PUSH1 0x2 ADD SLOAD SWAP1 POP DUP4 JUMP JUMPDEST PUSH1 0x6 SLOAD DUP2 JUMP JUMPDEST PUSH1 0x0 PUSH1 0x3 PUSH1 0x0 SWAP1 SLOAD SWAP1 PUSH2 0x100 EXP SWAP1 DIV PUSH20 0xFFFFFFFFFFFFFFFFFFFFFFFFFFFFFFFFFFFFFFFF AND SWAP1 POP SWAP1 JUMP JUMPDEST PUSH1 0x5 DUP1 SLOAD PUSH2 0x888 SWAP1 PUSH2 0x2597 JUMP JUMPDEST DUP1 PUSH1 0x1F ADD PUSH1 0x20 DUP1 SWAP2 DIV MUL PUSH1 0x20 ADD PUSH1 0x40 MLOAD SWAP1 DUP2 ADD PUSH1 0x40 MSTORE DUP1 SWAP3 SWAP2 SWAP1 DUP2 DUP2 MSTORE PUSH1 0x20 ADD DUP3 DUP1 SLOAD PUSH2 0x8B4 SWAP1 PUSH2 0x2597 JUMP JUMPDEST DUP1 ISZERO PUSH2 0x901 JUMPI DUP1 PUSH1 0x1F LT PUSH2 0x8D6 JUMPI PUSH2 0x100 DUP1 DUP4 SLOAD DIV MUL DUP4 MSTORE SWAP2 PUSH1 0x20 ADD SWAP2 PUSH2 0x901 JUMP JUMPDEST DUP3 ADD SWAP2 SWAP1 PUSH1 0x0 MSTORE PUSH1 0x20 PUSH1 0x0 KECCAK256 SWAP1 JUMPDEST DUP2 SLOAD DUP2 MSTORE SWAP1 PUSH1 0x1 ADD SWAP1 PUSH1 0x20 ADD DUP1 DUP4 GT PUSH2 0x8E4 JUMPI DUP3 SWAP1 SUB PUSH1 0x1F AND DUP3 ADD SWAP2 JUMPDEST POP POP POP POP POP DUP2 JUMP JUMPDEST PUSH2 0x91B PUSH2 0x914 PUSH2 0xD39 JUMP JUMPDEST DUP4 DUP4 PUSH2 0xF27 JUMP JUMPDEST POP POP JUMP JUMPDEST PUSH1 0x0 PUSH1 0x1 PUSH1 0x0 DUP5 PUSH20 0xFFFFFFFFFFFFFFFFFFFFFFFFFFFFFFFFFFFFFFFF AND PUSH20 0xFFFFFFFFFFFFFFFFFFFFFFFFFFFFFFFFFFFFFFFF AND DUP2 MSTORE PUSH1 0x20 ADD SWAP1 DUP2 MSTORE PUSH1 0x20 ADD PUSH1 0x0 KECCAK256 PUSH1 0x0 DUP4 PUSH20 0xFFFFFFFFFFFFFFFFFFFFFFFFFFFFFFFFFFFFFFFF AND PUSH20 0xFFFFFFFFFFFFFFFFFFFFFFFFFFFFFFFFFFFFFFFF AND DUP2 MSTORE PUSH1 0x20 ADD SWAP1 DUP2 MSTORE PUSH1 0x20 ADD PUSH1 0x0 KECCAK256 PUSH1 0x0 SWAP1 SLOAD SWAP1 PUSH2 0x100 EXP SWAP1 DIV PUSH1 0xFF AND SWAP1 POP SWAP3 SWAP2 POP POP JUMP JUMPDEST PUSH1 0x0 PUSH2 0x9BD PUSH2 0xD39 JUMP JUMPDEST SWAP1 POP DUP1 PUSH20 0xFFFFFFFFFFFFFFFFFFFFFFFFFFFFFFFFFFFFFFFF AND DUP7 PUSH20 0xFFFFFFFFFFFFFFFFFFFFFFFFFFFFFFFFFFFFFFFF AND EQ ISZERO DUP1 ISZERO PUSH2 0xA02 JUMPI POP PUSH2 0xA00 DUP7 DUP3 PUSH2 0x91F JUMP JUMPDEST ISZERO JUMPDEST ISZERO PUSH2 0xA46 JUMPI DUP1 DUP7 PUSH1 0x40 MLOAD PUSH32 0xE237D92200000000000000000000000000000000000000000000000000000000 DUP2 MSTORE PUSH1 0x4 ADD PUSH2 0xA3D SWAP3 SWAP2 SWAP1 PUSH2 0x2967 JUMP JUMPDEST PUSH1 0x40 MLOAD DUP1 SWAP2 SUB SWAP1 REVERT JUMPDEST PUSH2 0xA53 DUP7 DUP7 DUP7 DUP7 DUP7 PUSH2 0x1097 JUMP JUMPDEST POP POP POP POP POP POP JUMP JUMPDEST PUSH2 0xA63 PUSH2 0xC19 JUMP JUMPDEST PUSH1 0x0 PUSH20 0xFFFFFFFFFFFFFFFFFFFFFFFFFFFFFFFFFFFFFFFF AND DUP2 PUSH20 0xFFFFFFFFFFFFFFFFFFFFFFFFFFFFFFFFFFFFFFFF AND SUB PUSH2 0xAD5 JUMPI PUSH1 0x0 PUSH1 0x40 MLOAD PUSH32 0x1E4FBDF700000000000000000000000000000000000000000000000000000000 DUP2 MSTORE PUSH1 0x4 ADD PUSH2 0xACC SWAP2 SWAP1 PUSH2 0x23DD JUMP JUMPDEST PUSH1 0x40 MLOAD DUP1 SWAP2 SUB SWAP1 REVERT JUMPDEST PUSH2 0xADE DUP2 PUSH2 0xE61 JUMP JUMPDEST POP JUMP JUMPDEST PUSH1 0x0 PUSH32 0x1FFC9A700000000000000000000000000000000000000000000000000000000 PUSH28 0xFFFFFFFFFFFFFFFFFFFFFFFFFFFFFFFFFFFFFFFFFFFFFFFFFFFFFFFF NOT AND DUP3 PUSH28 0xFFFFFFFFFFFFFFFFFFFFFFFFFFFFFFFFFFFFFFFFFFFFFFFFFFFFFFFF NOT AND EQ SWAP1 POP SWAP2 SWAP1 POP JUMP JUMPDEST PUSH1 0x60 PUSH1 0x0 PUSH1 0x1 PUSH2 0xB5A DUP5 PUSH2 0x11A2 JUMP JUMPDEST ADD SWAP1 POP PUSH1 0x0 DUP2 PUSH8 0xFFFFFFFFFFFFFFFF DUP2 GT ISZERO PUSH2 0xB79 JUMPI PUSH2 0xB78 PUSH2 0x1DA3 JUMP JUMPDEST JUMPDEST PUSH1 0x40 MLOAD SWAP1 DUP1 DUP3 MSTORE DUP1 PUSH1 0x1F ADD PUSH1 0x1F NOT AND PUSH1 0x20 ADD DUP3 ADD PUSH1 0x40 MSTORE DUP1 ISZERO PUSH2 0xBAB JUMPI DUP2 PUSH1 0x20 ADD PUSH1 0x1 DUP3 MUL DUP1 CALLDATASIZE DUP4 CALLDATACOPY DUP1 DUP3 ADD SWAP2 POP POP SWAP1 POP JUMPDEST POP SWAP1 POP PUSH1 0x0 DUP3 PUSH1 0x20 DUP4 ADD ADD SWAP1 POP JUMPDEST PUSH1 0x1 ISZERO PUSH2 0xC0E JUMPI DUP1 DUP1 PUSH1 0x1 SWAP1 SUB SWAP2 POP POP PUSH32 0x3031323334353637383961626364656600000000000000000000000000000000 PUSH1 0xA DUP7 MOD BYTE DUP2 MSTORE8 PUSH1 0xA DUP6 DUP2 PUSH2 0xC02 JUMPI PUSH2 0xC01 PUSH2 0x29E8 JUMP JUMPDEST JUMPDEST DIV SWAP5 POP PUSH1 0x0 DUP6 SUB PUSH2 0xBB9 JUMPI JUMPDEST DUP2 SWAP4 POP POP POP POP SWAP2 SWAP1 POP JUMP JUMPDEST PUSH2 0xC21 PUSH2 0xD39 JUMP JUMPDEST PUSH20 0xFFFFFFFFFFFFFFFFFFFFFFFFFFFFFFFFFFFFFFFF AND PUSH2 0xC3F PUSH2 0x851 JUMP JUMPDEST PUSH20 0xFFFFFFFFFFFFFFFFFFFFFFFFFFFFFFFFFFFFFFFF AND EQ PUSH2 0xC9E JUMPI PUSH2 0xC62 PUSH2 0xD39 JUMP JUMPDEST PUSH1 0x40 MLOAD PUSH32 0x118CDAA700000000000000000000000000000000000000000000000000000000 DUP2 MSTORE PUSH1 0x4 ADD PUSH2 0xC95 SWAP2 SWAP1 PUSH2 0x23DD JUMP JUMPDEST PUSH1 0x40 MLOAD DUP1 SWAP2 SUB SWAP1 REVERT JUMPDEST JUMP JUMPDEST PUSH1 0x0 PUSH20 0xFFFFFFFFFFFFFFFFFFFFFFFFFFFFFFFFFFFFFFFF AND DUP5 PUSH20 0xFFFFFFFFFFFFFFFFFFFFFFFFFFFFFFFFFFFFFFFF AND SUB PUSH2 0xD12 JUMPI PUSH1 0x0 PUSH1 0x40 MLOAD PUSH32 0x57F447CE00000000000000000000000000000000000000000000000000000000 DUP2 MSTORE PUSH1 0x4 ADD PUSH2 0xD09 SWAP2 SWAP1 PUSH2 0x23DD JUMP JUMPDEST PUSH1 0x40 MLOAD DUP1 SWAP2 SUB SWAP1 REVERT JUMPDEST PUSH1 0x0 DUP1 PUSH2 0xD1F DUP6 DUP6 PUSH2 0x12F5 JUMP JUMPDEST SWAP2 POP SWAP2 POP PUSH2 0xD31 PUSH1 0x0 DUP8 DUP5 DUP5 DUP8 PUSH2 0x1325 JUMP JUMPDEST POP POP POP POP POP POP JUMP JUMPDEST PUSH1 0x0 CALLER SWAP1 POP SWAP1 JUMP JUMPDEST PUSH1 0x0 PUSH20 0xFFFFFFFFFFFFFFFFFFFFFFFFFFFFFFFFFFFFFFFF AND DUP5 PUSH20 0xFFFFFFFFFFFFFFFFFFFFFFFFFFFFFFFFFFFFFFFF AND SUB PUSH2 0xDB3 JUMPI PUSH1 0x0 PUSH1 0x40 MLOAD PUSH32 0x57F447CE00000000000000000000000000000000000000000000000000000000 DUP2 MSTORE PUSH1 0x4 ADD PUSH2 0xDAA SWAP2 SWAP1 PUSH2 0x23DD JUMP JUMPDEST PUSH1 0x40 MLOAD DUP1 SWAP2 SUB SWAP1 REVERT JUMPDEST PUSH1 0x0 PUSH20 0xFFFFFFFFFFFFFFFFFFFFFFFFFFFFFFFFFFFFFFFF AND DUP6 PUSH20 0xFFFFFFFFFFFFFFFFFFFFFFFFFFFFFFFFFFFFFFFF AND SUB PUSH2 0xE25 JUMPI PUSH1 0x0 PUSH1 0x40 MLOAD PUSH32 0x1A8351400000000000000000000000000000000000000000000000000000000 DUP2 MSTORE PUSH1 0x4 ADD PUSH2 0xE1C SWAP2 SWAP1 PUSH2 0x23DD JUMP JUMPDEST PUSH1 0x40 MLOAD DUP1 SWAP2 SUB SWAP1 REVERT JUMPDEST PUSH2 0xE32 DUP6 DUP6 DUP6 DUP6 DUP6 PUSH2 0x1325 JUMP JUMPDEST POP POP POP POP POP JUMP JUMPDEST PUSH1 0x0 PUSH1 0x20 DUP3 MUL PUSH1 0x20 DUP5 ADD ADD MLOAD SWAP1 POP SWAP3 SWAP2 POP POP JUMP JUMPDEST PUSH1 0x0 PUSH1 0x20 DUP3 MUL PUSH1 0x20 DUP5 ADD ADD MLOAD SWAP1 POP SWAP3 SWAP2 POP POP JUMP JUMPDEST PUSH1 0x0 PUSH1 0x3 PUSH1 0x0 SWAP1 SLOAD SWAP1 PUSH2 0x100 EXP SWAP1 DIV PUSH20 0xFFFFFFFFFFFFFFFFFFFFFFFFFFFFFFFFFFFFFFFF AND SWAP1 POP DUP2 PUSH1 0x3 PUSH1 0x0 PUSH2 0x100 EXP DUP2 SLOAD DUP2 PUSH20 0xFFFFFFFFFFFFFFFFFFFFFFFFFFFFFFFFFFFFFFFF MUL NOT AND SWAP1 DUP4 PUSH20 0xFFFFFFFFFFFFFFFFFFFFFFFFFFFFFFFFFFFFFFFF AND MUL OR SWAP1 SSTORE POP DUP2 PUSH20 0xFFFFFFFFFFFFFFFFFFFFFFFFFFFFFFFFFFFFFFFF AND DUP2 PUSH20 0xFFFFFFFFFFFFFFFFFFFFFFFFFFFFFFFFFFFFFFFF AND PUSH32 0x8BE0079C531659141344CD1FD0A4F28419497F9722A3DAAFE3B4186F6B6457E0 PUSH1 0x40 MLOAD PUSH1 0x40 MLOAD DUP1 SWAP2 SUB SWAP1 LOG3 POP POP JUMP JUMPDEST PUSH1 0x0 PUSH20 0xFFFFFFFFFFFFFFFFFFFFFFFFFFFFFFFFFFFFFFFF AND DUP3 PUSH20 0xFFFFFFFFFFFFFFFFFFFFFFFFFFFFFFFFFFFFFFFF AND SUB PUSH2 0xF99 JUMPI PUSH1 0x0 PUSH1 0x40 MLOAD PUSH32 0xCED3E10000000000000000000000000000000000000000000000000000000000 DUP2 MSTORE PUSH1 0x4 ADD PUSH2 0xF90 SWAP2 SWAP1 PUSH2 0x23DD JUMP JUMPDEST PUSH1 0x40 MLOAD DUP1 SWAP2 SUB SWAP1 REVERT JUMPDEST DUP1 PUSH1 0x1 PUSH1 0x0 DUP6 PUSH20 0xFFFFFFFFFFFFFFFFFFFFFFFFFFFFFFFFFFFFFFFF AND PUSH20 0xFFFFFFFFFFFFFFFFFFFFFFFFFFFFFFFFFFFFFFFF AND DUP2 MSTORE PUSH1 0x20 ADD SWAP1 DUP2 MSTORE PUSH1 0x20 ADD PUSH1 0x0 KECCAK256 PUSH1 0x0 DUP5 PUSH20 0xFFFFFFFFFFFFFFFFFFFFFFFFFFFFFFFFFFFFFFFF AND PUSH20 0xFFFFFFFFFFFFFFFFFFFFFFFFFFFFFFFFFFFFFFFF AND DUP2 MSTORE PUSH1 0x20 ADD SWAP1 DUP2 MSTORE PUSH1 0x20 ADD PUSH1 0x0 KECCAK256 PUSH1 0x0 PUSH2 0x100 EXP DUP2 SLOAD DUP2 PUSH1 0xFF MUL NOT AND SWAP1 DUP4 ISZERO ISZERO MUL OR SWAP1 SSTORE POP DUP2 PUSH20 0xFFFFFFFFFFFFFFFFFFFFFFFFFFFFFFFFFFFFFFFF AND DUP4 PUSH20 0xFFFFFFFFFFFFFFFFFFFFFFFFFFFFFFFFFFFFFFFF AND PUSH32 0x17307EAB39AB6107E8899845AD3D59BD9653F200F220920489CA2B5937696C31 DUP4 PUSH1 0x40 MLOAD PUSH2 0x108A SWAP2 SWAP1 PUSH2 0x1C9F JUMP JUMPDEST PUSH1 0x40 MLOAD DUP1 SWAP2 SUB SWAP1 LOG3 POP POP POP JUMP JUMPDEST PUSH1 0x0 PUSH20 0xFFFFFFFFFFFFFFFFFFFFFFFFFFFFFFFFFFFFFFFF AND DUP5 PUSH20 0xFFFFFFFFFFFFFFFFFFFFFFFFFFFFFFFFFFFFFFFF AND SUB PUSH2 0x1109 JUMPI PUSH1 0x0 PUSH1 0x40 MLOAD PUSH32 0x57F447CE00000000000000000000000000000000000000000000000000000000 DUP2 MSTORE PUSH1 0x4 ADD PUSH2 0x1100 SWAP2 SWAP1 PUSH2 0x23DD JUMP JUMPDEST PUSH1 0x40 MLOAD DUP1 SWAP2 SUB SWAP1 REVERT JUMPDEST PUSH1 0x0 PUSH20 0xFFFFFFFFFFFFFFFFFFFFFFFFFFFFFFFFFFFFFFFF AND DUP6 PUSH20 0xFFFFFFFFFFFFFFFFFFFFFFFFFFFFFFFFFFFFFFFF AND SUB PUSH2 0x117B JUMPI PUSH1 0x0 PUSH1 0x40 MLOAD PUSH32 0x1A8351400000000000000000000000000000000000000000000000000000000 DUP2 MSTORE PUSH1 0x4 ADD PUSH2 0x1172 SWAP2 SWAP1 PUSH2 0x23DD JUMP JUMPDEST PUSH1 0x40 MLOAD DUP1 SWAP2 SUB SWAP1 REVERT JUMPDEST PUSH1 0x0 DUP1 PUSH2 0x1188 DUP6 DUP6 PUSH2 0x12F5 JUMP JUMPDEST SWAP2 POP SWAP2 POP PUSH2 0x1199 DUP8 DUP8 DUP5 DUP5 DUP8 PUSH2 0x1325 JUMP JUMPDEST POP POP POP POP POP POP POP JUMP JUMPDEST PUSH1 0x0 DUP1 PUSH1 0x0 SWAP1 POP PUSH27 0x184F03E93FF9F4DAA797ED6E38ED64BF6A1F010000000000000000 DUP4 LT PUSH2 0x1200 JUMPI PUSH27 0x184F03E93FF9F4DAA797ED6E38ED64BF6A1F010000000000000000 DUP4 DUP2 PUSH2 0x11F6 JUMPI PUSH2 0x11F5 PUSH2 0x29E8 JUMP JUMPDEST JUMPDEST DIV SWAP3 POP PUSH1 0x40 DUP2 ADD SWAP1 POP JUMPDEST PUSH14 0x4EE2D6D415B85ACEF8100000000 DUP4 LT PUSH2 0x123D JUMPI PUSH14 0x4EE2D6D415B85ACEF8100000000 DUP4 DUP2 PUSH2 0x1233 JUMPI PUSH2 0x1232 PUSH2 0x29E8 JUMP JUMPDEST JUMPDEST DIV SWAP3 POP PUSH1 0x20 DUP2 ADD SWAP1 POP JUMPDEST PUSH7 0x2386F26FC10000 DUP4 LT PUSH2 0x126C JUMPI PUSH7 0x2386F26FC10000 DUP4 DUP2 PUSH2 0x1262 JUMPI PUSH2 0x1261 PUSH2 0x29E8 JUMP JUMPDEST JUMPDEST DIV SWAP3 POP PUSH1 0x10 DUP2 ADD SWAP1 POP JUMPDEST PUSH4 0x5F5E100 DUP4 LT PUSH2 0x1295 JUMPI PUSH4 0x5F5E100 DUP4 DUP2 PUSH2 0x128B JUMPI PUSH2 0x128A PUSH2 0x29E8 JUMP JUMPDEST JUMPDEST DIV SWAP3 POP PUSH1 0x8 DUP2 ADD SWAP1 POP JUMPDEST PUSH2 0x2710 DUP4 LT PUSH2 0x12BA JUMPI PUSH2 0x2710 DUP4 DUP2 PUSH2 0x12B0 JUMPI PUSH2 0x12AF PUSH2 0x29E8 JUMP JUMPDEST JUMPDEST DIV SWAP3 POP PUSH1 0x4 DUP2 ADD SWAP1 POP JUMPDEST PUSH1 0x64 DUP4 LT PUSH2 0x12DD JUMPI PUSH1 0x64 DUP4 DUP2 PUSH2 0x12D3 JUMPI PUSH2 0x12D2 PUSH2 0x29E8 JUMP JUMPDEST JUMPDEST DIV SWAP3 POP PUSH1 0x2 DUP2 ADD SWAP1 POP JUMPDEST PUSH1 0xA DUP4 LT PUSH2 0x12EC JUMPI PUSH1 0x1 DUP2 ADD SWAP1 POP JUMPDEST DUP1 SWAP2 POP POP SWAP2 SWAP1 POP JUMP JUMPDEST PUSH1 0x60 DUP1 PUSH1 0x40 MLOAD SWAP2 POP PUSH1 0x1 DUP3 MSTORE DUP4 PUSH1 0x20 DUP4 ADD MSTORE PUSH1 0x40 DUP3 ADD SWAP1 POP PUSH1 0x1 DUP2 MSTORE DUP3 PUSH1 0x20 DUP3 ADD MSTORE PUSH1 0x40 DUP2 ADD PUSH1 0x40 MSTORE SWAP3 POP SWAP3 SWAP1 POP JUMP JUMPDEST PUSH2 0x1331 DUP6 DUP6 DUP6 DUP6 PUSH2 0x13D7 JUMP JUMPDEST PUSH1 0x0 PUSH20 0xFFFFFFFFFFFFFFFFFFFFFFFFFFFFFFFFFFFFFFFF AND DUP5 PUSH20 0xFFFFFFFFFFFFFFFFFFFFFFFFFFFFFFFFFFFFFFFF AND EQ PUSH2 0x13D0 JUMPI PUSH1 0x0 PUSH2 0x136F PUSH2 0xD39 JUMP JUMPDEST SWAP1 POP PUSH1 0x1 DUP5 MLOAD SUB PUSH2 0x13BF JUMPI PUSH1 0x0 PUSH2 0x1390 PUSH1 0x0 DUP7 PUSH2 0xE4D SWAP1 SWAP2 SWAP1 PUSH4 0xFFFFFFFF AND JUMP JUMPDEST SWAP1 POP PUSH1 0x0 PUSH2 0x13A8 PUSH1 0x0 DUP7 PUSH2 0xE4D SWAP1 SWAP2 SWAP1 PUSH4 0xFFFFFFFF AND JUMP JUMPDEST SWAP1 POP PUSH2 0x13B8 DUP4 DUP10 DUP10 DUP6 DUP6 DUP10 PUSH2 0x1785 JUMP JUMPDEST POP POP PUSH2 0x13CE JUMP JUMPDEST PUSH2 0x13CD DUP2 DUP8 DUP8 DUP8 DUP8 DUP8 PUSH2 0x1939 JUMP JUMPDEST JUMPDEST POP JUMPDEST POP POP POP POP POP JUMP JUMPDEST DUP1 MLOAD DUP3 MLOAD EQ PUSH2 0x1421 JUMPI DUP2 MLOAD DUP2 MLOAD PUSH1 0x40 MLOAD PUSH32 0x5B05999100000000000000000000000000000000000000000000000000000000 DUP2 MSTORE PUSH1 0x4 ADD PUSH2 0x1418 SWAP3 SWAP2 SWAP1 PUSH2 0x2990 JUMP JUMPDEST PUSH1 0x40 MLOAD DUP1 SWAP2 SUB SWAP1 REVERT JUMPDEST PUSH1 0x0 PUSH2 0x142B PUSH2 0xD39 JUMP JUMPDEST SWAP1 POP PUSH1 0x0 JUMPDEST DUP4 MLOAD DUP2 LT ISZERO PUSH2 0x1640 JUMPI PUSH1 0x0 PUSH2 0x144E DUP3 DUP7 PUSH2 0xE4D SWAP1 SWAP2 SWAP1 PUSH4 0xFFFFFFFF AND JUMP JUMPDEST SWAP1 POP PUSH1 0x0 PUSH2 0x1465 DUP4 DUP7 PUSH2 0xE4D SWAP1 SWAP2 SWAP1 PUSH4 0xFFFFFFFF AND JUMP JUMPDEST SWAP1 POP PUSH1 0x0 PUSH20 0xFFFFFFFFFFFFFFFFFFFFFFFFFFFFFFFFFFFFFFFF AND DUP9 PUSH20 0xFFFFFFFFFFFFFFFFFFFFFFFFFFFFFFFFFFFFFFFF AND EQ PUSH2 0x1592 JUMPI PUSH1 0x0 DUP1 PUSH1 0x0 DUP5 DUP2 MSTORE PUSH1 0x20 ADD SWAP1 DUP2 MSTORE PUSH1 0x20 ADD PUSH1 0x0 KECCAK256 PUSH1 0x0 DUP11 PUSH20 0xFFFFFFFFFFFFFFFFFFFFFFFFFFFFFFFFFFFFFFFF AND PUSH20 0xFFFFFFFFFFFFFFFFFFFFFFFFFFFFFFFFFFFFFFFF AND DUP2 MSTORE PUSH1 0x20 ADD SWAP1 DUP2 MSTORE PUSH1 0x20 ADD PUSH1 0x0 KECCAK256 SLOAD SWAP1 POP DUP2 DUP2 LT ISZERO PUSH2 0x153A JUMPI DUP9 DUP2 DUP4 DUP6 PUSH1 0x40 MLOAD PUSH32 0x3DEE4C500000000000000000000000000000000000000000000000000000000 DUP2 MSTORE PUSH1 0x4 ADD PUSH2 0x1531 SWAP5 SWAP4 SWAP3 SWAP2 SWAP1 PUSH2 0x2A17 JUMP JUMPDEST PUSH1 0x40 MLOAD DUP1 SWAP2 SUB SWAP1 REVERT JUMPDEST DUP2 DUP2 SUB PUSH1 0x0 DUP1 DUP6 DUP2 MSTORE PUSH1 0x20 ADD SWAP1 DUP2 MSTORE PUSH1 0x20 ADD PUSH1 0x0 KECCAK256 PUSH1 0x0 DUP12 PUSH20 0xFFFFFFFFFFFFFFFFFFFFFFFFFFFFFFFFFFFFFFFF AND PUSH20 0xFFFFFFFFFFFFFFFFFFFFFFFFFFFFFFFFFFFFFFFF AND DUP2 MSTORE PUSH1 0x20 ADD SWAP1 DUP2 MSTORE PUSH1 0x20 ADD PUSH1 0x0 KECCAK256 DUP2 SWAP1 SSTORE POP POP JUMPDEST PUSH1 0x0 PUSH20 0xFFFFFFFFFFFFFFFFFFFFFFFFFFFFFFFFFFFFFFFF AND DUP8 PUSH20 0xFFFFFFFFFFFFFFFFFFFFFFFFFFFFFFFFFFFFFFFF AND EQ PUSH2 0x162D JUMPI DUP1 PUSH1 0x0 DUP1 DUP5 DUP2 MSTORE PUSH1 0x20 ADD SWAP1 DUP2 MSTORE PUSH1 0x20 ADD PUSH1 0x0 KECCAK256 PUSH1 0x0 DUP10 PUSH20 0xFFFFFFFFFFFFFFFFFFFFFFFFFFFFFFFFFFFFFFFF AND PUSH20 0xFFFFFFFFFFFFFFFFFFFFFFFFFFFFFFFFFFFFFFFF AND DUP2 MSTORE PUSH1 0x20 ADD SWAP1 DUP2 MSTORE PUSH1 0x20 ADD PUSH1 0x0 KECCAK256 PUSH1 0x0 DUP3 DUP3 SLOAD PUSH2 0x1625 SWAP2 SWAP1 PUSH2 0x2A5C JUMP JUMPDEST SWAP3 POP POP DUP2 SWAP1 SSTORE POP JUMPDEST POP POP DUP1 PUSH2 0x1639 SWAP1 PUSH2 0x291F JUMP JUMPDEST SWAP1 POP PUSH2 0x1430 JUMP JUMPDEST POP PUSH1 0x1 DUP4 MLOAD SUB PUSH2 0x16FF JUMPI PUSH1 0x0 PUSH2 0x1660 PUSH1 0x0 DUP6 PUSH2 0xE4D SWAP1 SWAP2 SWAP1 PUSH4 0xFFFFFFFF AND JUMP JUMPDEST SWAP1 POP PUSH1 0x0 PUSH2 0x1678 PUSH1 0x0 DUP6 PUSH2 0xE4D SWAP1 SWAP2 SWAP1 PUSH4 0xFFFFFFFF AND JUMP JUMPDEST SWAP1 POP DUP6 PUSH20 0xFFFFFFFFFFFFFFFFFFFFFFFFFFFFFFFFFFFFFFFF AND DUP8 PUSH20 0xFFFFFFFFFFFFFFFFFFFFFFFFFFFFFFFFFFFFFFFF AND DUP5 PUSH20 0xFFFFFFFFFFFFFFFFFFFFFFFFFFFFFFFFFFFFFFFF AND PUSH32 0xC3D58168C5AE7397731D063D5BBF3D657854427343F4C083240F7AACAA2D0F62 DUP6 DUP6 PUSH1 0x40 MLOAD PUSH2 0x16F0 SWAP3 SWAP2 SWAP1 PUSH2 0x2990 JUMP JUMPDEST PUSH1 0x40 MLOAD DUP1 SWAP2 SUB SWAP1 LOG4 POP POP PUSH2 0x177E JUMP JUMPDEST DUP4 PUSH20 0xFFFFFFFFFFFFFFFFFFFFFFFFFFFFFFFFFFFFFFFF AND DUP6 PUSH20 0xFFFFFFFFFFFFFFFFFFFFFFFFFFFFFFFFFFFFFFFF AND DUP3 PUSH20 0xFFFFFFFFFFFFFFFFFFFFFFFFFFFFFFFFFFFFFFFF AND PUSH32 0x4A39DC06D4C0DBC64B70AF90FD698A233A518AA5D07E595D983B8C0526C8F7FB DUP7 DUP7 PUSH1 0x40 MLOAD PUSH2 0x1775 SWAP3 SWAP2 SWAP1 PUSH2 0x2A90 JUMP JUMPDEST PUSH1 0x40 MLOAD DUP1 SWAP2 SUB SWAP1 LOG4 JUMPDEST POP POP POP POP POP JUMP JUMPDEST PUSH1 0x0 DUP5 PUSH20 0xFFFFFFFFFFFFFFFFFFFFFFFFFFFFFFFFFFFFFFFF AND EXTCODESIZE GT ISZERO PUSH2 0x1931 JUMPI DUP4 PUSH20 0xFFFFFFFFFFFFFFFFFFFFFFFFFFFFFFFFFFFFFFFF AND PUSH4 0xF23A6E61 DUP8 DUP8 DUP7 DUP7 DUP7 PUSH1 0x40 MLOAD DUP7 PUSH4 0xFFFFFFFF AND PUSH1 0xE0 SHL DUP2 MSTORE PUSH1 0x4 ADD PUSH2 0x17E6 SWAP6 SWAP5 SWAP4 SWAP3 SWAP2 SWAP1 PUSH2 0x2B1C JUMP JUMPDEST PUSH1 0x20 PUSH1 0x40 MLOAD DUP1 DUP4 SUB DUP2 PUSH1 0x0 DUP8 GAS CALL SWAP3 POP POP POP DUP1 ISZERO PUSH2 0x1822 JUMPI POP PUSH1 0x40 MLOAD RETURNDATASIZE PUSH1 0x1F NOT PUSH1 0x1F DUP3 ADD AND DUP3 ADD DUP1 PUSH1 0x40 MSTORE POP DUP2 ADD SWAP1 PUSH2 0x181F SWAP2 SWAP1 PUSH2 0x2B8B JUMP JUMPDEST PUSH1 0x1 JUMPDEST PUSH2 0x18A6 JUMPI RETURNDATASIZE DUP1 PUSH1 0x0 DUP2 EQ PUSH2 0x1852 JUMPI PUSH1 0x40 MLOAD SWAP2 POP PUSH1 0x1F NOT PUSH1 0x3F RETURNDATASIZE ADD AND DUP3 ADD PUSH1 0x40 MSTORE RETURNDATASIZE DUP3 MSTORE RETURNDATASIZE PUSH1 0x0 PUSH1 0x20 DUP5 ADD RETURNDATACOPY PUSH2 0x1857 JUMP JUMPDEST PUSH1 0x60 SWAP2 POP JUMPDEST POP PUSH1 0x0 DUP2 MLOAD SUB PUSH2 0x189E JUMPI DUP5 PUSH1 0x40 MLOAD PUSH32 0x57F447CE00000000000000000000000000000000000000000000000000000000 DUP2 MSTORE PUSH1 0x4 ADD PUSH2 0x1895 SWAP2 SWAP1 PUSH2 0x23DD JUMP JUMPDEST PUSH1 0x40 MLOAD DUP1 SWAP2 SUB SWAP1 REVERT JUMPDEST DUP1 MLOAD PUSH1 0x20 DUP3 ADD REVERT JUMPDEST PUSH4 0xF23A6E61 PUSH1 0xE0 SHL PUSH28 0xFFFFFFFFFFFFFFFFFFFFFFFFFFFFFFFFFFFFFFFFFFFFFFFFFFFFFFFF NOT AND DUP2 PUSH28 0xFFFFFFFFFFFFFFFFFFFFFFFFFFFFFFFFFFFFFFFFFFFFFFFFFFFFFFFF NOT AND EQ PUSH2 0x192F JUMPI DUP5 PUSH1 0x40 MLOAD PUSH32 0x57F447CE00000000000000000000000000000000000000000000000000000000 DUP2 MSTORE PUSH1 0x4 ADD PUSH2 0x1926 SWAP2 SWAP1 PUSH2 0x23DD JUMP JUMPDEST PUSH1 0x40 MLOAD DUP1 SWAP2 SUB SWAP1 REVERT JUMPDEST POP JUMPDEST POP POP POP POP POP POP JUMP JUMPDEST PUSH1 0x0 DUP5 PUSH20 0xFFFFFFFFFFFFFFFFFFFFFFFFFFFFFFFFFFFFFFFF AND EXTCODESIZE GT ISZERO PUSH2 0x1AE5 JUMPI DUP4 PUSH20 0xFFFFFFFFFFFFFFFFFFFFFFFFFFFFFFFFFFFFFFFF AND PUSH4 0xBC197C81 DUP8 DUP8 DUP7 DUP7 DUP7 PUSH1 0x40 MLOAD DUP7 PUSH4 0xFFFFFFFF AND PUSH1 0xE0 SHL DUP2 MSTORE PUSH1 0x4 ADD PUSH2 0x199A SWAP6 SWAP5 SWAP4 SWAP3 SWAP2 SWAP1 PUSH2 0x2BB8 JUMP JUMPDEST PUSH1 0x20 PUSH1 0x40 MLOAD DUP1 DUP4 SUB DUP2 PUSH1 0x0 DUP8 GAS CALL SWAP3 POP POP POP DUP1 ISZERO PUSH2 0x19D6 JUMPI POP PUSH1 0x40 MLOAD RETURNDATASIZE PUSH1 0x1F NOT PUSH1 0x1F DUP3 ADD AND DUP3 ADD DUP1 PUSH1 0x40 MSTORE POP DUP2 ADD SWAP1 PUSH2 0x19D3 SWAP2 SWAP1 PUSH2 0x2B8B JUMP JUMPDEST PUSH1 0x1 JUMPDEST PUSH2 0x1A5A JUMPI RETURNDATASIZE DUP1 PUSH1 0x0 DUP2 EQ PUSH2 0x1A06 JUMPI PUSH1 0x40 MLOAD SWAP2 POP PUSH1 0x1F NOT PUSH1 0x3F RETURNDATASIZE ADD AND DUP3 ADD PUSH1 0x40 MSTORE RETURNDATASIZE DUP3 MSTORE RETURNDATASIZE PUSH1 0x0 PUSH1 0x20 DUP5 ADD RETURNDATACOPY PUSH2 0x1A0B JUMP JUMPDEST PUSH1 0x60 SWAP2 POP JUMPDEST POP PUSH1 0x0 DUP2 MLOAD SUB PUSH2 0x1A52 JUMPI DUP5 PUSH1 0x40 MLOAD PUSH32 0x57F447CE00000000000000000000000000000000000000000000000000000000 DUP2 MSTORE PUSH1 0x4 ADD PUSH2 0x1A49 SWAP2 SWAP1 PUSH2 0x23DD JUMP JUMPDEST PUSH1 0x40 MLOAD DUP1 SWAP2 SUB SWAP1 REVERT JUMPDEST DUP1 MLOAD PUSH1 0x20 DUP3 ADD REVERT JUMPDEST PUSH4 0xBC197C81 PUSH1 0xE0 SHL PUSH28 0xFFFFFFFFFFFFFFFFFFFFFFFFFFFFFFFFFFFFFFFFFFFFFFFFFFFFFFFF NOT AND DUP2 PUSH28 0xFFFFFFFFFFFFFFFFFFFFFFFFFFFFFFFFFFFFFFFFFFFFFFFFFFFFFFFF NOT AND EQ PUSH2 0x1AE3 JUMPI DUP5 PUSH1 0x40 MLOAD PUSH32 0x57F447CE00000000000000000000000000000000000000000000000000000000 DUP2 MSTORE PUSH1 0x4 ADD PUSH2 0x1ADA SWAP2 SWAP1 PUSH2 0x23DD JUMP JUMPDEST PUSH1 0x40 MLOAD DUP1 SWAP2 SUB SWAP1 REVERT JUMPDEST POP JUMPDEST POP POP POP POP POP POP JUMP JUMPDEST PUSH1 0x0 PUSH1 0x40 MLOAD SWAP1 POP SWAP1 JUMP JUMPDEST PUSH1 0x0 DUP1 REVERT JUMPDEST PUSH1 0x0 DUP1 REVERT JUMPDEST PUSH1 0x0 PUSH20 0xFFFFFFFFFFFFFFFFFFFFFFFFFFFFFFFFFFFFFFFF DUP3 AND SWAP1 POP SWAP2 SWAP1 POP JUMP JUMPDEST PUSH1 0x0 PUSH2 0x1B2C DUP3 PUSH2 0x1B01 JUMP JUMPDEST SWAP1 POP SWAP2 SWAP1 POP JUMP JUMPDEST PUSH2 0x1B3C DUP2 PUSH2 0x1B21 JUMP JUMPDEST DUP2 EQ PUSH2 0x1B47 JUMPI PUSH1 0x0 DUP1 REVERT JUMPDEST POP JUMP JUMPDEST PUSH1 0x0 DUP2 CALLDATALOAD SWAP1 POP PUSH2 0x1B59 DUP2 PUSH2 0x1B33 JUMP JUMPDEST SWAP3 SWAP2 POP POP JUMP JUMPDEST PUSH1 0x0 DUP2 SWAP1 POP SWAP2 SWAP1 POP JUMP JUMPDEST PUSH2 0x1B72 DUP2 PUSH2 0x1B5F JUMP JUMPDEST DUP2 EQ PUSH2 0x1B7D JUMPI PUSH1 0x0 DUP1 REVERT JUMPDEST POP JUMP JUMPDEST PUSH1 0x0 DUP2 CALLDATALOAD SWAP1 POP PUSH2 0x1B8F DUP2 PUSH2 0x1B69 JUMP JUMPDEST SWAP3 SWAP2 POP POP JUMP JUMPDEST PUSH1 0x0 DUP1 PUSH1 0x40 DUP4 DUP6 SUB SLT ISZERO PUSH2 0x1BAC JUMPI PUSH2 0x1BAB PUSH2 0x1AF7 JUMP JUMPDEST JUMPDEST PUSH1 0x0 PUSH2 0x1BBA DUP6 DUP3 DUP7 ADD PUSH2 0x1B4A JUMP JUMPDEST SWAP3 POP POP PUSH1 0x20 PUSH2 0x1BCB DUP6 DUP3 DUP7 ADD PUSH2 0x1B80 JUMP JUMPDEST SWAP2 POP POP SWAP3 POP SWAP3 SWAP1 POP JUMP JUMPDEST PUSH2 0x1BDE DUP2 PUSH2 0x1B5F JUMP JUMPDEST DUP3 MSTORE POP POP JUMP JUMPDEST PUSH1 0x0 PUSH1 0x20 DUP3 ADD SWAP1 POP PUSH2 0x1BF9 PUSH1 0x0 DUP4 ADD DUP5 PUSH2 0x1BD5 JUMP JUMPDEST SWAP3 SWAP2 POP POP JUMP JUMPDEST PUSH1 0x0 PUSH32 0xFFFFFFFF00000000000000000000000000000000000000000000000000000000 DUP3 AND SWAP1 POP SWAP2 SWAP1 POP JUMP JUMPDEST PUSH2 0x1C34 DUP2 PUSH2 0x1BFF JUMP JUMPDEST DUP2 EQ PUSH2 0x1C3F JUMPI PUSH1 0x0 DUP1 REVERT JUMPDEST POP JUMP JUMPDEST PUSH1 0x0 DUP2 CALLDATALOAD SWAP1 POP PUSH2 0x1C51 DUP2 PUSH2 0x1C2B JUMP JUMPDEST SWAP3 SWAP2 POP POP JUMP JUMPDEST PUSH1 0x0 PUSH1 0x20 DUP3 DUP5 SUB SLT ISZERO PUSH2 0x1C6D JUMPI PUSH2 0x1C6C PUSH2 0x1AF7 JUMP JUMPDEST JUMPDEST PUSH1 0x0 PUSH2 0x1C7B DUP5 DUP3 DUP6 ADD PUSH2 0x1C42 JUMP JUMPDEST SWAP2 POP POP SWAP3 SWAP2 POP POP JUMP JUMPDEST PUSH1 0x0 DUP2 ISZERO ISZERO SWAP1 POP SWAP2 SWAP1 POP JUMP JUMPDEST PUSH2 0x1C99 DUP2 PUSH2 0x1C84 JUMP JUMPDEST DUP3 MSTORE POP POP JUMP JUMPDEST PUSH1 0x0 PUSH1 0x20 DUP3 ADD SWAP1 POP PUSH2 0x1CB4 PUSH1 0x0 DUP4 ADD DUP5 PUSH2 0x1C90 JUMP JUMPDEST SWAP3 SWAP2 POP POP JUMP JUMPDEST PUSH1 0x0 DUP2 MLOAD SWAP1 POP SWAP2 SWAP1 POP JUMP JUMPDEST PUSH1 0x0 DUP3 DUP3 MSTORE PUSH1 0x20 DUP3 ADD SWAP1 POP SWAP3 SWAP2 POP POP JUMP JUMPDEST PUSH1 0x0 JUMPDEST DUP4 DUP2 LT ISZERO PUSH2 0x1CF4 JUMPI DUP1 DUP3 ADD MLOAD DUP2 DUP5 ADD MSTORE PUSH1 0x20 DUP2 ADD SWAP1 POP PUSH2 0x1CD9 JUMP JUMPDEST PUSH1 0x0 DUP5 DUP5 ADD MSTORE POP POP POP POP JUMP JUMPDEST PUSH1 0x0 PUSH1 0x1F NOT PUSH1 0x1F DUP4 ADD AND SWAP1 POP SWAP2 SWAP1 POP JUMP JUMPDEST PUSH1 0x0 PUSH2 0x1D1C DUP3 PUSH2 0x1CBA JUMP JUMPDEST PUSH2 0x1D26 DUP2 DUP6 PUSH2 0x1CC5 JUMP JUMPDEST SWAP4 POP PUSH2 0x1D36 DUP2 DUP6 PUSH1 0x20 DUP7 ADD PUSH2 0x1CD6 JUMP JUMPDEST PUSH2 0x1D3F DUP2 PUSH2 0x1D00 JUMP JUMPDEST DUP5 ADD SWAP2 POP POP SWAP3 SWAP2 POP POP JUMP JUMPDEST PUSH1 0x0 PUSH1 0x20 DUP3 ADD SWAP1 POP DUP2 DUP2 SUB PUSH1 0x0 DUP4 ADD MSTORE PUSH2 0x1D64 DUP2 DUP5 PUSH2 0x1D11 JUMP JUMPDEST SWAP1 POP SWAP3 SWAP2 POP POP JUMP JUMPDEST PUSH1 0x0 PUSH1 0x20 DUP3 DUP5 SUB SLT ISZERO PUSH2 0x1D82 JUMPI PUSH2 0x1D81 PUSH2 0x1AF7 JUMP JUMPDEST JUMPDEST PUSH1 0x0 PUSH2 0x1D90 DUP5 DUP3 DUP6 ADD PUSH2 0x1B80 JUMP JUMPDEST SWAP2 POP POP SWAP3 SWAP2 POP POP JUMP JUMPDEST PUSH1 0x0 DUP1 REVERT JUMPDEST PUSH1 0x0 DUP1 REVERT JUMPDEST PUSH32 0x4E487B7100000000000000000000000000000000000000000000000000000000 PUSH1 0x0 MSTORE PUSH1 0x41 PUSH1 0x4 MSTORE PUSH1 0x24 PUSH1 0x0 REVERT JUMPDEST PUSH2 0x1DDB DUP3 PUSH2 0x1D00 JUMP JUMPDEST DUP2 ADD DUP2 DUP2 LT PUSH8 0xFFFFFFFFFFFFFFFF DUP3 GT OR ISZERO PUSH2 0x1DFA JUMPI PUSH2 0x1DF9 PUSH2 0x1DA3 JUMP JUMPDEST JUMPDEST DUP1 PUSH1 0x40 MSTORE POP POP POP JUMP JUMPDEST PUSH1 0x0 PUSH2 0x1E0D PUSH2 0x1AED JUMP JUMPDEST SWAP1 POP PUSH2 0x1E19 DUP3 DUP3 PUSH2 0x1DD2 JUMP JUMPDEST SWAP2 SWAP1 POP JUMP JUMPDEST PUSH1 0x0 PUSH8 0xFFFFFFFFFFFFFFFF DUP3 GT ISZERO PUSH2 0x1E39 JUMPI PUSH2 0x1E38 PUSH2 0x1DA3 JUMP JUMPDEST JUMPDEST PUSH2 0x1E42 DUP3 PUSH2 0x1D00 JUMP JUMPDEST SWAP1 POP PUSH1 0x20 DUP2 ADD SWAP1 POP SWAP2 SWAP1 POP JUMP JUMPDEST DUP3 DUP2 DUP4 CALLDATACOPY PUSH1 0x0 DUP4 DUP4 ADD MSTORE POP POP POP JUMP JUMPDEST PUSH1 0x0 PUSH2 0x1E71 PUSH2 0x1E6C DUP5 PUSH2 0x1E1E JUMP JUMPDEST PUSH2 0x1E03 JUMP JUMPDEST SWAP1 POP DUP3 DUP2 MSTORE PUSH1 0x20 DUP2 ADD DUP5 DUP5 DUP5 ADD GT ISZERO PUSH2 0x1E8D JUMPI PUSH2 0x1E8C PUSH2 0x1D9E JUMP JUMPDEST JUMPDEST PUSH2 0x1E98 DUP5 DUP3 DUP6 PUSH2 0x1E4F JUMP JUMPDEST POP SWAP4 SWAP3 POP POP POP JUMP JUMPDEST PUSH1 0x0 DUP3 PUSH1 0x1F DUP4 ADD SLT PUSH2 0x1EB5 JUMPI PUSH2 0x1EB4 PUSH2 0x1D99 JUMP JUMPDEST JUMPDEST DUP2 CALLDATALOAD PUSH2 0x1EC5 DUP5 DUP3 PUSH1 0x20 DUP7 ADD PUSH2 0x1E5E JUMP JUMPDEST SWAP2 POP POP SWAP3 SWAP2 POP POP JUMP JUMPDEST PUSH1 0x0 DUP1 PUSH1 0x0 PUSH1 0x60 DUP5 DUP7 SUB SLT ISZERO PUSH2 0x1EE7 JUMPI PUSH2 0x1EE6 PUSH2 0x1AF7 JUMP JUMPDEST JUMPDEST PUSH1 0x0 DUP5 ADD CALLDATALOAD PUSH8 0xFFFFFFFFFFFFFFFF DUP2 GT ISZERO PUSH2 0x1F05 JUMPI PUSH2 0x1F04 PUSH2 0x1AFC JUMP JUMPDEST JUMPDEST PUSH2 0x1F11 DUP7 DUP3 DUP8 ADD PUSH2 0x1EA0 JUMP JUMPDEST SWAP4 POP POP PUSH1 0x20 PUSH2 0x1F22 DUP7 DUP3 DUP8 ADD PUSH2 0x1B80 JUMP JUMPDEST SWAP3 POP POP PUSH1 0x40 PUSH2 0x1F33 DUP7 DUP3 DUP8 ADD PUSH2 0x1B80 JUMP JUMPDEST SWAP2 POP POP SWAP3 POP SWAP3 POP SWAP3 JUMP JUMPDEST PUSH1 0x0 PUSH8 0xFFFFFFFFFFFFFFFF DUP3 GT ISZERO PUSH2 0x1F58 JUMPI PUSH2 0x1F57 PUSH2 0x1DA3 JUMP JUMPDEST JUMPDEST PUSH1 0x20 DUP3 MUL SWAP1 POP PUSH1 0x20 DUP2 ADD SWAP1 POP SWAP2 SWAP1 POP JUMP JUMPDEST PUSH1 0x0 DUP1 REVERT JUMPDEST PUSH1 0x0 PUSH2 0x1F81 PUSH2 0x1F7C DUP5 PUSH2 0x1F3D JUMP JUMPDEST PUSH2 0x1E03 JUMP JUMPDEST SWAP1 POP DUP1 DUP4 DUP3 MSTORE PUSH1 0x20 DUP3 ADD SWAP1 POP PUSH1 0x20 DUP5 MUL DUP4 ADD DUP6 DUP2 GT ISZERO PUSH2 0x1FA4 JUMPI PUSH2 0x1FA3 PUSH2 0x1F69 JUMP JUMPDEST JUMPDEST DUP4 JUMPDEST DUP2 DUP2 LT ISZERO PUSH2 0x1FCD JUMPI DUP1 PUSH2 0x1FB9 DUP9 DUP3 PUSH2 0x1B80 JUMP JUMPDEST DUP5 MSTORE PUSH1 0x20 DUP5 ADD SWAP4 POP POP PUSH1 0x20 DUP2 ADD SWAP1 POP PUSH2 0x1FA6 JUMP JUMPDEST POP POP POP SWAP4 SWAP3 POP POP POP JUMP JUMPDEST PUSH1 0x0 DUP3 PUSH1 0x1F DUP4 ADD SLT PUSH2 0x1FEC JUMPI PUSH2 0x1FEB PUSH2 0x1D99 JUMP JUMPDEST JUMPDEST DUP2 CALLDATALOAD PUSH2 0x1FFC DUP5 DUP3 PUSH1 0x20 DUP7 ADD PUSH2 0x1F6E JUMP JUMPDEST SWAP2 POP POP SWAP3 SWAP2 POP POP JUMP JUMPDEST PUSH1 0x0 PUSH8 0xFFFFFFFFFFFFFFFF DUP3 GT ISZERO PUSH2 0x2020 JUMPI PUSH2 0x201F PUSH2 0x1DA3 JUMP JUMPDEST JUMPDEST PUSH2 0x2029 DUP3 PUSH2 0x1D00 JUMP JUMPDEST SWAP1 POP PUSH1 0x20 DUP2 ADD SWAP1 POP SWAP2 SWAP1 POP JUMP JUMPDEST PUSH1 0x0 PUSH2 0x2049 PUSH2 0x2044 DUP5 PUSH2 0x2005 JUMP JUMPDEST PUSH2 0x1E03 JUMP JUMPDEST SWAP1 POP DUP3 DUP2 MSTORE PUSH1 0x20 DUP2 ADD DUP5 DUP5 DUP5 ADD GT ISZERO PUSH2 0x2065 JUMPI PUSH2 0x2064 PUSH2 0x1D9E JUMP JUMPDEST JUMPDEST PUSH2 0x2070 DUP5 DUP3 DUP6 PUSH2 0x1E4F JUMP JUMPDEST POP SWAP4 SWAP3 POP POP POP JUMP JUMPDEST PUSH1 0x0 DUP3 PUSH1 0x1F DUP4 ADD SLT PUSH2 0x208D JUMPI PUSH2 0x208C PUSH2 0x1D99 JUMP JUMPDEST JUMPDEST DUP2 CALLDATALOAD PUSH2 0x209D DUP5 DUP3 PUSH1 0x20 DUP7 ADD PUSH2 0x2036 JUMP JUMPDEST SWAP2 POP POP SWAP3 SWAP2 POP POP JUMP JUMPDEST PUSH1 0x0 DUP1 PUSH1 0x0 DUP1 PUSH1 0x0 PUSH1 0xA0 DUP7 DUP9 SUB SLT ISZERO PUSH2 0x20C2 JUMPI PUSH2 0x20C1 PUSH2 0x1AF7 JUMP JUMPDEST JUMPDEST PUSH1 0x0 PUSH2 0x20D0 DUP9 DUP3 DUP10 ADD PUSH2 0x1B4A JUMP JUMPDEST SWAP6 POP POP PUSH1 0x20 PUSH2 0x20E1 DUP9 DUP3 DUP10 ADD PUSH2 0x1B4A JUMP JUMPDEST SWAP5 POP POP PUSH1 0x40 DUP7 ADD CALLDATALOAD PUSH8 0xFFFFFFFFFFFFFFFF DUP2 GT ISZERO PUSH2 0x2102 JUMPI PUSH2 0x2101 PUSH2 0x1AFC JUMP JUMPDEST JUMPDEST PUSH2 0x210E DUP9 DUP3 DUP10 ADD PUSH2 0x1FD7 JUMP JUMPDEST SWAP4 POP POP PUSH1 0x60 DUP7 ADD CALLDATALOAD PUSH8 0xFFFFFFFFFFFFFFFF DUP2 GT ISZERO PUSH2 0x212F JUMPI PUSH2 0x212E PUSH2 0x1AFC JUMP JUMPDEST JUMPDEST PUSH2 0x213B DUP9 DUP3 DUP10 ADD PUSH2 0x1FD7 JUMP JUMPDEST SWAP3 POP POP PUSH1 0x80 DUP7 ADD CALLDATALOAD PUSH8 0xFFFFFFFFFFFFFFFF DUP2 GT ISZERO PUSH2 0x215C JUMPI PUSH2 0x215B PUSH2 0x1AFC JUMP JUMPDEST JUMPDEST PUSH2 0x2168 DUP9 DUP3 DUP10 ADD PUSH2 0x2078 JUMP JUMPDEST SWAP2 POP POP SWAP3 SWAP6 POP SWAP3 SWAP6 SWAP1 SWAP4 POP JUMP JUMPDEST PUSH1 0x0 PUSH8 0xFFFFFFFFFFFFFFFF DUP3 GT ISZERO PUSH2 0x2190 JUMPI PUSH2 0x218F PUSH2 0x1DA3 JUMP JUMPDEST JUMPDEST PUSH1 0x20 DUP3 MUL SWAP1 POP PUSH1 0x20 DUP2 ADD SWAP1 POP SWAP2 SWAP1 POP JUMP JUMPDEST PUSH1 0x0 PUSH2 0x21B4 PUSH2 0x21AF DUP5 PUSH2 0x2175 JUMP JUMPDEST PUSH2 0x1E03 JUMP JUMPDEST SWAP1 POP DUP1 DUP4 DUP3 MSTORE PUSH1 0x20 DUP3 ADD SWAP1 POP PUSH1 0x20 DUP5 MUL DUP4 ADD DUP6 DUP2 GT ISZERO PUSH2 0x21D7 JUMPI PUSH2 0x21D6 PUSH2 0x1F69 JUMP JUMPDEST JUMPDEST DUP4 JUMPDEST DUP2 DUP2 LT ISZERO PUSH2 0x2200 JUMPI DUP1 PUSH2 0x21EC DUP9 DUP3 PUSH2 0x1B4A JUMP JUMPDEST DUP5 MSTORE PUSH1 0x20 DUP5 ADD SWAP4 POP POP PUSH1 0x20 DUP2 ADD SWAP1 POP PUSH2 0x21D9 JUMP JUMPDEST POP POP POP SWAP4 SWAP3 POP POP POP JUMP JUMPDEST PUSH1 0x0 DUP3 PUSH1 0x1F DUP4 ADD SLT PUSH2 0x221F JUMPI PUSH2 0x221E PUSH2 0x1D99 JUMP JUMPDEST JUMPDEST DUP2 CALLDATALOAD PUSH2 0x222F DUP5 DUP3 PUSH1 0x20 DUP7 ADD PUSH2 0x21A1 JUMP JUMPDEST SWAP2 POP POP SWAP3 SWAP2 POP POP JUMP JUMPDEST PUSH1 0x0 DUP1 PUSH1 0x40 DUP4 DUP6 SUB SLT ISZERO PUSH2 0x224F JUMPI PUSH2 0x224E PUSH2 0x1AF7 JUMP JUMPDEST JUMPDEST PUSH1 0x0 DUP4 ADD CALLDATALOAD PUSH8 0xFFFFFFFFFFFFFFFF DUP2 GT ISZERO PUSH2 0x226D JUMPI PUSH2 0x226C PUSH2 0x1AFC JUMP JUMPDEST JUMPDEST PUSH2 0x2279 DUP6 DUP3 DUP7 ADD PUSH2 0x220A JUMP JUMPDEST SWAP3 POP POP PUSH1 0x20 DUP4 ADD CALLDATALOAD PUSH8 0xFFFFFFFFFFFFFFFF DUP2 GT ISZERO PUSH2 0x229A JUMPI PUSH2 0x2299 PUSH2 0x1AFC JUMP JUMPDEST JUMPDEST PUSH2 0x22A6 DUP6 DUP3 DUP7 ADD PUSH2 0x1FD7 JUMP JUMPDEST SWAP2 POP POP SWAP3 POP SWAP3 SWAP1 POP JUMP JUMPDEST PUSH1 0x0 DUP2 MLOAD SWAP1 POP SWAP2 SWAP1 POP JUMP JUMPDEST PUSH1 0x0 DUP3 DUP3 MSTORE PUSH1 0x20 DUP3 ADD SWAP1 POP SWAP3 SWAP2 POP POP JUMP JUMPDEST PUSH1 0x0 DUP2 SWAP1 POP PUSH1 0x20 DUP3 ADD SWAP1 POP SWAP2 SWAP1 POP JUMP JUMPDEST PUSH2 0x22E5 DUP2 PUSH2 0x1B5F JUMP JUMPDEST DUP3 MSTORE POP POP JUMP JUMPDEST PUSH1 0x0 PUSH2 0x22F7 DUP4 DUP4 PUSH2 0x22DC JUMP JUMPDEST PUSH1 0x20 DUP4 ADD SWAP1 POP SWAP3 SWAP2 POP POP JUMP JUMPDEST PUSH1 0x0 PUSH1 0x20 DUP3 ADD SWAP1 POP SWAP2 SWAP1 POP JUMP JUMPDEST PUSH1 0x0 PUSH2 0x231B DUP3 PUSH2 0x22B0 JUMP JUMPDEST PUSH2 0x2325 DUP2 DUP6 PUSH2 0x22BB JUMP JUMPDEST SWAP4 POP PUSH2 0x2330 DUP4 PUSH2 0x22CC JUMP JUMPDEST DUP1 PUSH1 0x0 JUMPDEST DUP4 DUP2 LT ISZERO PUSH2 0x2361 JUMPI DUP2 MLOAD PUSH2 0x2348 DUP9 DUP3 PUSH2 0x22EB JUMP JUMPDEST SWAP8 POP PUSH2 0x2353 DUP4 PUSH2 0x2303 JUMP JUMPDEST SWAP3 POP POP PUSH1 0x1 DUP2 ADD SWAP1 POP PUSH2 0x2334 JUMP JUMPDEST POP DUP6 SWAP4 POP POP POP POP SWAP3 SWAP2 POP POP JUMP JUMPDEST PUSH1 0x0 PUSH1 0x20 DUP3 ADD SWAP1 POP DUP2 DUP2 SUB PUSH1 0x0 DUP4 ADD MSTORE PUSH2 0x2388 DUP2 DUP5 PUSH2 0x2310 JUMP JUMPDEST SWAP1 POP SWAP3 SWAP2 POP POP JUMP JUMPDEST PUSH1 0x0 PUSH1 0x60 DUP3 ADD SWAP1 POP DUP2 DUP2 SUB PUSH1 0x0 DUP4 ADD MSTORE PUSH2 0x23AA DUP2 DUP7 PUSH2 0x1D11 JUMP JUMPDEST SWAP1 POP PUSH2 0x23B9 PUSH1 0x20 DUP4 ADD DUP6 PUSH2 0x1BD5 JUMP JUMPDEST PUSH2 0x23C6 PUSH1 0x40 DUP4 ADD DUP5 PUSH2 0x1BD5 JUMP JUMPDEST SWAP5 SWAP4 POP POP POP POP JUMP JUMPDEST PUSH2 0x23D7 DUP2 PUSH2 0x1B21 JUMP JUMPDEST DUP3 MSTORE POP POP JUMP JUMPDEST PUSH1 0x0 PUSH1 0x20 DUP3 ADD SWAP1 POP PUSH2 0x23F2 PUSH1 0x0 DUP4 ADD DUP5 PUSH2 0x23CE JUMP JUMPDEST SWAP3 SWAP2 POP POP JUMP JUMPDEST PUSH2 0x2401 DUP2 PUSH2 0x1C84 JUMP JUMPDEST DUP2 EQ PUSH2 0x240C JUMPI PUSH1 0x0 DUP1 REVERT JUMPDEST POP JUMP JUMPDEST PUSH1 0x0 DUP2 CALLDATALOAD SWAP1 POP PUSH2 0x241E DUP2 PUSH2 0x23F8 JUMP JUMPDEST SWAP3 SWAP2 POP POP JUMP JUMPDEST PUSH1 0x0 DUP1 PUSH1 0x40 DUP4 DUP6 SUB SLT ISZERO PUSH2 0x243B JUMPI PUSH2 0x243A PUSH2 0x1AF7 JUMP JUMPDEST JUMPDEST PUSH1 0x0 PUSH2 0x2449 DUP6 DUP3 DUP7 ADD PUSH2 0x1B4A JUMP JUMPDEST SWAP3 POP POP PUSH1 0x20 PUSH2 0x245A DUP6 DUP3 DUP7 ADD PUSH2 0x240F JUMP JUMPDEST SWAP2 POP POP SWAP3 POP SWAP3 SWAP1 POP JUMP JUMPDEST PUSH1 0x0 DUP1 PUSH1 0x40 DUP4 DUP6 SUB SLT ISZERO PUSH2 0x247B JUMPI PUSH2 0x247A PUSH2 0x1AF7 JUMP JUMPDEST JUMPDEST PUSH1 0x0 PUSH2 0x2489 DUP6 DUP3 DUP7 ADD PUSH2 0x1B4A JUMP JUMPDEST SWAP3 POP POP PUSH1 0x20 PUSH2 0x249A DUP6 DUP3 DUP7 ADD PUSH2 0x1B4A JUMP JUMPDEST SWAP2 POP POP SWAP3 POP SWAP3 SWAP1 POP JUMP JUMPDEST PUSH1 0x0 DUP1 PUSH1 0x0 DUP1 PUSH1 0x0 PUSH1 0xA0 DUP7 DUP9 SUB SLT ISZERO PUSH2 0x24C0 JUMPI PUSH2 0x24BF PUSH2 0x1AF7 JUMP JUMPDEST JUMPDEST PUSH1 0x0 PUSH2 0x24CE DUP9 DUP3 DUP10 ADD PUSH2 0x1B4A JUMP JUMPDEST SWAP6 POP POP PUSH1 0x20 PUSH2 0x24DF DUP9 DUP3 DUP10 ADD PUSH2 0x1B4A JUMP JUMPDEST SWAP5 POP POP PUSH1 0x40 PUSH2 0x24F0 DUP9 DUP3 DUP10 ADD PUSH2 0x1B80 JUMP JUMPDEST SWAP4 POP POP PUSH1 0x60 PUSH2 0x2501 DUP9 DUP3 DUP10 ADD PUSH2 0x1B80 JUMP JUMPDEST SWAP3 POP POP PUSH1 0x80 DUP7 ADD CALLDATALOAD PUSH8 0xFFFFFFFFFFFFFFFF DUP2 GT ISZERO PUSH2 0x2522 JUMPI PUSH2 0x2521 PUSH2 0x1AFC JUMP JUMPDEST JUMPDEST PUSH2 0x252E DUP9 DUP3 DUP10 ADD PUSH2 0x2078 JUMP JUMPDEST SWAP2 POP POP SWAP3 SWAP6 POP SWAP3 SWAP6 SWAP1 SWAP4 POP JUMP JUMPDEST PUSH1 0x0 PUSH1 0x20 DUP3 DUP5 SUB SLT ISZERO PUSH2 0x2551 JUMPI PUSH2 0x2550 PUSH2 0x1AF7 JUMP JUMPDEST JUMPDEST PUSH1 0x0 PUSH2 0x255F DUP5 DUP3 DUP6 ADD PUSH2 0x1B4A JUMP JUMPDEST SWAP2 POP POP SWAP3 SWAP2 POP POP JUMP JUMPDEST PUSH32 0x4E487B7100000000000000000000000000000000000000000000000000000000 PUSH1 0x0 MSTORE PUSH1 0x22 PUSH1 0x4 MSTORE PUSH1 0x24 PUSH1 0x0 REVERT JUMPDEST PUSH1 0x0 PUSH1 0x2 DUP3 DIV SWAP1 POP PUSH1 0x1 DUP3 AND DUP1 PUSH2 0x25AF JUMPI PUSH1 0x7F DUP3 AND SWAP2 POP JUMPDEST PUSH1 0x20 DUP3 LT DUP2 SUB PUSH2 0x25C2 JUMPI PUSH2 0x25C1 PUSH2 0x2568 JUMP JUMPDEST JUMPDEST POP SWAP2 SWAP1 POP JUMP JUMPDEST PUSH1 0x0 DUP2 SWAP1 POP SWAP3 SWAP2 POP POP JUMP JUMPDEST PUSH32 0x68747470733A2F2F6170692E6167726F66692E636F6D2F6D657461646174612F PUSH1 0x0 DUP3 ADD MSTORE POP JUMP JUMPDEST PUSH1 0x0 PUSH2 0x2609 PUSH1 0x20 DUP4 PUSH2 0x25C8 JUMP JUMPDEST SWAP2 POP PUSH2 0x2614 DUP3 PUSH2 0x25D3 JUMP JUMPDEST PUSH1 0x20 DUP3 ADD SWAP1 POP SWAP2 SWAP1 POP JUMP JUMPDEST PUSH1 0x0 PUSH2 0x262A DUP3 PUSH2 0x1CBA JUMP JUMPDEST PUSH2 0x2634 DUP2 DUP6 PUSH2 0x25C8 JUMP JUMPDEST SWAP4 POP PUSH2 0x2644 DUP2 DUP6 PUSH1 0x20 DUP7 ADD PUSH2 0x1CD6 JUMP JUMPDEST DUP1 DUP5 ADD SWAP2 POP POP SWAP3 SWAP2 POP POP JUMP JUMPDEST PUSH1 0x0 PUSH2 0x265B DUP3 PUSH2 0x25FC JUMP JUMPDEST SWAP2 POP PUSH2 0x2667 DUP3 DUP5 PUSH2 0x261F JUMP JUMPDEST SWAP2 POP DUP2 SWAP1 POP SWAP3 SWAP2 POP POP JUMP JUMPDEST PUSH1 0x0 DUP2 SWAP1 POP DUP2 PUSH1 0x0 MSTORE PUSH1 0x20 PUSH1 0x0 KECCAK256 SWAP1 POP SWAP2 SWAP1 POP JUMP JUMPDEST PUSH1 0x0 PUSH1 0x20 PUSH1 0x1F DUP4 ADD DIV SWAP1 POP SWAP2 SWAP1 POP JUMP JUMPDEST PUSH1 0x0 DUP3 DUP3 SHL SWAP1 POP SWAP3 SWAP2 POP POP JUMP JUMPDEST PUSH1 0x0 PUSH1 0x8 DUP4 MUL PUSH2 0x26D4 PUSH32 0xFFFFFFFFFFFFFFFFFFFFFFFFFFFFFFFFFFFFFFFFFFFFFFFFFFFFFFFFFFFFFFFF DUP3 PUSH2 0x2697 JUMP JUMPDEST PUSH2 0x26DE DUP7 DUP4 PUSH2 0x2697 JUMP JUMPDEST SWAP6 POP DUP1 NOT DUP5 AND SWAP4 POP DUP1 DUP7 AND DUP5 OR SWAP3 POP POP POP SWAP4 SWAP3 POP POP POP JUMP JUMPDEST PUSH1 0x0 DUP2 SWAP1 POP SWAP2 SWAP1 POP JUMP JUMPDEST PUSH1 0x0 PUSH2 0x271B PUSH2 0x2716 PUSH2 0x2711 DUP5 PUSH2 0x1B5F JUMP JUMPDEST PUSH2 0x26F6 JUMP JUMPDEST PUSH2 0x1B5F JUMP JUMPDEST SWAP1 POP SWAP2 SWAP1 POP JUMP JUMPDEST PUSH1 0x0 DUP2 SWAP1 POP SWAP2 SWAP1 POP JUMP JUMPDEST PUSH2 0x2735 DUP4 PUSH2 0x2700 JUMP JUMPDEST PUSH2 0x2749 PUSH2 0x2741 DUP3 PUSH2 0x2722 JUMP JUMPDEST DUP5 DUP5 SLOAD PUSH2 0x26A4 JUMP JUMPDEST DUP3 SSTORE POP POP POP POP JUMP JUMPDEST PUSH1 0x0 SWAP1 JUMP JUMPDEST PUSH2 0x275E PUSH2 0x2751 JUMP JUMPDEST PUSH2 0x2769 DUP2 DUP5 DUP5 PUSH2 0x272C JUMP JUMPDEST POP POP POP JUMP JUMPDEST JUMPDEST DUP2 DUP2 LT ISZERO PUSH2 0x278D JUMPI PUSH2 0x2782 PUSH1 0x0 DUP3 PUSH2 0x2756 JUMP JUMPDEST PUSH1 0x1 DUP2 ADD SWAP1 POP PUSH2 0x276F JUMP JUMPDEST POP POP JUMP JUMPDEST PUSH1 0x1F DUP3 GT ISZERO PUSH2 0x27D2 JUMPI PUSH2 0x27A3 DUP2 PUSH2 0x2672 JUMP JUMPDEST PUSH2 0x27AC DUP5 PUSH2 0x2687 JUMP JUMPDEST DUP2 ADD PUSH1 0x20 DUP6 LT ISZERO PUSH2 0x27BB JUMPI DUP2 SWAP1 POP JUMPDEST PUSH2 0x27CF PUSH2 0x27C7 DUP6 PUSH2 0x2687 JUMP JUMPDEST DUP4 ADD DUP3 PUSH2 0x276E JUMP JUMPDEST POP POP JUMPDEST POP POP POP JUMP JUMPDEST PUSH1 0x0 DUP3 DUP3 SHR SWAP1 POP SWAP3 SWAP2 POP POP JUMP JUMPDEST PUSH1 0x0 PUSH2 0x27F5 PUSH1 0x0 NOT DUP5 PUSH1 0x8 MUL PUSH2 0x27D7 JUMP JUMPDEST NOT DUP1 DUP4 AND SWAP2 POP POP SWAP3 SWAP2 POP POP JUMP JUMPDEST PUSH1 0x0 PUSH2 0x280E DUP4 DUP4 PUSH2 0x27E4 JUMP JUMPDEST SWAP2 POP DUP3 PUSH1 0x2 MUL DUP3 OR SWAP1 POP SWAP3 SWAP2 POP POP JUMP JUMPDEST PUSH2 0x2827 DUP3 PUSH2 0x1CBA JUMP JUMPDEST PUSH8 0xFFFFFFFFFFFFFFFF DUP2 GT ISZERO PUSH2 0x2840 JUMPI PUSH2 0x283F PUSH2 0x1DA3 JUMP JUMPDEST JUMPDEST PUSH2 0x284A DUP3 SLOAD PUSH2 0x2597 JUMP JUMPDEST PUSH2 0x2855 DUP3 DUP3 DUP6 PUSH2 0x2791 JUMP JUMPDEST PUSH1 0x0 PUSH1 0x20 SWAP1 POP PUSH1 0x1F DUP4 GT PUSH1 0x1 DUP2 EQ PUSH2 0x2888 JUMPI PUSH1 0x0 DUP5 ISZERO PUSH2 0x2876 JUMPI DUP3 DUP8 ADD MLOAD SWAP1 POP JUMPDEST PUSH2 0x2880 DUP6 DUP3 PUSH2 0x2802 JUMP JUMPDEST DUP7 SSTORE POP PUSH2 0x28E8 JUMP JUMPDEST PUSH1 0x1F NOT DUP5 AND PUSH2 0x2896 DUP7 PUSH2 0x2672 JUMP JUMPDEST PUSH1 0x0 JUMPDEST DUP3 DUP2 LT ISZERO PUSH2 0x28BE JUMPI DUP5 DUP10 ADD MLOAD DUP3 SSTORE PUSH1 0x1 DUP3 ADD SWAP2 POP PUSH1 0x20 DUP6 ADD SWAP5 POP PUSH1 0x20 DUP2 ADD SWAP1 POP PUSH2 0x2899 JUMP JUMPDEST DUP7 DUP4 LT ISZERO PUSH2 0x28DB JUMPI DUP5 DUP10 ADD MLOAD PUSH2 0x28D7 PUSH1 0x1F DUP10 AND DUP3 PUSH2 0x27E4 JUMP JUMPDEST DUP4 SSTORE POP JUMPDEST PUSH1 0x1 PUSH1 0x2 DUP9 MUL ADD DUP9 SSTORE POP POP POP JUMPDEST POP POP POP POP POP POP JUMP JUMPDEST PUSH32 0x4E487B7100000000000000000000000000000000000000000000000000000000 PUSH1 0x0 MSTORE PUSH1 0x11 PUSH1 0x4 MSTORE PUSH1 0x24 PUSH1 0x0 REVERT JUMPDEST PUSH1 0x0 PUSH2 0x292A DUP3 PUSH2 0x1B5F JUMP JUMPDEST SWAP2 POP PUSH32 0xFFFFFFFFFFFFFFFFFFFFFFFFFFFFFFFFFFFFFFFFFFFFFFFFFFFFFFFFFFFFFFFF DUP3 SUB PUSH2 0x295C JUMPI PUSH2 0x295B PUSH2 0x28F0 JUMP JUMPDEST JUMPDEST PUSH1 0x1 DUP3 ADD SWAP1 POP SWAP2 SWAP1 POP JUMP JUMPDEST PUSH1 0x0 PUSH1 0x40 DUP3 ADD SWAP1 POP PUSH2 0x297C PUSH1 0x0 DUP4 ADD DUP6 PUSH2 0x23CE JUMP JUMPDEST PUSH2 0x2989 PUSH1 0x20 DUP4 ADD DUP5 PUSH2 0x23CE JUMP JUMPDEST SWAP4 SWAP3 POP POP POP JUMP JUMPDEST PUSH1 0x0 PUSH1 0x40 DUP3 ADD SWAP1 POP PUSH2 0x29A5 PUSH1 0x0 DUP4 ADD DUP6 PUSH2 0x1BD5 JUMP JUMPDEST PUSH2 0x29B2 PUSH1 0x20 DUP4 ADD DUP5 PUSH2 0x1BD5 JUMP JUMPDEST SWAP4 SWAP3 POP POP POP JUMP JUMPDEST PUSH32 0x4E487B7100000000000000000000000000000000000000000000000000000000 PUSH1 0x0 MSTORE PUSH1 0x32 PUSH1 0x4 MSTORE PUSH1 0x24 PUSH1 0x0 REVERT JUMPDEST PUSH32 0x4E487B7100000000000000000000000000000000000000000000000000000000 PUSH1 0x0 MSTORE PUSH1 0x12 PUSH1 0x4 MSTORE PUSH1 0x24 PUSH1 0x0 REVERT JUMPDEST PUSH1 0x0 PUSH1 0x80 DUP3 ADD SWAP1 POP PUSH2 0x2A2C PUSH1 0x0 DUP4 ADD DUP8 PUSH2 0x23CE JUMP JUMPDEST PUSH2 0x2A39 PUSH1 0x20 DUP4 ADD DUP7 PUSH2 0x1BD5 JUMP JUMPDEST PUSH2 0x2A46 PUSH1 0x40 DUP4 ADD DUP6 PUSH2 0x1BD5 JUMP JUMPDEST PUSH2 0x2A53 PUSH1 0x60 DUP4 ADD DUP5 PUSH2 0x1BD5 JUMP JUMPDEST SWAP6 SWAP5 POP POP POP POP POP JUMP JUMPDEST PUSH1 0x0 PUSH2 0x2A67 DUP3 PUSH2 0x1B5F JUMP JUMPDEST SWAP2 POP PUSH2 0x2A72 DUP4 PUSH2 0x1B5F JUMP JUMPDEST SWAP3 POP DUP3 DUP3 ADD SWAP1 POP DUP1 DUP3 GT ISZERO PUSH2 0x2A8A JUMPI PUSH2 0x2A89 PUSH2 0x28F0 JUMP JUMPDEST JUMPDEST SWAP3 SWAP2 POP POP JUMP JUMPDEST PUSH1 0x0 PUSH1 0x40 DUP3 ADD SWAP1 POP DUP2 DUP2 SUB PUSH1 0x0 DUP4 ADD MSTORE PUSH2 0x2AAA DUP2 DUP6 PUSH2 0x2310 JUMP JUMPDEST SWAP1 POP DUP2 DUP2 SUB PUSH1 0x20 DUP4 ADD MSTORE PUSH2 0x2ABE DUP2 DUP5 PUSH2 0x2310 JUMP JUMPDEST SWAP1 POP SWAP4 SWAP3 POP POP POP JUMP JUMPDEST PUSH1 0x0 DUP2 MLOAD SWAP1 POP SWAP2 SWAP1 POP JUMP JUMPDEST PUSH1 0x0 DUP3 DUP3 MSTORE PUSH1 0x20 DUP3 ADD SWAP1 POP SWAP3 SWAP2 POP POP JUMP JUMPDEST PUSH1 0x0 PUSH2 0x2AEE DUP3 PUSH2 0x2AC7 JUMP JUMPDEST PUSH2 0x2AF8 DUP2 DUP6 PUSH2 0x2AD2 JUMP JUMPDEST SWAP4 POP PUSH2 0x2B08 DUP2 DUP6 PUSH1 0x20 DUP7 ADD PUSH2 0x1CD6 JUMP JUMPDEST PUSH2 0x2B11 DUP2 PUSH2 0x1D00 JUMP JUMPDEST DUP5 ADD SWAP2 POP POP SWAP3 SWAP2 POP POP JUMP JUMPDEST PUSH1 0x0 PUSH1 0xA0 DUP3 ADD SWAP1 POP PUSH2 0x2B31 PUSH1 0x0 DUP4 ADD DUP9 PUSH2 0x23CE JUMP JUMPDEST PUSH2 0x2B3E PUSH1 0x20 DUP4 ADD DUP8 PUSH2 0x23CE JUMP JUMPDEST PUSH2 0x2B4B PUSH1 0x40 DUP4 ADD DUP7 PUSH2 0x1BD5 JUMP JUMPDEST PUSH2 0x2B58 PUSH1 0x60 DUP4 ADD DUP6 PUSH2 0x1BD5 JUMP JUMPDEST DUP2 DUP2 SUB PUSH1 0x80 DUP4 ADD MSTORE PUSH2 0x2B6A DUP2 DUP5 PUSH2 0x2AE3 JUMP JUMPDEST SWAP1 POP SWAP7 SWAP6 POP POP POP POP POP POP JUMP JUMPDEST PUSH1 0x0 DUP2 MLOAD SWAP1 POP PUSH2 0x2B85 DUP2 PUSH2 0x1C2B JUMP JUMPDEST SWAP3 SWAP2 POP POP JUMP JUMPDEST PUSH1 0x0 PUSH1 0x20 DUP3 DUP5 SUB SLT ISZERO PUSH2 0x2BA1 JUMPI PUSH2 0x2BA0 PUSH2 0x1AF7 JUMP JUMPDEST JUMPDEST PUSH1 0x0 PUSH2 0x2BAF DUP5 DUP3 DUP6 ADD PUSH2 0x2B76 JUMP JUMPDEST SWAP2 POP POP SWAP3 SWAP2 POP POP JUMP JUMPDEST PUSH1 0x0 PUSH1 0xA0 DUP3 ADD SWAP1 POP PUSH2 0x2BCD PUSH1 0x0 DUP4 ADD DUP9 PUSH2 0x23CE JUMP JUMPDEST PUSH2 0x2BDA PUSH1 0x20 DUP4 ADD DUP8 PUSH2 0x23CE JUMP JUMPDEST DUP2 DUP2 SUB PUSH1 0x40 DUP4 ADD MSTORE PUSH2 0x2BEC DUP2 DUP7 PUSH2 0x2310 JUMP JUMPDEST SWAP1 POP DUP2 DUP2 SUB PUSH1 0x60 DUP4 ADD MSTORE PUSH2 0x2C00 DUP2 DUP6 PUSH2 0x2310 JUMP JUMPDEST SWAP1 POP DUP2 DUP2 SUB PUSH1 0x80 DUP4 ADD MSTORE PUSH2 0x2C14 DUP2 DUP5 PUSH2 0x2AE3 JUMP JUMPDEST SWAP1 POP SWAP7 SWAP6 POP POP POP POP POP POP JUMP INVALID LOG2 PUSH5 0x6970667358 0x22 SLT KECCAK256 0xD8 SWAP6 LOG2 PUSH12 0xBD8A32F4D698D9F42B09466A 0xFB RETURNDATASIZE 0xE2 DIV 0x2A 0xDC EXTCODEHASH 0x23 MSTORE SWAP10 0xB3 DUP2 0x2F 0xC8 SWAP9 GT PUSH5 0x736F6C6343 STOP ADDMOD EQ STOP CALLER "},"methodIdentifiers":{"balanceOf(address,uint256)":"00fdd58e","balanceOfBatch(address[],uint256[])":"4e1273f4","currentAssetId()":"8b4df833","detallesActivo(uint256)":"729a12f7","isApprovedForAll(address,address)":"e985e9c5","name()":"06fdde03","owner()":"8da5cb5b","renounceOwnership()":"715018a6","safeBatchTransferFrom(address,address,uint256[],uint256[],bytes)":"2eb2c2d6","safeTransferFrom(address,address,uint256,uint256,bytes)":"f242432a","setApprovalForAll(address,bool)":"a22cb465","supportsInterface(bytes4)":"01ffc9a7","symbol()":"95d89b41","tokenizarHectarea(string,uint256,uint256)":"151798f2","transferOwnership(address)":"f2fde38b","uri(uint256)":"0e89341c"}}}}}