{
  "_format": "hh-sol-artifact-1",
  "contractName": "MockRiskOracle",
  "sourceName": "contracts/MockRiskOracle.sol",
  "abi": [
    {
      "inputs": [
        {
          "internalType": "address",
          "name": "_lendingPool",
          "type": "address"
        }
      ],
      "stateMutability": "nonpayable",
      "type": "constructor"
    },
    {
      "inputs": [
        {
          "internalType": "address",
          "name": "owner",
          "type": "address"
        }
      ],
      "name": "OwnableInvalidOwner",
      "type": "error"
    },
    {
      "inputs": [
        {
          "internalType": "address",
          "name": "account",
          "type": "address"
        }
      ],
      "name": "OwnableUnauthorizedAccount",
      "type": "error"
    },
    {
      "anonymous": false,
      "inputs": [
        {
          "indexed": true,
          "internalType": "address",
          "name": "previousOwner",
          "type": "address"
        },
        {
          "indexed": true,
          "internalType": "address",
          "name": "newOwner",
          "type": "address"
        }
      ],
      "name": "OwnershipTransferred",
      "type": "event"
    },
    {
      "anonymous": false,
      "inputs": [
        {
          "indexed": false,
          "internalType": "uint256",
          "name": "assetId",
          "type": "uint256"
        },
        {
          "indexed": false,
          "internalType": "uint256",
          "name": "newScore",
          "type": "uint256"
        },
        {
          "indexed": false,
          "internalType": "uint256",
          "name": "newLTV",
          "type": "uint256"
        }
      ],
      "name": "RiskScoreUpdated",
      "type": "event"
    },
    {
      "inputs": [],
      "name": "lendingPool",
      "outputs": [
        {
          "internalType": "address",
          "name": "",
          "type": "address"
        }
      ],
      "stateMutability": "view",
      "type": "function"
    },
    {
      "inputs": [],
      "name": "owner",
      "outputs": [
        {
          "internalType": "address",
          "name": "",
          "type": "address"
        }
      ],
      "stateMutability": "view",
      "type": "function"
    },
    {
      "inputs": [],
      "name": "renounceOwnership",
      "outputs": [],
      "stateMutability": "nonpayable",
      "type": "function"
    },
    {
      "inputs": [
        {
          "internalType": "address",
          "name": "newOwner",
          "type": "address"
        }
      ],
      "name": "transferOwnership",
      "outputs": [],
      "stateMutability": "nonpayable",
      "type": "function"
    },
    {
      "inputs": [
        {
          "internalType": "uint256",
          "name": "_assetId",
          "type": "uint256"
        },
        {
          "internalType": "uint256",
          "name": "_riskScore",
          "type": "uint256"
        }
      ],
      "name": "updateRiskScore",
      "outputs": [],
      "stateMutability": "nonpayable",
      "type": "function"
    }
  ],
  "bytecode": "0x608060405234801561001057600080fd5b5060405161093938038061093983398181016040528101906100329190610223565b33600073ffffffffffffffffffffffffffffffffffffffff168173ffffffffffffffffffffffffffffffffffffffff16036100a55760006040517f1e4fbdf700000000000000000000000000000000000000000000000000000000815260040161009c919061025f565b60405180910390fd5b6100b4816100fc60201b60201c565b5080600160006101000a81548173ffffffffffffffffffffffffffffffffffffffff021916908373ffffffffffffffffffffffffffffffffffffffff1602179055505061027a565b60008060009054906101000a900473ffffffffffffffffffffffffffffffffffffffff169050816000806101000a81548173ffffffffffffffffffffffffffffffffffffffff021916908373ffffffffffffffffffffffffffffffffffffffff1602179055508173ffffffffffffffffffffffffffffffffffffffff168173ffffffffffffffffffffffffffffffffffffffff167f8be0079c531659141344cd1fd0a4f28419497f9722a3daafe3b4186f6b6457e060405160405180910390a35050565b600080fd5b600073ffffffffffffffffffffffffffffffffffffffff82169050919050565b60006101f0826101c5565b9050919050565b610200816101e5565b811461020b57600080fd5b50565b60008151905061021d816101f7565b92915050565b600060208284031215610239576102386101c0565b5b60006102478482850161020e565b91505092915050565b610259816101e5565b82525050565b60006020820190506102746000830184610250565b92915050565b6106b0806102896000396000f3fe608060405234801561001057600080fd5b50600436106100575760003560e01c8063715018a61461005c5780638da5cb5b14610066578063a59a997314610084578063bad128b6146100a2578063f2fde38b146100be575b600080fd5b6100646100da565b005b61006e6100ee565b60405161007b919061049f565b60405180910390f35b61008c610117565b604051610099919061049f565b60405180910390f35b6100bc60048036038101906100b791906104f5565b61013d565b005b6100d860048036038101906100d39190610561565b610285565b005b6100e261030b565b6100ec6000610392565b565b60008060009054906101000a900473ffffffffffffffffffffffffffffffffffffffff16905090565b600160009054906101000a900473ffffffffffffffffffffffffffffffffffffffff1681565b61014561030b565b6064811115610189576040517f08c379a0000000000000000000000000000000000000000000000000000000008152600401610180906105eb565b60405180910390fd5b60006050821061019d57611f4090506101b6565b603282106101af57611b5890506101b5565b610fa090505b5b600160009054906101000a900473ffffffffffffffffffffffffffffffffffffffff1673ffffffffffffffffffffffffffffffffffffffff1663e900a85a84836040518363ffffffff1660e01b815260040161021392919061061a565b600060405180830381600087803b15801561022d57600080fd5b505af1158015610241573d6000803e3d6000fd5b505050507fdaa03e89fd8f02ace9894f55158e8d1f4098cee3718198b7069c28f4dfe782f283838360405161027893929190610643565b60405180910390a1505050565b61028d61030b565b600073ffffffffffffffffffffffffffffffffffffffff168173ffffffffffffffffffffffffffffffffffffffff16036102ff5760006040517f1e4fbdf70000000000000000000000000000000000000000000000000000000081526004016102f6919061049f565b60405180910390fd5b61030881610392565b50565b610313610456565b73ffffffffffffffffffffffffffffffffffffffff166103316100ee565b73ffffffffffffffffffffffffffffffffffffffff161461039057610354610456565b6040517f118cdaa7000000000000000000000000000000000000000000000000000000008152600401610387919061049f565b60405180910390fd5b565b60008060009054906101000a900473ffffffffffffffffffffffffffffffffffffffff169050816000806101000a81548173ffffffffffffffffffffffffffffffffffffffff021916908373ffffffffffffffffffffffffffffffffffffffff1602179055508173ffffffffffffffffffffffffffffffffffffffff168173ffffffffffffffffffffffffffffffffffffffff167f8be0079c531659141344cd1fd0a4f28419497f9722a3daafe3b4186f6b6457e060405160405180910390a35050565b600033905090565b600073ffffffffffffffffffffffffffffffffffffffff82169050919050565b60006104898261045e565b9050919050565b6104998161047e565b82525050565b60006020820190506104b46000830184610490565b92915050565b600080fd5b6000819050919050565b6104d2816104bf565b81146104dd57600080fd5b50565b6000813590506104ef816104c9565b92915050565b6000806040838503121561050c5761050b6104ba565b5b600061051a858286016104e0565b925050602061052b858286016104e0565b9150509250929050565b61053e8161047e565b811461054957600080fd5b50565b60008135905061055b81610535565b92915050565b600060208284031215610577576105766104ba565b5b60006105858482850161054c565b91505092915050565b600082825260208201905092915050565b7f53636f726520696e76616c69646f000000000000000000000000000000000000600082015250565b60006105d5600e8361058e565b91506105e08261059f565b602082019050919050565b60006020820190508181036000830152610604816105c8565b9050919050565b610614816104bf565b82525050565b600060408201905061062f600083018561060b565b61063c602083018461060b565b9392505050565b6000606082019050610658600083018661060b565b610665602083018561060b565b610672604083018461060b565b94935050505056fea2646970667358221220eb5309e9c7b70947651cbcf31afc3f68c23dbd7beedbe77d9845a306cbf4514264736f6c63430008140033",
  "linkReferences": {},
  "deployedLinkReferences": {}
}