{
  "_format": "hh-sol-artifact-1",
  "contractName": "MockRiskOracle",
  "sourceName": "contracts/MockRiskOracle.sol",
  "abi": [
    {
      "inputs": [
        {
          "internalType": "address",
          "name": "_lendingPool",
          "type": "address"
        }
      ],
      "stateMutability": "nonpayable",
      "type": "constructor"
    },
    {
      "inputs": [
        {
          "internalType": "address",
          "name": "owner",
          "type": "address"
        }
      ],
      "name": "OwnableInvalidOwner",
      "type": "error"
    },
    {
      "inputs": [
        {
          "internalType": "address",
          "name": "account",
          "type": "address"
        }
      ],
      "name": "OwnableUnauthorizedAccount",
      "type": "error"
    },
    {
      "anonymous": false,
      "inputs": [
        {
          "indexed": true,
          "internalType": "address",
          "name": "previousOwner",
          "type": "address"
        },
        {
          "indexed": true,
          "internalType": "address",
          "name": "newOwner",
          "type": "address"
        }
      ],
      "name": "OwnershipTransferred",
      "type": "event"
    },
    {
      "anonymous": false,
      "inputs": [
        {
          "indexed": false,
          "internalType": "uint256",
          "name": "assetId",
          "type": "uint256"
        },
        {
          "indexed": false,
          "internalType": "uint256",
          "name": "newScore",
          "type": "uint256"
        },
        {
          "indexed": false,
          "internalType": "uint256",
          "name": "newLTV",
          "type": "uint256"
        }
      ],
      "name": "RiskScoreUpdated",
      "type": "event"
    },
    {
      "inputs": [],
      "name": "lendingPool",
      "outputs": [
        {
          "internalType": "address",
          "name": "",
          "type": "address"
        }
      ],
      "stateMutability": "view",
      "type": "function"
    },
    {
      "inputs": [],
      "name": "owner",
      "outputs": [
        {
          "internalType": "address",
          "name": "",
          "type": "address"
        }
      ],
      "stateMutability": "view",
      "type": "function"
    },
    {
      "inputs": [],
      "name": "renounceOwnership",
      "outputs": [],
      "stateMutability": "nonpayable",
      "type": "function"
    },
    {
      "inputs": [
        {
          "internalType": "address",
          "name": "newOwner",
          "type": "address"
        }
      ],
      "name": "transferOwnership",
      "outputs": [],
      "stateMutability": "nonpayable",
      "type": "function"
    },
    {
      "inputs": [
        {
          "internalType": "uint256",
          "name": "_assetId",
          "type": "uint256"
        },
        {
          "internalType": "uint256",
          "name": "_riskScore",
          "type": "uint256"
        }
      ],
      "name": "updateRiskScore",
      "outputs": [],
      "stateMutability": "nonpayable",
      "type": "function"
    }
  ],
  "bytecode": "0x608060405234801561000f575f80fd5b5060405161043b38038061043b83398101604081905261002e916100d1565b338061005357604051631e4fbdf760e01b81525f600482015260240160405180910390fd5b61005c81610082565b50600180546001600160a01b0319166001600160a01b03929092169190911790556100fe565b5f80546001600160a01b038381166001600160a01b0319831681178455604051919092169283917f8be0079c531659141344cd1fd0a4f28419497f9722a3daafe3b4186f6b6457e09190a35050565b5f602082840312156100e1575f80fd5b81516001600160a01b03811681146100f7575f80fd5b9392505050565b6103308061010b5f395ff3fe608060405234801561000f575f80fd5b5060043610610055575f3560e01c8063715018a6146100595780638da5cb5b14610063578063a59a99731461008b578063bad128b61461009e578063f2fde38b146100b1575b5f80fd5b6100616100c4565b005b5f546001600160a01b03165b6040516001600160a01b03909116815260200160405180910390f35b60015461006f906001600160a01b031681565b6100616100ac3660046102ad565b6100d7565b6100616100bf3660046102cd565b6101f5565b6100cc610232565b6100d55f61025e565b565b6100df610232565b60648111156101265760405162461bcd60e51b815260206004820152600e60248201526d53636f726520696e76616c69646f60901b60448201526064015b60405180910390fd5b5f605082106101385750611f4061014e565b603282106101495750611b5861014e565b50610fa05b600154604051637480542d60e11b815260048101859052602481018390526001600160a01b039091169063e900a85a906044015f604051808303815f87803b158015610198575f80fd5b505af11580156101aa573d5f803e3d5ffd5b505060408051868152602081018690529081018490527fdaa03e89fd8f02ace9894f55158e8d1f4098cee3718198b7069c28f4dfe782f29250606001905060405180910390a1505050565b6101fd610232565b6001600160a01b03811661022657604051631e4fbdf760e01b81525f600482015260240161011d565b61022f8161025e565b50565b5f546001600160a01b031633146100d55760405163118cdaa760e01b815233600482015260240161011d565b5f80546001600160a01b038381166001600160a01b0319831681178455604051919092169283917f8be0079c531659141344cd1fd0a4f28419497f9722a3daafe3b4186f6b6457e09190a35050565b5f80604083850312156102be575f80fd5b50508035926020909101359150565b5f602082840312156102dd575f80fd5b81356001600160a01b03811681146102f3575f80fd5b939250505056fea2646970667358221220265aebf852a83307107339613c2f9a66f8172f724b853aaafefd340050463e5a64736f6c63430008140033",
  "linkReferences": {},
  "deployedLinkReferences": {}
}