{
  "_format": "hh-sol-artifact-1",
  "contractName": "AgroToken",
  "sourceName": "contracts/AgroToken.sol",
  "abi": [
    {
      "inputs": [],
      "stateMutability": "nonpayable",
      "type": "constructor"
    },
    {
      "inputs": [
        {
          "internalType": "address",
          "name": "sender",
          "type": "address"
        },
        {
          "internalType": "uint256",
          "name": "balance",
          "type": "uint256"
        },
        {
          "internalType": "uint256",
          "name": "needed",
          "type": "uint256"
        },
        {
          "internalType": "uint256",
          "name": "tokenId",
          "type": "uint256"
        }
      ],
      "name": "ERC1155InsufficientBalance",
      "type": "error"
    },
    {
      "inputs": [
        {
          "internalType": "address",
          "name": "approver",
          "type": "address"
        }
      ],
      "name": "ERC1155InvalidApprover",
      "type": "error"
    },
    {
      "inputs": [
        {
          "internalType": "uint256",
          "name": "idsLength",
          "type": "uint256"
        },
        {
          "internalType": "uint256",
          "name": "valuesLength",
          "type": "uint256"
        }
      ],
      "name": "ERC1155InvalidArrayLength",
      "type": "error"
    },
    {
      "inputs": [
        {
          "internalType": "address",
          "name": "operator",
          "type": "address"
        }
      ],
      "name": "ERC1155InvalidOperator",
      "type": "error"
    },
    {
      "inputs": [
        {
          "internalType": "address",
          "name": "receiver",
          "type": "address"
        }
      ],
      "name": "ERC1155InvalidReceiver",
      "type": "error"
    },
    {
      "inputs": [
        {
          "internalType": "address",
          "name": "sender",
          "type": "address"
        }
      ],
      "name": "ERC1155InvalidSender",
      "type": "error"
    },
    {
      "inputs": [
        {
          "internalType": "address",
          "name": "operator",
          "type": "address"
        },
        {
          "internalType": "address",
          "name": "owner",
          "type": "address"
        }
      ],
      "name": "ERC1155MissingApprovalForAll",
      "type": "error"
    },
    {
      "inputs": [
        {
          "internalType": "address",
          "name": "owner",
          "type": "address"
        }
      ],
      "name": "OwnableInvalidOwner",
      "type": "error"
    },
    {
      "inputs": [
        {
          "internalType": "address",
          "name": "account",
          "type": "address"
        }
      ],
      "name": "OwnableUnauthorizedAccount",
      "type": "error"
    },
    {
      "anonymous": false,
      "inputs": [
        {
          "indexed": true,
          "internalType": "address",
          "name": "account",
          "type": "address"
        },
        {
          "indexed": true,
          "internalType": "address",
          "name": "operator",
          "type": "address"
        },
        {
          "indexed": false,
          "internalType": "bool",
          "name": "approved",
          "type": "bool"
        }
      ],
      "name": "ApprovalForAll",
      "type": "event"
    },
    {
      "anonymous": false,
      "inputs": [
        {
          "indexed": true,
          "internalType": "address",
          "name": "previousOwner",
          "type": "address"
        },
        {
          "indexed": true,
          "internalType": "address",
          "name": "newOwner",
          "type": "address"
        }
      ],
      "name": "OwnershipTransferred",
      "type": "event"
    },
    {
      "anonymous": false,
      "inputs": [
        {
          "indexed": true,
          "internalType": "address",
          "name": "operator",
          "type": "address"
        },
        {
          "indexed": true,
          "internalType": "address",
          "name": "from",
          "type": "address"
        },
        {
          "indexed": true,
          "internalType": "address",
          "name": "to",
          "type": "address"
        },
        {
          "indexed": false,
          "internalType": "uint256[]",
          "name": "ids",
          "type": "uint256[]"
        },
        {
          "indexed": false,
          "internalType": "uint256[]",
          "name": "values",
          "type": "uint256[]"
        }
      ],
      "name": "TransferBatch",
      "type": "event"
    },
    {
      "anonymous": false,
      "inputs": [
        {
          "indexed": true,
          "internalType": "address",
          "name": "operator",
          "type": "address"
        },
        {
          "indexed": true,
          "internalType": "address",
          "name": "from",
          "type": "address"
        },
        {
          "indexed": true,
          "internalType": "address",
          "name": "to",
          "type": "address"
        },
        {
          "indexed": false,
          "internalType": "uint256",
          "name": "id",
          "type": "uint256"
        },
        {
          "indexed": false,
          "internalType": "uint256",
          "name": "value",
          "type": "uint256"
        }
      ],
      "name": "TransferSingle",
      "type": "event"
    },
    {
      "anonymous": false,
      "inputs": [
        {
          "indexed": false,
          "internalType": "string",
          "name": "value",
          "type": "string"
        },
        {
          "indexed": true,
          "internalType": "uint256",
          "name": "id",
          "type": "uint256"
        }
      ],
      "name": "URI",
      "type": "event"
    },
    {
      "inputs": [
        {
          "internalType": "address",
          "name": "account",
          "type": "address"
        },
        {
          "internalType": "uint256",
          "name": "id",
          "type": "uint256"
        }
      ],
      "name": "balanceOf",
      "outputs": [
        {
          "internalType": "uint256",
          "name": "",
          "type": "uint256"
        }
      ],
      "stateMutability": "view",
      "type": "function"
    },
    {
      "inputs": [
        {
          "internalType": "address[]",
          "name": "accounts",
          "type": "address[]"
        },
        {
          "internalType": "uint256[]",
          "name": "ids",
          "type": "uint256[]"
        }
      ],
      "name": "balanceOfBatch",
      "outputs": [
        {
          "internalType": "uint256[]",
          "name": "",
          "type": "uint256[]"
        }
      ],
      "stateMutability": "view",
      "type": "function"
    },
    {
      "inputs": [],
      "name": "currentAssetId",
      "outputs": [
        {
          "internalType": "uint256",
          "name": "",
          "type": "uint256"
        }
      ],
      "stateMutability": "view",
      "type": "function"
    },
    {
      "inputs": [
        {
          "internalType": "uint256",
          "name": "",
          "type": "uint256"
        }
      ],
      "name": "detallesActivo",
      "outputs": [
        {
          "internalType": "string",
          "name": "nombre",
          "type": "string"
        },
        {
          "internalType": "uint256",
          "name": "valorTotal",
          "type": "uint256"
        },
        {
          "internalType": "uint256",
          "name": "fracciones",
          "type": "uint256"
        }
      ],
      "stateMutability": "view",
      "type": "function"
    },
    {
      "inputs": [
        {
          "internalType": "address",
          "name": "account",
          "type": "address"
        },
        {
          "internalType": "address",
          "name": "operator",
          "type": "address"
        }
      ],
      "name": "isApprovedForAll",
      "outputs": [
        {
          "internalType": "bool",
          "name": "",
          "type": "bool"
        }
      ],
      "stateMutability": "view",
      "type": "function"
    },
    {
      "inputs": [],
      "name": "name",
      "outputs": [
        {
          "internalType": "string",
          "name": "",
          "type": "string"
        }
      ],
      "stateMutability": "view",
      "type": "function"
    },
    {
      "inputs": [],
      "name": "owner",
      "outputs": [
        {
          "internalType": "address",
          "name": "",
          "type": "address"
        }
      ],
      "stateMutability": "view",
      "type": "function"
    },
    {
      "inputs": [],
      "name": "renounceOwnership",
      "outputs": [],
      "stateMutability": "nonpayable",
      "type": "function"
    },
    {
      "inputs": [
        {
          "internalType": "address",
          "name": "from",
          "type": "address"
        },
        {
          "internalType": "address",
          "name": "to",
          "type": "address"
        },
        {
          "internalType": "uint256[]",
          "name": "ids",
          "type": "uint256[]"
        },
        {
          "internalType": "uint256[]",
          "name": "values",
          "type": "uint256[]"
        },
        {
          "internalType": "bytes",
          "name": "data",
          "type": "bytes"
        }
      ],
      "name": "safeBatchTransferFrom",
      "outputs": [],
      "stateMutability": "nonpayable",
      "type": "function"
    },
    {
      "inputs": [
        {
          "internalType": "address",
          "name": "from",
          "type": "address"
        },
        {
          "internalType": "address",
          "name": "to",
          "type": "address"
        },
        {
          "internalType": "uint256",
          "name": "id",
          "type": "uint256"
        },
        {
          "internalType": "uint256",
          "name": "value",
          "type": "uint256"
        },
        {
          "internalType": "bytes",
          "name": "data",
          "type": "bytes"
        }
      ],
      "name": "safeTransferFrom",
      "outputs": [],
      "stateMutability": "nonpayable",
      "type": "function"
    },
    {
      "inputs": [
        {
          "internalType": "address",
          "name": "operator",
          "type": "address"
        },
        {
          "internalType": "bool",
          "name": "approved",
          "type": "bool"
        }
      ],
      "name": "setApprovalForAll",
      "outputs": [],
      "stateMutability": "nonpayable",
      "type": "function"
    },
    {
      "inputs": [
        {
          "internalType": "bytes4",
          "name": "interfaceId",
          "type": "bytes4"
        }
      ],
      "name": "supportsInterface",
      "outputs": [
        {
          "internalType": "bool",
          "name": "",
          "type": "bool"
        }
      ],
      "stateMutability": "view",
      "type": "function"
    },
    {
      "inputs": [],
      "name": "symbol",
      "outputs": [
        {
          "internalType": "string",
          "name": "",
          "type": "string"
        }
      ],
      "stateMutability": "view",
      "type": "function"
    },
    {
      "inputs": [
        {
          "internalType": "string",
          "name": "_nombre",
          "type": "string"
        },
        {
          "internalType": "uint256",
          "name": "_valorTotal",
          "type": "uint256"
        },
        {
          "internalType": "uint256",
          "name": "_cantidadFracciones",
          "type": "uint256"
        }
      ],
      "name": "tokenizarHectarea",
      "outputs": [],
      "stateMutability": "nonpayable",
      "type": "function"
    },
    {
      "inputs": [
        {
          "internalType": "address",
          "name": "newOwner",
          "type": "address"
        }
      ],
      "name": "transferOwnership",
      "outputs": [],
      "stateMutability": "nonpayable",
      "type": "function"
    },
    {
      "inputs": [
        {
          "internalType": "uint256",
          "name": "_id",
          "type": "uint256"
        }
      ],
      "name": "uri",
      "outputs": [
        {
          "internalType": "string",
          "name": "",
          "type": "string"
        }
      ],
      "stateMutability": "pure",
      "type": "function"
    }
  ],
  "bytecode": "0x60806040526040518060400160405280601081526020017f4167726f4669204c6174616d2052574100000000000000000000000000000000815250600490816200004a9190620004a7565b506040518060400160405280600481526020017f4147524f0000000000000000000000000000000000000000000000000000000081525060059081620000919190620004a7565b503480156200009e575f80fd5b503360405180602001604052805f815250620000c0816200016860201b60201c565b505f73ffffffffffffffffffffffffffffffffffffffff168173ffffffffffffffffffffffffffffffffffffffff160362000134575f6040517f1e4fbdf70000000000000000000000000000000000000000000000000000000081526004016200012b9190620005ce565b60405180910390fd5b62000145816200017d60201b60201c565b506200016267dfff4ce15f7e72c260c01b6200024060201b60201c565b620005e9565b8060029081620001799190620004a7565b5050565b5f60035f9054906101000a900473ffffffffffffffffffffffffffffffffffffffff1690508160035f6101000a81548173ffffffffffffffffffffffffffffffffffffffff021916908373ffffffffffffffffffffffffffffffffffffffff1602179055508173ffffffffffffffffffffffffffffffffffffffff168173ffffffffffffffffffffffffffffffffffffffff167f8be0079c531659141344cd1fd0a4f28419497f9722a3daafe3b4186f6b6457e060405160405180910390a35050565b50565b5f81519050919050565b7f4e487b71000000000000000000000000000000000000000000000000000000005f52604160045260245ffd5b7f4e487b71000000000000000000000000000000000000000000000000000000005f52602260045260245ffd5b5f6002820490506001821680620002bf57607f821691505b602082108103620002d557620002d46200027a565b5b50919050565b5f819050815f5260205f209050919050565b5f6020601f8301049050919050565b5f82821b905092915050565b5f60088302620003397fffffffffffffffffffffffffffffffffffffffffffffffffffffffffffffffff82620002fc565b620003458683620002fc565b95508019841693508086168417925050509392505050565b5f819050919050565b5f819050919050565b5f6200038f6200038962000383846200035d565b62000366565b6200035d565b9050919050565b5f819050919050565b620003aa836200036f565b620003c2620003b98262000396565b84845462000308565b825550505050565b5f90565b620003d8620003ca565b620003e58184846200039f565b505050565b5b818110156200040c57620004005f82620003ce565b600181019050620003eb565b5050565b601f8211156200045b576200042581620002db565b6200043084620002ed565b8101602085101562000440578190505b620004586200044f85620002ed565b830182620003ea565b50505b505050565b5f82821c905092915050565b5f6200047d5f198460080262000460565b1980831691505092915050565b5f6200049783836200046c565b9150826002028217905092915050565b620004b28262000243565b67ffffffffffffffff811115620004ce57620004cd6200024d565b5b620004da8254620002a7565b620004e782828562000410565b5f60209050601f8311600181146200051d575f841562000508578287015190505b6200051485826200048a565b86555062000583565b601f1984166200052d86620002db565b5f5b8281101562000556578489015182556001820191506020850194506020810190506200052f565b8683101562000576578489015162000572601f8916826200046c565b8355505b6001600288020188555050505b505050505050565b5f73ffffffffffffffffffffffffffffffffffffffff82169050919050565b5f620005b6826200058b565b9050919050565b620005c881620005aa565b82525050565b5f602082019050620005e35f830184620005bd565b92915050565b612c2780620005f75f395ff3fe608060405234801561000f575f80fd5b50600436106100fd575f3560e01c8063729a12f711610095578063a22cb46511610064578063a22cb465146102ad578063e985e9c5146102c9578063f242432a146102f9578063f2fde38b14610315576100fd565b8063729a12f7146102215780638b4df833146102535780638da5cb5b1461027157806395d89b411461028f576100fd565b8063151798f2116100d1578063151798f2146101af5780632eb2c2d6146101cb5780634e1273f4146101e7578063715018a614610217576100fd565b8062fdd58e1461010157806301ffc9a71461013157806306fdde03146101615780630e89341c1461017f575b5f80fd5b61011b60048036038101906101169190611be5565b610331565b6040516101289190611c32565b60405180910390f35b61014b60048036038101906101469190611ca0565b610386565b6040516101589190611ce5565b60405180910390f35b610169610467565b6040516101769190611d88565b60405180910390f35b61019960048036038101906101949190611da8565b6104f3565b6040516101a69190611d88565b60405180910390f35b6101c960048036038101906101c49190611eff565b610560565b005b6101e560048036038101906101e091906120cd565b610685565b005b61020160048036038101906101fc9190612258565b61072c565b60405161020e9190612385565b60405180910390f35b61021f610839565b005b61023b60048036038101906102369190611da8565b61084c565b60405161024a939291906123a5565b60405180910390f35b61025b6108f8565b6040516102689190611c32565b60405180910390f35b6102796108fe565b60405161028691906123f0565b60405180910390f35b610297610926565b6040516102a49190611d88565b60405180910390f35b6102c760048036038101906102c29190612433565b6109b2565b005b6102e360048036038101906102de9190612471565b6109c8565b6040516102f09190611ce5565b60405180910390f35b610313600480360381019061030e91906124af565b610a56565b005b61032f600480360381019061032a9190612542565b610afd565b005b5f805f8381526020019081526020015f205f8473ffffffffffffffffffffffffffffffffffffffff1673ffffffffffffffffffffffffffffffffffffffff1681526020019081526020015f2054905092915050565b5f7fd9b67a26000000000000000000000000000000000000000000000000000000007bffffffffffffffffffffffffffffffffffffffffffffffffffffffff1916827bffffffffffffffffffffffffffffffffffffffffffffffffffffffff1916148061045057507f0e89341c000000000000000000000000000000000000000000000000000000007bffffffffffffffffffffffffffffffffffffffffffffffffffffffff1916827bffffffffffffffffffffffffffffffffffffffffffffffffffffffff1916145b80610460575061045f82610b81565b5b9050919050565b600480546104749061259a565b80601f01602080910402602001604051908101604052809291908181526020018280546104a09061259a565b80156104eb5780601f106104c2576101008083540402835291602001916104eb565b820191905f5260205f20905b8154815290600101906020018083116104ce57829003601f168201915b505050505081565b60606105096792752a20ce0e9d3760c01b610bea565b61051d6763c14f12761998f060c01b610bea565b610531676cb64318c537fec460c01b610bea565b61053a82610bed565b60405160200161054a919061264e565b6040516020818303038152906040529050919050565b610574678014dbed2dbce25560c01b610bea565b61057c610cb7565b6105906738d0b8f38667466360c01b610bea565b6105a467e1cc3c958f266c7360c01b610bea565b6105b867a3907eab6eff266c60c01b610bea565b60405180606001604052808481526020018381526020018281525060075f60065481526020019081526020015f205f820151815f0190816105f9919061280c565b506020820151816001015560408201518160020155905050610625674cdccfc352bb49c560c01b610bea565b61063967615fa7570b0f9aef60c01b610bea565b610655336006548360405180602001604052805f815250610d3e565b61066967b0c20a69065ad9ec60c01b610bea565b60065f81548092919061067b90612908565b9190505550505050565b5f61068e610dd3565b90508073ffffffffffffffffffffffffffffffffffffffff168673ffffffffffffffffffffffffffffffffffffffff16141580156106d357506106d186826109c8565b155b156107175780866040517fe237d92200000000000000000000000000000000000000000000000000000000815260040161070e92919061294f565b60405180910390fd5b6107248686868686610dda565b505050505050565b6060815183511461077857815183516040517f5b05999100000000000000000000000000000000000000000000000000000000815260040161076f929190612976565b60405180910390fd5b5f835167ffffffffffffffff81111561079457610793611ddb565b5b6040519080825280602002602001820160405280156107c25781602001602082028036833780820191505090505b5090505f5b845181101561082e576107fe6107e68287610ece90919063ffffffff16565b6107f98387610ee190919063ffffffff16565b610331565b8282815181106108115761081061299d565b5b6020026020010181815250508061082790612908565b90506107c7565b508091505092915050565b610841610cb7565b61084a5f610ef4565b565b6007602052805f5260405f205f91509050805f01805461086b9061259a565b80601f01602080910402602001604051908101604052809291908181526020018280546108979061259a565b80156108e25780601f106108b9576101008083540402835291602001916108e2565b820191905f5260205f20905b8154815290600101906020018083116108c557829003601f168201915b5050505050908060010154908060020154905083565b60065481565b5f60035f9054906101000a900473ffffffffffffffffffffffffffffffffffffffff16905090565b600580546109339061259a565b80601f016020809104026020016040519081016040528092919081815260200182805461095f9061259a565b80156109aa5780601f10610981576101008083540402835291602001916109aa565b820191905f5260205f20905b81548152906001019060200180831161098d57829003601f168201915b505050505081565b6109c46109bd610dd3565b8383610fb7565b5050565b5f60015f8473ffffffffffffffffffffffffffffffffffffffff1673ffffffffffffffffffffffffffffffffffffffff1681526020019081526020015f205f8373ffffffffffffffffffffffffffffffffffffffff1673ffffffffffffffffffffffffffffffffffffffff1681526020019081526020015f205f9054906101000a900460ff16905092915050565b5f610a5f610dd3565b90508073ffffffffffffffffffffffffffffffffffffffff168673ffffffffffffffffffffffffffffffffffffffff1614158015610aa45750610aa286826109c8565b155b15610ae85780866040517fe237d922000000000000000000000000000000000000000000000000000000008152600401610adf92919061294f565b60405180910390fd5b610af58686868686611120565b505050505050565b610b05610cb7565b5f73ffffffffffffffffffffffffffffffffffffffff168173ffffffffffffffffffffffffffffffffffffffff1603610b75575f6040517f1e4fbdf7000000000000000000000000000000000000000000000000000000008152600401610b6c91906123f0565b60405180910390fd5b610b7e81610ef4565b50565b5f7f01ffc9a7000000000000000000000000000000000000000000000000000000007bffffffffffffffffffffffffffffffffffffffffffffffffffffffff1916827bffffffffffffffffffffffffffffffffffffffffffffffffffffffff1916149050919050565b50565b60605f6001610bfb84611226565b0190505f8167ffffffffffffffff811115610c1957610c18611ddb565b5b6040519080825280601f01601f191660200182016040528015610c4b5781602001600182028036833780820191505090505b5090505f82602083010190505b600115610cac578080600190039150507f3031323334353637383961626364656600000000000000000000000000000000600a86061a8153600a8581610ca157610ca06129ca565b5b0494505f8503610c58575b819350505050919050565b610cbf610dd3565b73ffffffffffffffffffffffffffffffffffffffff16610cdd6108fe565b73ffffffffffffffffffffffffffffffffffffffff1614610d3c57610d00610dd3565b6040517f118cdaa7000000000000000000000000000000000000000000000000000000008152600401610d3391906123f0565b60405180910390fd5b565b5f73ffffffffffffffffffffffffffffffffffffffff168473ffffffffffffffffffffffffffffffffffffffff1603610dae575f6040517f57f447ce000000000000000000000000000000000000000000000000000000008152600401610da591906123f0565b60405180910390fd5b5f80610dba8585611377565b91509150610dcb5f878484876113a7565b505050505050565b5f33905090565b5f73ffffffffffffffffffffffffffffffffffffffff168473ffffffffffffffffffffffffffffffffffffffff1603610e4a575f6040517f57f447ce000000000000000000000000000000000000000000000000000000008152600401610e4191906123f0565b60405180910390fd5b5f73ffffffffffffffffffffffffffffffffffffffff168573ffffffffffffffffffffffffffffffffffffffff1603610eba575f6040517f01a83514000000000000000000000000000000000000000000000000000000008152600401610eb191906123f0565b60405180910390fd5b610ec785858585856113a7565b5050505050565b5f60208202602084010151905092915050565b5f60208202602084010151905092915050565b5f60035f9054906101000a900473ffffffffffffffffffffffffffffffffffffffff1690508160035f6101000a81548173ffffffffffffffffffffffffffffffffffffffff021916908373ffffffffffffffffffffffffffffffffffffffff1602179055508173ffffffffffffffffffffffffffffffffffffffff168173ffffffffffffffffffffffffffffffffffffffff167f8be0079c531659141344cd1fd0a4f28419497f9722a3daafe3b4186f6b6457e060405160405180910390a35050565b5f73ffffffffffffffffffffffffffffffffffffffff168273ffffffffffffffffffffffffffffffffffffffff1603611027575f6040517fced3e10000000000000000000000000000000000000000000000000000000000815260040161101e91906123f0565b60405180910390fd5b8060015f8573ffffffffffffffffffffffffffffffffffffffff1673ffffffffffffffffffffffffffffffffffffffff1681526020019081526020015f205f8473ffffffffffffffffffffffffffffffffffffffff1673ffffffffffffffffffffffffffffffffffffffff1681526020019081526020015f205f6101000a81548160ff0219169083151502179055508173ffffffffffffffffffffffffffffffffffffffff168373ffffffffffffffffffffffffffffffffffffffff167f17307eab39ab6107e8899845ad3d59bd9653f200f220920489ca2b5937696c31836040516111139190611ce5565b60405180910390a3505050565b5f73ffffffffffffffffffffffffffffffffffffffff168473ffffffffffffffffffffffffffffffffffffffff1603611190575f6040517f57f447ce00000000000000000000000000000000000000000000000000000000815260040161118791906123f0565b60405180910390fd5b5f73ffffffffffffffffffffffffffffffffffffffff168573ffffffffffffffffffffffffffffffffffffffff1603611200575f6040517f01a835140000000000000000000000000000000000000000000000000000000081526004016111f791906123f0565b60405180910390fd5b5f8061120c8585611377565b9150915061121d87878484876113a7565b50505050505050565b5f805f90507a184f03e93ff9f4daa797ed6e38ed64bf6a1f0100000000000000008310611282577a184f03e93ff9f4daa797ed6e38ed64bf6a1f0100000000000000008381611278576112776129ca565b5b0492506040810190505b6d04ee2d6d415b85acef810000000083106112bf576d04ee2d6d415b85acef810000000083816112b5576112b46129ca565b5b0492506020810190505b662386f26fc1000083106112ee57662386f26fc1000083816112e4576112e36129ca565b5b0492506010810190505b6305f5e1008310611317576305f5e100838161130d5761130c6129ca565b5b0492506008810190505b612710831061133c576127108381611332576113316129ca565b5b0492506004810190505b6064831061135f5760648381611355576113546129ca565b5b0492506002810190505b600a831061136e576001810190505b80915050919050565b60608060405191506001825283602083015260408201905060018152826020820152604081016040529250929050565b6113b385858585611453565b5f73ffffffffffffffffffffffffffffffffffffffff168473ffffffffffffffffffffffffffffffffffffffff161461144c575f6113ef610dd3565b9050600184510361143b575f61140e5f86610ee190919063ffffffff16565b90505f6114245f86610ee190919063ffffffff16565b90506114348389898585896117e9565b505061144a565b611449818787878787611998565b5b505b5050505050565b805182511461149d57815181516040517f5b059991000000000000000000000000000000000000000000000000000000008152600401611494929190612976565b60405180910390fd5b5f6114a6610dd3565b90505f5b83518110156116a8575f6114c78286610ee190919063ffffffff16565b90505f6114dd8386610ee190919063ffffffff16565b90505f73ffffffffffffffffffffffffffffffffffffffff168873ffffffffffffffffffffffffffffffffffffffff1614611600575f805f8481526020019081526020015f205f8a73ffffffffffffffffffffffffffffffffffffffff1673ffffffffffffffffffffffffffffffffffffffff1681526020019081526020015f20549050818110156115ac57888183856040517f03dee4c50000000000000000000000000000000000000000000000000000000081526004016115a394939291906129f7565b60405180910390fd5b8181035f808581526020019081526020015f205f8b73ffffffffffffffffffffffffffffffffffffffff1673ffffffffffffffffffffffffffffffffffffffff1681526020019081526020015f2081905550505b5f73ffffffffffffffffffffffffffffffffffffffff168773ffffffffffffffffffffffffffffffffffffffff161461169557805f808481526020019081526020015f205f8973ffffffffffffffffffffffffffffffffffffffff1673ffffffffffffffffffffffffffffffffffffffff1681526020019081526020015f205f82825461168d9190612a3a565b925050819055505b5050806116a190612908565b90506114aa565b506001835103611763575f6116c65f85610ee190919063ffffffff16565b90505f6116dc5f85610ee190919063ffffffff16565b90508573ffffffffffffffffffffffffffffffffffffffff168773ffffffffffffffffffffffffffffffffffffffff168473ffffffffffffffffffffffffffffffffffffffff167fc3d58168c5ae7397731d063d5bbf3d657854427343f4c083240f7aacaa2d0f628585604051611754929190612976565b60405180910390a450506117e2565b8373ffffffffffffffffffffffffffffffffffffffff168573ffffffffffffffffffffffffffffffffffffffff168273ffffffffffffffffffffffffffffffffffffffff167f4a39dc06d4c0dbc64b70af90fd698a233a518aa5d07e595d983b8c0526c8f7fb86866040516117d9929190612a6d565b60405180910390a45b5050505050565b5f8473ffffffffffffffffffffffffffffffffffffffff163b1115611990578373ffffffffffffffffffffffffffffffffffffffff1663f23a6e6187878686866040518663ffffffff1660e01b8152600401611849959493929190612af4565b6020604051808303815f875af192505050801561188457506040513d601f19601f820116820180604052508101906118819190612b60565b60015b611905573d805f81146118b2576040519150601f19603f3d011682016040523d82523d5f602084013e6118b7565b606091505b505f8151036118fd57846040517f57f447ce0000000000000000000000000000000000000000000000000000000081526004016118f491906123f0565b60405180910390fd5b805160208201fd5b63f23a6e6160e01b7bffffffffffffffffffffffffffffffffffffffffffffffffffffffff1916817bffffffffffffffffffffffffffffffffffffffffffffffffffffffff19161461198e57846040517f57f447ce00000000000000000000000000000000000000000000000000000000815260040161198591906123f0565b60405180910390fd5b505b505050505050565b5f8473ffffffffffffffffffffffffffffffffffffffff163b1115611b3f578373ffffffffffffffffffffffffffffffffffffffff1663bc197c8187878686866040518663ffffffff1660e01b81526004016119f8959493929190612b8b565b6020604051808303815f875af1925050508015611a3357506040513d601f19601f82011682018060405250810190611a309190612b60565b60015b611ab4573d805f8114611a61576040519150601f19603f3d011682016040523d82523d5f602084013e611a66565b606091505b505f815103611aac57846040517f57f447ce000000000000000000000000000000000000000000000000000000008152600401611aa391906123f0565b60405180910390fd5b805160208201fd5b63bc197c8160e01b7bffffffffffffffffffffffffffffffffffffffffffffffffffffffff1916817bffffffffffffffffffffffffffffffffffffffffffffffffffffffff191614611b3d57846040517f57f447ce000000000000000000000000000000000000000000000000000000008152600401611b3491906123f0565b60405180910390fd5b505b505050505050565b5f604051905090565b5f80fd5b5f80fd5b5f73ffffffffffffffffffffffffffffffffffffffff82169050919050565b5f611b8182611b58565b9050919050565b611b9181611b77565b8114611b9b575f80fd5b50565b5f81359050611bac81611b88565b92915050565b5f819050919050565b611bc481611bb2565b8114611bce575f80fd5b50565b5f81359050611bdf81611bbb565b92915050565b5f8060408385031215611bfb57611bfa611b50565b5b5f611c0885828601611b9e565b9250506020611c1985828601611bd1565b9150509250929050565b611c2c81611bb2565b82525050565b5f602082019050611c455f830184611c23565b92915050565b5f7fffffffff0000000000000000000000000000000000000000000000000000000082169050919050565b611c7f81611c4b565b8114611c89575f80fd5b50565b5f81359050611c9a81611c76565b92915050565b5f60208284031215611cb557611cb4611b50565b5b5f611cc284828501611c8c565b91505092915050565b5f8115159050919050565b611cdf81611ccb565b82525050565b5f602082019050611cf85f830184611cd6565b92915050565b5f81519050919050565b5f82825260208201905092915050565b5f5b83811015611d35578082015181840152602081019050611d1a565b5f8484015250505050565b5f601f19601f8301169050919050565b5f611d5a82611cfe565b611d648185611d08565b9350611d74818560208601611d18565b611d7d81611d40565b840191505092915050565b5f6020820190508181035f830152611da08184611d50565b905092915050565b5f60208284031215611dbd57611dbc611b50565b5b5f611dca84828501611bd1565b91505092915050565b5f80fd5b5f80fd5b7f4e487b71000000000000000000000000000000000000000000000000000000005f52604160045260245ffd5b611e1182611d40565b810181811067ffffffffffffffff82111715611e3057611e2f611ddb565b5b80604052505050565b5f611e42611b47565b9050611e4e8282611e08565b919050565b5f67ffffffffffffffff821115611e6d57611e6c611ddb565b5b611e7682611d40565b9050602081019050919050565b828183375f83830152505050565b5f611ea3611e9e84611e53565b611e39565b905082815260208101848484011115611ebf57611ebe611dd7565b5b611eca848285611e83565b509392505050565b5f82601f830112611ee657611ee5611dd3565b5b8135611ef6848260208601611e91565b91505092915050565b5f805f60608486031215611f1657611f15611b50565b5b5f84013567ffffffffffffffff811115611f3357611f32611b54565b5b611f3f86828701611ed2565b9350506020611f5086828701611bd1565b9250506040611f6186828701611bd1565b9150509250925092565b5f67ffffffffffffffff821115611f8557611f84611ddb565b5b602082029050602081019050919050565b5f80fd5b5f611fac611fa784611f6b565b611e39565b90508083825260208201905060208402830185811115611fcf57611fce611f96565b5b835b81811015611ff85780611fe48882611bd1565b845260208401935050602081019050611fd1565b5050509392505050565b5f82601f83011261201657612015611dd3565b5b8135612026848260208601611f9a565b91505092915050565b5f67ffffffffffffffff82111561204957612048611ddb565b5b61205282611d40565b9050602081019050919050565b5f61207161206c8461202f565b611e39565b90508281526020810184848401111561208d5761208c611dd7565b5b612098848285611e83565b509392505050565b5f82601f8301126120b4576120b3611dd3565b5b81356120c484826020860161205f565b91505092915050565b5f805f805f60a086880312156120e6576120e5611b50565b5b5f6120f388828901611b9e565b955050602061210488828901611b9e565b945050604086013567ffffffffffffffff81111561212557612124611b54565b5b61213188828901612002565b935050606086013567ffffffffffffffff81111561215257612151611b54565b5b61215e88828901612002565b925050608086013567ffffffffffffffff81111561217f5761217e611b54565b5b61218b888289016120a0565b9150509295509295909350565b5f67ffffffffffffffff8211156121b2576121b1611ddb565b5b602082029050602081019050919050565b5f6121d56121d084612198565b611e39565b905080838252602082019050602084028301858111156121f8576121f7611f96565b5b835b81811015612221578061220d8882611b9e565b8452602084019350506020810190506121fa565b5050509392505050565b5f82601f83011261223f5761223e611dd3565b5b813561224f8482602086016121c3565b91505092915050565b5f806040838503121561226e5761226d611b50565b5b5f83013567ffffffffffffffff81111561228b5761228a611b54565b5b6122978582860161222b565b925050602083013567ffffffffffffffff8111156122b8576122b7611b54565b5b6122c485828601612002565b9150509250929050565b5f81519050919050565b5f82825260208201905092915050565b5f819050602082019050919050565b61230081611bb2565b82525050565b5f61231183836122f7565b60208301905092915050565b5f602082019050919050565b5f612333826122ce565b61233d81856122d8565b9350612348836122e8565b805f5b8381101561237857815161235f8882612306565b975061236a8361231d565b92505060018101905061234b565b5085935050505092915050565b5f6020820190508181035f83015261239d8184612329565b905092915050565b5f6060820190508181035f8301526123bd8186611d50565b90506123cc6020830185611c23565b6123d96040830184611c23565b949350505050565b6123ea81611b77565b82525050565b5f6020820190506124035f8301846123e1565b92915050565b61241281611ccb565b811461241c575f80fd5b50565b5f8135905061242d81612409565b92915050565b5f806040838503121561244957612448611b50565b5b5f61245685828601611b9e565b92505060206124678582860161241f565b9150509250929050565b5f806040838503121561248757612486611b50565b5b5f61249485828601611b9e565b92505060206124a585828601611b9e565b9150509250929050565b5f805f805f60a086880312156124c8576124c7611b50565b5b5f6124d588828901611b9e565b95505060206124e688828901611b9e565b94505060406124f788828901611bd1565b935050606061250888828901611bd1565b925050608086013567ffffffffffffffff81111561252957612528611b54565b5b612535888289016120a0565b9150509295509295909350565b5f6020828403121561255757612556611b50565b5b5f61256484828501611b9e565b91505092915050565b7f4e487b71000000000000000000000000000000000000000000000000000000005f52602260045260245ffd5b5f60028204905060018216806125b157607f821691505b6020821081036125c4576125c361256d565b5b50919050565b5f81905092915050565b7f68747470733a2f2f6170692e6167726f66692e636f6d2f6d657461646174612f5f82015250565b5f6126086020836125ca565b9150612613826125d4565b602082019050919050565b5f61262882611cfe565b61263281856125ca565b9350612642818560208601611d18565b80840191505092915050565b5f612658826125fc565b9150612664828461261e565b915081905092915050565b5f819050815f5260205f209050919050565b5f6020601f8301049050919050565b5f82821b905092915050565b5f600883026126cb7fffffffffffffffffffffffffffffffffffffffffffffffffffffffffffffffff82612690565b6126d58683612690565b95508019841693508086168417925050509392505050565b5f819050919050565b5f61271061270b61270684611bb2565b6126ed565b611bb2565b9050919050565b5f819050919050565b612729836126f6565b61273d61273582612717565b84845461269c565b825550505050565b5f90565b612751612745565b61275c818484612720565b505050565b5b8181101561277f576127745f82612749565b600181019050612762565b5050565b601f8211156127c4576127958161266f565b61279e84612681565b810160208510156127ad578190505b6127c16127b985612681565b830182612761565b50505b505050565b5f82821c905092915050565b5f6127e45f19846008026127c9565b1980831691505092915050565b5f6127fc83836127d5565b9150826002028217905092915050565b61281582611cfe565b67ffffffffffffffff81111561282e5761282d611ddb565b5b612838825461259a565b612843828285612783565b5f60209050601f831160018114612874575f8415612862578287015190505b61286c85826127f1565b8655506128d3565b601f1984166128828661266f565b5f5b828110156128a957848901518255600182019150602085019450602081019050612884565b868310156128c657848901516128c2601f8916826127d5565b8355505b6001600288020188555050505b505050505050565b7f4e487b71000000000000000000000000000000000000000000000000000000005f52601160045260245ffd5b5f61291282611bb2565b91507fffffffffffffffffffffffffffffffffffffffffffffffffffffffffffffffff8203612944576129436128db565b5b600182019050919050565b5f6040820190506129625f8301856123e1565b61296f60208301846123e1565b9392505050565b5f6040820190506129895f830185611c23565b6129966020830184611c23565b9392505050565b7f4e487b71000000000000000000000000000000000000000000000000000000005f52603260045260245ffd5b7f4e487b71000000000000000000000000000000000000000000000000000000005f52601260045260245ffd5b5f608082019050612a0a5f8301876123e1565b612a176020830186611c23565b612a246040830185611c23565b612a316060830184611c23565b95945050505050565b5f612a4482611bb2565b9150612a4f83611bb2565b9250828201905080821115612a6757612a666128db565b5b92915050565b5f6040820190508181035f830152612a858185612329565b90508181036020830152612a998184612329565b90509392505050565b5f81519050919050565b5f82825260208201905092915050565b5f612ac682612aa2565b612ad08185612aac565b9350612ae0818560208601611d18565b612ae981611d40565b840191505092915050565b5f60a082019050612b075f8301886123e1565b612b1460208301876123e1565b612b216040830186611c23565b612b2e6060830185611c23565b8181036080830152612b408184612abc565b90509695505050505050565b5f81519050612b5a81611c76565b92915050565b5f60208284031215612b7557612b74611b50565b5b5f612b8284828501612b4c565b91505092915050565b5f60a082019050612b9e5f8301886123e1565b612bab60208301876123e1565b8181036040830152612bbd8186612329565b90508181036060830152612bd18185612329565b90508181036080830152612be58184612abc565b9050969550505050505056fea264697066735822122005e5b3c3c2dbb1894cf4250cc907f763292949a67b8f78abaf63cf563ea0c13a64736f6c63430008140033",
  "linkReferences": {},
  "deployedLinkReferences": {}
}