{
  "_format": "hh-sol-artifact-1",
  "contractName": "AgroLendingPool",
  "sourceName": "contracts/AgroLendingPool.sol",
  "abi": [
    {
      "inputs": [
        {
          "internalType": "address",
          "name": "_usdc",
          "type": "address"
        },
        {
          "internalType": "address",
          "name": "_agroToken",
          "type": "address"
        }
      ],
      "stateMutability": "nonpayable",
      "type": "constructor"
    },
    {
      "inputs": [],
      "name": "EnforcedPause",
      "type": "error"
    },
    {
      "inputs": [],
      "name": "ExpectedPause",
      "type": "error"
    },
    {
      "inputs": [
        {
          "internalType": "address",
          "name": "owner",
          "type": "address"
        }
      ],
      "name": "OwnableInvalidOwner",
      "type": "error"
    },
    {
      "inputs": [
        {
          "internalType": "address",
          "name": "account",
          "type": "address"
        }
      ],
      "name": "OwnableUnauthorizedAccount",
      "type": "error"
    },
    {
      "inputs": [],
      "name": "ReentrancyGuardReentrantCall",
      "type": "error"
    },
    {
      "anonymous": false,
      "inputs": [
        {
          "indexed": true,
          "internalType": "address",
          "name": "user",
          "type": "address"
        },
        {
          "indexed": true,
          "internalType": "address",
          "name": "liquidator",
          "type": "address"
        }
      ],
      "name": "LoanLiquidated",
      "type": "event"
    },
    {
      "anonymous": false,
      "inputs": [
        {
          "indexed": true,
          "internalType": "address",
          "name": "user",
          "type": "address"
        },
        {
          "indexed": false,
          "internalType": "uint256",
          "name": "amount",
          "type": "uint256"
        }
      ],
      "name": "LoanRepaid",
      "type": "event"
    },
    {
      "anonymous": false,
      "inputs": [
        {
          "indexed": true,
          "internalType": "address",
          "name": "user",
          "type": "address"
        },
        {
          "indexed": false,
          "internalType": "uint256",
          "name": "amount",
          "type": "uint256"
        }
      ],
      "name": "LoanTaken",
      "type": "event"
    },
    {
      "anonymous": false,
      "inputs": [
        {
          "indexed": true,
          "internalType": "address",
          "name": "previousOwner",
          "type": "address"
        },
        {
          "indexed": true,
          "internalType": "address",
          "name": "newOwner",
          "type": "address"
        }
      ],
      "name": "OwnershipTransferred",
      "type": "event"
    },
    {
      "anonymous": false,
      "inputs": [
        {
          "indexed": false,
          "internalType": "address",
          "name": "account",
          "type": "address"
        }
      ],
      "name": "Paused",
      "type": "event"
    },
    {
      "anonymous": false,
      "inputs": [
        {
          "indexed": false,
          "internalType": "address",
          "name": "account",
          "type": "address"
        }
      ],
      "name": "Unpaused",
      "type": "event"
    },
    {
      "inputs": [],
      "name": "BASIS_POINTS",
      "outputs": [
        {
          "internalType": "uint256",
          "name": "",
          "type": "uint256"
        }
      ],
      "stateMutability": "view",
      "type": "function"
    },
    {
      "inputs": [],
      "name": "INTEREST_RATE_BP",
      "outputs": [
        {
          "internalType": "uint256",
          "name": "",
          "type": "uint256"
        }
      ],
      "stateMutability": "view",
      "type": "function"
    },
    {
      "inputs": [],
      "name": "SECONDS_PER_YEAR",
      "outputs": [
        {
          "internalType": "uint256",
          "name": "",
          "type": "uint256"
        }
      ],
      "stateMutability": "view",
      "type": "function"
    },
    {
      "inputs": [],
      "name": "VALOR_POR_FRACCION",
      "outputs": [
        {
          "internalType": "uint256",
          "name": "",
          "type": "uint256"
        }
      ],
      "stateMutability": "view",
      "type": "function"
    },
    {
      "inputs": [],
      "name": "agroToken",
      "outputs": [
        {
          "internalType": "contract IERC1155",
          "name": "",
          "type": "address"
        }
      ],
      "stateMutability": "view",
      "type": "function"
    },
    {
      "inputs": [],
      "name": "baseLTV",
      "outputs": [
        {
          "internalType": "uint256",
          "name": "",
          "type": "uint256"
        }
      ],
      "stateMutability": "view",
      "type": "function"
    },
    {
      "inputs": [
        {
          "internalType": "address",
          "name": "_user",
          "type": "address"
        },
        {
          "internalType": "uint256",
          "name": "_assetId",
          "type": "uint256"
        }
      ],
      "name": "checkHealth",
      "outputs": [
        {
          "internalType": "bool",
          "name": "",
          "type": "bool"
        }
      ],
      "stateMutability": "view",
      "type": "function"
    },
    {
      "inputs": [
        {
          "internalType": "uint256",
          "name": "_assetId",
          "type": "uint256"
        },
        {
          "internalType": "uint256",
          "name": "_amountCollateral",
          "type": "uint256"
        }
      ],
      "name": "depositAndBorrow",
      "outputs": [],
      "stateMutability": "nonpayable",
      "type": "function"
    },
    {
      "inputs": [
        {
          "internalType": "address",
          "name": "_user",
          "type": "address"
        },
        {
          "internalType": "uint256",
          "name": "_assetId",
          "type": "uint256"
        }
      ],
      "name": "getTotalDue",
      "outputs": [
        {
          "internalType": "uint256",
          "name": "",
          "type": "uint256"
        }
      ],
      "stateMutability": "view",
      "type": "function"
    },
    {
      "inputs": [
        {
          "internalType": "address",
          "name": "_user",
          "type": "address"
        },
        {
          "internalType": "uint256",
          "name": "_assetId",
          "type": "uint256"
        }
      ],
      "name": "liquidate",
      "outputs": [],
      "stateMutability": "nonpayable",
      "type": "function"
    },
    {
      "inputs": [
        {
          "internalType": "address",
          "name": "",
          "type": "address"
        },
        {
          "internalType": "uint256",
          "name": "",
          "type": "uint256"
        }
      ],
      "name": "loans",
      "outputs": [
        {
          "internalType": "uint256",
          "name": "collateralAmount",
          "type": "uint256"
        },
        {
          "internalType": "uint256",
          "name": "principal",
          "type": "uint256"
        },
        {
          "internalType": "uint256",
          "name": "startTime",
          "type": "uint256"
        },
        {
          "internalType": "bool",
          "name": "isActive",
          "type": "bool"
        }
      ],
      "stateMutability": "view",
      "type": "function"
    },
    {
      "inputs": [
        {
          "internalType": "address",
          "name": "",
          "type": "address"
        },
        {
          "internalType": "address",
          "name": "",
          "type": "address"
        },
        {
          "internalType": "uint256[]",
          "name": "",
          "type": "uint256[]"
        },
        {
          "internalType": "uint256[]",
          "name": "",
          "type": "uint256[]"
        },
        {
          "internalType": "bytes",
          "name": "",
          "type": "bytes"
        }
      ],
      "name": "onERC1155BatchReceived",
      "outputs": [
        {
          "internalType": "bytes4",
          "name": "",
          "type": "bytes4"
        }
      ],
      "stateMutability": "nonpayable",
      "type": "function"
    },
    {
      "inputs": [
        {
          "internalType": "address",
          "name": "",
          "type": "address"
        },
        {
          "internalType": "address",
          "name": "",
          "type": "address"
        },
        {
          "internalType": "uint256",
          "name": "",
          "type": "uint256"
        },
        {
          "internalType": "uint256",
          "name": "",
          "type": "uint256"
        },
        {
          "internalType": "bytes",
          "name": "",
          "type": "bytes"
        }
      ],
      "name": "onERC1155Received",
      "outputs": [
        {
          "internalType": "bytes4",
          "name": "",
          "type": "bytes4"
        }
      ],
      "stateMutability": "nonpayable",
      "type": "function"
    },
    {
      "inputs": [],
      "name": "owner",
      "outputs": [
        {
          "internalType": "address",
          "name": "",
          "type": "address"
        }
      ],
      "stateMutability": "view",
      "type": "function"
    },
    {
      "inputs": [],
      "name": "paused",
      "outputs": [
        {
          "internalType": "bool",
          "name": "",
          "type": "bool"
        }
      ],
      "stateMutability": "view",
      "type": "function"
    },
    {
      "inputs": [],
      "name": "renounceOwnership",
      "outputs": [],
      "stateMutability": "nonpayable",
      "type": "function"
    },
    {
      "inputs": [
        {
          "internalType": "uint256",
          "name": "_assetId",
          "type": "uint256"
        }
      ],
      "name": "repayLoan",
      "outputs": [],
      "stateMutability": "nonpayable",
      "type": "function"
    },
    {
      "inputs": [
        {
          "internalType": "bytes4",
          "name": "interfaceId",
          "type": "bytes4"
        }
      ],
      "name": "supportsInterface",
      "outputs": [
        {
          "internalType": "bool",
          "name": "",
          "type": "bool"
        }
      ],
      "stateMutability": "view",
      "type": "function"
    },
    {
      "inputs": [
        {
          "internalType": "address",
          "name": "newOwner",
          "type": "address"
        }
      ],
      "name": "transferOwnership",
      "outputs": [],
      "stateMutability": "nonpayable",
      "type": "function"
    },
    {
      "inputs": [],
      "name": "usdcToken",
      "outputs": [
        {
          "internalType": "contract IERC20",
          "name": "",
          "type": "address"
        }
      ],
      "stateMutability": "view",
      "type": "function"
    }
  ],
  "bytecode": "0x60c0604052611b586003553480156200001757600080fd5b50604051620022a4380380620022a483398181016040528101906200003d91906200026a565b336001600081905550600073ffffffffffffffffffffffffffffffffffffffff168173ffffffffffffffffffffffffffffffffffffffff1603620000bb5760006040517f1e4fbdf7000000000000000000000000000000000000000000000000000000008152600401620000b29190620002c2565b60405180910390fd5b620000cc816200013d60201b60201c565b508173ffffffffffffffffffffffffffffffffffffffff1660808173ffffffffffffffffffffffffffffffffffffffff16815250508073ffffffffffffffffffffffffffffffffffffffff1660a08173ffffffffffffffffffffffffffffffffffffffff16815250505050620002df565b600060018054906101000a900473ffffffffffffffffffffffffffffffffffffffff169050816001806101000a81548173ffffffffffffffffffffffffffffffffffffffff021916908373ffffffffffffffffffffffffffffffffffffffff1602179055508173ffffffffffffffffffffffffffffffffffffffff168173ffffffffffffffffffffffffffffffffffffffff167f8be0079c531659141344cd1fd0a4f28419497f9722a3daafe3b4186f6b6457e060405160405180910390a35050565b600080fd5b600073ffffffffffffffffffffffffffffffffffffffff82169050919050565b6000620002328262000205565b9050919050565b620002448162000225565b81146200025057600080fd5b50565b600081519050620002648162000239565b92915050565b6000806040838503121562000284576200028362000200565b5b6000620002948582860162000253565b9250506020620002a78582860162000253565b9150509250929050565b620002bc8162000225565b82525050565b6000602082019050620002d96000830184620002b1565b92915050565b60805160a051611f756200032f6000396000818161047c0152818161072d01528181610a680152610ebf0152600081816104580152818161068c01528181610be20152610cbd0152611f756000f3fe608060405234801561001057600080fd5b506004361061012c5760003560e01c8063b75061bb116100ad578063deef07b011610071578063deef07b014610324578063e1f1c4a714610354578063e6a69ab814610372578063f23a6e6114610390578063f2fde38b146103c05761012c565b8063b75061bb14610280578063b79c98261461029c578063b8e7f890146102ba578063bc197c81146102d8578063bcbaf487146103085761012c565b80637e074789116100f45780637e074789146101c55780638da5cb5b146101e357806398c61c3714610201578063ab7b1c8914610234578063b30d7ac8146102505761012c565b806301ffc9a71461013157806311eac855146101615780634bfccac41461017f5780635c975abb1461019d578063715018a6146101bb575b600080fd5b61014b600480360381019061014691906113fd565b6103dc565b6040516101589190611445565b60405180910390f35b610169610456565b60405161017691906114df565b60405180910390f35b61018761047a565b604051610194919061151b565b60405180910390f35b6101a561049e565b6040516101b29190611445565b60405180910390f35b6101c36104b5565b005b6101cd6104c9565b6040516101da919061154f565b60405180910390f35b6101eb6104cf565b6040516101f8919061158b565b60405180910390f35b61021b600480360381019061021691906115fe565b6104f7565b60405161022b949392919061163e565b60405180910390f35b61024e60048036038101906102499190611683565b610541565b005b61026a600480360381019061026591906115fe565b61089c565b604051610277919061154f565b60405180910390f35b61029a600480360381019061029591906116b0565b6109b5565b005b6102a4610db6565b6040516102b1919061154f565b60405180910390f35b6102c2610dbc565b6040516102cf919061154f565b60405180910390f35b6102f260048036038101906102ed91906118fe565b610dc4565b6040516102ff91906119dc565b60405180910390f35b610322600480360381019061031d91906115fe565b610dd9565b005b61033e600480360381019061033991906115fe565b611030565b60405161034b9190611445565b60405180910390f35b61035c61109b565b604051610369919061154f565b60405180910390f35b61037a6110a1565b604051610387919061154f565b60405180910390f35b6103aa60048036038101906103a591906119f7565b6110a9565b6040516103b791906119dc565b60405180910390f35b6103da60048036038101906103d59190611a8e565b6110be565b005b60007f4e2312e0000000000000000000000000000000000000000000000000000000007bffffffffffffffffffffffffffffffffffffffffffffffffffffffff1916827bffffffffffffffffffffffffffffffffffffffffffffffffffffffff1916148061044f575061044e82611144565b5b9050919050565b7f000000000000000000000000000000000000000000000000000000000000000081565b7f000000000000000000000000000000000000000000000000000000000000000081565b6000600160009054906101000a900460ff16905090565b6104bd6111ae565b6104c76000611235565b565b60035481565b600060018054906101000a900473ffffffffffffffffffffffffffffffffffffffff16905090565b6002602052816000526040600020602052806000526040600020600091509150508060000154908060010154908060020154908060030160009054906101000a900460ff16905084565b6105496112f8565b6000600260003373ffffffffffffffffffffffffffffffffffffffff1673ffffffffffffffffffffffffffffffffffffffff16815260200190815260200160002060008381526020019081526020016000206040518060800160405290816000820154815260200160018201548152602001600282015481526020016003820160009054906101000a900460ff16151515158152505090508060600151610625576040517f08c379a000000000000000000000000000000000000000000000000000000000815260040161061c90611b18565b60405180910390fd5b60008160400151426106379190611b67565b905060006127106301e1338061064d9190611b9b565b826101f485602001516106609190611b9b565b61066a9190611b9b565b6106749190611c0c565b905060008184602001516106889190611c3d565b90507f000000000000000000000000000000000000000000000000000000000000000073ffffffffffffffffffffffffffffffffffffffff166323b872dd3330846040518463ffffffff1660e01b81526004016106e793929190611c71565b6020604051808303816000875af1158015610706573d6000803e3d6000fd5b505050506040513d601f19601f8201168201806040525081019061072a9190611cd4565b507f000000000000000000000000000000000000000000000000000000000000000073ffffffffffffffffffffffffffffffffffffffff1663f242432a30338888600001516040518563ffffffff1660e01b815260040161078e9493929190611d38565b600060405180830381600087803b1580156107a857600080fd5b505af11580156107bc573d6000803e3d6000fd5b50505050600260003373ffffffffffffffffffffffffffffffffffffffff1673ffffffffffffffffffffffffffffffffffffffff1681526020019081526020016000206000868152602001908152602001600020600080820160009055600182016000905560028201600090556003820160006101000a81549060ff021916905550503373ffffffffffffffffffffffffffffffffffffffff167fc200a1f31dd659e356e0f112c82558e25f49f7b0f84438691cd96f5cb355882382604051610885919061154f565b60405180910390a25050505061089961133e565b50565b600080600260008573ffffffffffffffffffffffffffffffffffffffff1673ffffffffffffffffffffffffffffffffffffffff16815260200190815260200160002060008481526020019081526020016000206040518060800160405290816000820154815260200160018201548152602001600282015481526020016003820160009054906101000a900460ff161515151581525050905080606001516109485760009150506109af565b600081604001514261095a9190611b67565b905060006127106301e133806109709190611b9b565b826101f485602001516109839190611b9b565b61098d9190611b9b565b6109979190611c0c565b90508083602001516109a99190611c3d565b93505050505b92915050565b6109bd6112f8565b6109c5611348565b600260003373ffffffffffffffffffffffffffffffffffffffff1673ffffffffffffffffffffffffffffffffffffffff168152602001908152602001600020600083815260200190815260200160002060030160009054906101000a900460ff1615610a66576040517f08c379a0000000000000000000000000000000000000000000000000000000008152600401610a5d90611ddc565b60405180910390fd5b7f000000000000000000000000000000000000000000000000000000000000000073ffffffffffffffffffffffffffffffffffffffff1663f242432a333085856040518563ffffffff1660e01b8152600401610ac59493929190611d38565b600060405180830381600087803b158015610adf57600080fd5b505af1158015610af3573d6000803e3d6000fd5b505050506000631dcd650082610b099190611b9b565b9050600061271060035483610b1e9190611b9b565b610b289190611c0c565b9050604051806080016040528084815260200182815260200142815260200160011515815250600260003373ffffffffffffffffffffffffffffffffffffffff1673ffffffffffffffffffffffffffffffffffffffff168152602001908152602001600020600086815260200190815260200160002060008201518160000155602082015181600101556040820151816002015560608201518160030160006101000a81548160ff021916908315150217905550905050807f000000000000000000000000000000000000000000000000000000000000000073ffffffffffffffffffffffffffffffffffffffff166370a08231306040518263ffffffff1660e01b8152600401610c39919061158b565b602060405180830381865afa158015610c56573d6000803e3d6000fd5b505050506040513d601f19601f82011682018060405250810190610c7a9190611e11565b1015610cbb576040517f08c379a0000000000000000000000000000000000000000000000000000000008152600401610cb290611e8a565b60405180910390fd5b7f000000000000000000000000000000000000000000000000000000000000000073ffffffffffffffffffffffffffffffffffffffff1663a9059cbb33836040518363ffffffff1660e01b8152600401610d16929190611eaa565b6020604051808303816000875af1158015610d35573d6000803e3d6000fd5b505050506040513d601f19601f82011682018060405250810190610d599190611cd4565b503373ffffffffffffffffffffffffffffffffffffffff167fd5c776eab9418d89c040ffee59f2310d225f5ff682191bcee59b0413a7fd483582604051610da0919061154f565b60405180910390a25050610db261133e565b5050565b6101f481565b631dcd650081565b600063bc197c8160e01b905095945050505050565b610de16111ae565b6000600260008473ffffffffffffffffffffffffffffffffffffffff1673ffffffffffffffffffffffffffffffffffffffff16815260200190815260200160002060008381526020019081526020016000206040518060800160405290816000820154815260200160018201548152602001600282015481526020016003820160009054906101000a900460ff16151515158152505090508060600151610ebd576040517f08c379a0000000000000000000000000000000000000000000000000000000008152600401610eb490611f1f565b60405180910390fd5b7f000000000000000000000000000000000000000000000000000000000000000073ffffffffffffffffffffffffffffffffffffffff1663f242432a30338585600001516040518563ffffffff1660e01b8152600401610f209493929190611d38565b600060405180830381600087803b158015610f3a57600080fd5b505af1158015610f4e573d6000803e3d6000fd5b50505050600260008473ffffffffffffffffffffffffffffffffffffffff1673ffffffffffffffffffffffffffffffffffffffff1681526020019081526020016000206000838152602001908152602001600020600080820160009055600182016000905560028201600090556003820160006101000a81549060ff021916905550503373ffffffffffffffffffffffffffffffffffffffff168373ffffffffffffffffffffffffffffffffffffffff167f81a82e67595dbd39318f981107a62c3dd01327eb6236903c29c05a16b993b6d260405160405180910390a3505050565b6000600260008473ffffffffffffffffffffffffffffffffffffffff1673ffffffffffffffffffffffffffffffffffffffff168152602001908152602001600020600083815260200190815260200160002060030160009054906101000a900460ff16905092915050565b61271081565b6301e1338081565b600063f23a6e6160e01b905095945050505050565b6110c66111ae565b600073ffffffffffffffffffffffffffffffffffffffff168173ffffffffffffffffffffffffffffffffffffffff16036111385760006040517f1e4fbdf700000000000000000000000000000000000000000000000000000000815260040161112f919061158b565b60405180910390fd5b61114181611235565b50565b60007f01ffc9a7000000000000000000000000000000000000000000000000000000007bffffffffffffffffffffffffffffffffffffffffffffffffffffffff1916827bffffffffffffffffffffffffffffffffffffffffffffffffffffffff1916149050919050565b6111b6611389565b73ffffffffffffffffffffffffffffffffffffffff166111d46104cf565b73ffffffffffffffffffffffffffffffffffffffff1614611233576111f7611389565b6040517f118cdaa700000000000000000000000000000000000000000000000000000000815260040161122a919061158b565b60405180910390fd5b565b600060018054906101000a900473ffffffffffffffffffffffffffffffffffffffff169050816001806101000a81548173ffffffffffffffffffffffffffffffffffffffff021916908373ffffffffffffffffffffffffffffffffffffffff1602179055508173ffffffffffffffffffffffffffffffffffffffff168173ffffffffffffffffffffffffffffffffffffffff167f8be0079c531659141344cd1fd0a4f28419497f9722a3daafe3b4186f6b6457e060405160405180910390a35050565b600260005403611334576040517f3ee5aeb500000000000000000000000000000000000000000000000000000000815260040160405180910390fd5b6002600081905550565b6001600081905550565b61135061049e565b15611387576040517fd93c066500000000000000000000000000000000000000000000000000000000815260040160405180910390fd5b565b600033905090565b6000604051905090565b600080fd5b600080fd5b60007fffffffff0000000000000000000000000000000000000000000000000000000082169050919050565b6113da816113a5565b81146113e557600080fd5b50565b6000813590506113f7816113d1565b92915050565b6000602082840312156114135761141261139b565b5b6000611421848285016113e8565b91505092915050565b60008115159050919050565b61143f8161142a565b82525050565b600060208201905061145a6000830184611436565b92915050565b600073ffffffffffffffffffffffffffffffffffffffff82169050919050565b6000819050919050565b60006114a56114a061149b84611460565b611480565b611460565b9050919050565b60006114b78261148a565b9050919050565b60006114c9826114ac565b9050919050565b6114d9816114be565b82525050565b60006020820190506114f460008301846114d0565b92915050565b6000611505826114ac565b9050919050565b611515816114fa565b82525050565b6000602082019050611530600083018461150c565b92915050565b6000819050919050565b61154981611536565b82525050565b60006020820190506115646000830184611540565b92915050565b600061157582611460565b9050919050565b6115858161156a565b82525050565b60006020820190506115a0600083018461157c565b92915050565b6115af8161156a565b81146115ba57600080fd5b50565b6000813590506115cc816115a6565b92915050565b6115db81611536565b81146115e657600080fd5b50565b6000813590506115f8816115d2565b92915050565b600080604083850312156116155761161461139b565b5b6000611623858286016115bd565b9250506020611634858286016115e9565b9150509250929050565b60006080820190506116536000830187611540565b6116606020830186611540565b61166d6040830185611540565b61167a6060830184611436565b95945050505050565b6000602082840312156116995761169861139b565b5b60006116a7848285016115e9565b91505092915050565b600080604083850312156116c7576116c661139b565b5b60006116d5858286016115e9565b92505060206116e6858286016115e9565b9150509250929050565b600080fd5b6000601f19601f8301169050919050565b7f4e487b7100000000000000000000000000000000000000000000000000000000600052604160045260246000fd5b61173e826116f5565b810181811067ffffffffffffffff8211171561175d5761175c611706565b5b80604052505050565b6000611770611391565b905061177c8282611735565b919050565b600067ffffffffffffffff82111561179c5761179b611706565b5b602082029050602081019050919050565b600080fd5b60006117c56117c084611781565b611766565b905080838252602082019050602084028301858111156117e8576117e76117ad565b5b835b8181101561181157806117fd88826115e9565b8452602084019350506020810190506117ea565b5050509392505050565b600082601f8301126118305761182f6116f0565b5b81356118408482602086016117b2565b91505092915050565b600080fd5b600067ffffffffffffffff82111561186957611868611706565b5b611872826116f5565b9050602081019050919050565b82818337600083830152505050565b60006118a161189c8461184e565b611766565b9050828152602081018484840111156118bd576118bc611849565b5b6118c884828561187f565b509392505050565b600082601f8301126118e5576118e46116f0565b5b81356118f584826020860161188e565b91505092915050565b600080600080600060a0868803121561191a5761191961139b565b5b6000611928888289016115bd565b9550506020611939888289016115bd565b945050604086013567ffffffffffffffff81111561195a576119596113a0565b5b6119668882890161181b565b935050606086013567ffffffffffffffff811115611987576119866113a0565b5b6119938882890161181b565b925050608086013567ffffffffffffffff8111156119b4576119b36113a0565b5b6119c0888289016118d0565b9150509295509295909350565b6119d6816113a5565b82525050565b60006020820190506119f160008301846119cd565b92915050565b600080600080600060a08688031215611a1357611a1261139b565b5b6000611a21888289016115bd565b9550506020611a32888289016115bd565b9450506040611a43888289016115e9565b9350506060611a54888289016115e9565b925050608086013567ffffffffffffffff811115611a7557611a746113a0565b5b611a81888289016118d0565b9150509295509295909350565b600060208284031215611aa457611aa361139b565b5b6000611ab2848285016115bd565b91505092915050565b600082825260208201905092915050565b7f4e6f20686179207072657374616d6f0000000000000000000000000000000000600082015250565b6000611b02600f83611abb565b9150611b0d82611acc565b602082019050919050565b60006020820190508181036000830152611b3181611af5565b9050919050565b7f4e487b7100000000000000000000000000000000000000000000000000000000600052601160045260246000fd5b6000611b7282611536565b9150611b7d83611536565b9250828203905081811115611b9557611b94611b38565b5b92915050565b6000611ba682611536565b9150611bb183611536565b9250828202611bbf81611536565b91508282048414831517611bd657611bd5611b38565b5b5092915050565b7f4e487b7100000000000000000000000000000000000000000000000000000000600052601260045260246000fd5b6000611c1782611536565b9150611c2283611536565b925082611c3257611c31611bdd565b5b828204905092915050565b6000611c4882611536565b9150611c5383611536565b9250828201905080821115611c6b57611c6a611b38565b5b92915050565b6000606082019050611c86600083018661157c565b611c93602083018561157c565b611ca06040830184611540565b949350505050565b611cb18161142a565b8114611cbc57600080fd5b50565b600081519050611cce81611ca8565b92915050565b600060208284031215611cea57611ce961139b565b5b6000611cf884828501611cbf565b91505092915050565b600082825260208201905092915050565b50565b6000611d22600083611d01565b9150611d2d82611d12565b600082019050919050565b600060a082019050611d4d600083018761157c565b611d5a602083018661157c565b611d676040830185611540565b611d746060830184611540565b8181036080830152611d8581611d15565b905095945050505050565b7f5072657374616d6f2061637469766f206578697374656e746500000000000000600082015250565b6000611dc6601983611abb565b9150611dd182611d90565b602082019050919050565b60006020820190508181036000830152611df581611db9565b9050919050565b600081519050611e0b816115d2565b92915050565b600060208284031215611e2757611e2661139b565b5b6000611e3584828501611dfc565b91505092915050565b7f53696e206c6971756964657a0000000000000000000000000000000000000000600082015250565b6000611e74600c83611abb565b9150611e7f82611e3e565b602082019050919050565b60006020820190508181036000830152611ea381611e67565b9050919050565b6000604082019050611ebf600083018561157c565b611ecc6020830184611540565b9392505050565b7f4e6f2061637469766f0000000000000000000000000000000000000000000000600082015250565b6000611f09600983611abb565b9150611f1482611ed3565b602082019050919050565b60006020820190508181036000830152611f3881611efc565b905091905056fea2646970667358221220d7d76d89880ea8b6308574b386ebf2b6daa2c3d10c7dc9c97cbe2333f6be33bc64736f6c63430008140033",
  "linkReferences": {},
  "deployedLinkReferences": {}
}