{
  "_format": "hh-sol-artifact-1",
  "contractName": "AgroLendingPool",
  "sourceName": "contracts/AgroLendingPool.sol",
  "abi": [
    {
      "inputs": [
        {
          "internalType": "address",
          "name": "_usdc",
          "type": "address"
        },
        {
          "internalType": "address",
          "name": "_agroToken",
          "type": "address"
        }
      ],
      "stateMutability": "nonpayable",
      "type": "constructor"
    },
    {
      "inputs": [],
      "name": "AccessControlBadConfirmation",
      "type": "error"
    },
    {
      "inputs": [
        {
          "internalType": "address",
          "name": "account",
          "type": "address"
        },
        {
          "internalType": "bytes32",
          "name": "neededRole",
          "type": "bytes32"
        }
      ],
      "name": "AccessControlUnauthorizedAccount",
      "type": "error"
    },
    {
      "inputs": [],
      "name": "EnforcedPause",
      "type": "error"
    },
    {
      "inputs": [],
      "name": "ExpectedPause",
      "type": "error"
    },
    {
      "inputs": [],
      "name": "ReentrancyGuardReentrantCall",
      "type": "error"
    },
    {
      "anonymous": false,
      "inputs": [
        {
          "indexed": true,
          "internalType": "uint256",
          "name": "assetId",
          "type": "uint256"
        },
        {
          "indexed": false,
          "internalType": "uint256",
          "name": "newLTV",
          "type": "uint256"
        }
      ],
      "name": "LTVUpdated",
      "type": "event"
    },
    {
      "anonymous": false,
      "inputs": [
        {
          "indexed": true,
          "internalType": "address",
          "name": "user",
          "type": "address"
        },
        {
          "indexed": true,
          "internalType": "address",
          "name": "liquidator",
          "type": "address"
        }
      ],
      "name": "LoanLiquidated",
      "type": "event"
    },
    {
      "anonymous": false,
      "inputs": [
        {
          "indexed": true,
          "internalType": "address",
          "name": "user",
          "type": "address"
        },
        {
          "indexed": false,
          "internalType": "uint256",
          "name": "amount",
          "type": "uint256"
        }
      ],
      "name": "LoanRepaid",
      "type": "event"
    },
    {
      "anonymous": false,
      "inputs": [
        {
          "indexed": true,
          "internalType": "address",
          "name": "user",
          "type": "address"
        },
        {
          "indexed": false,
          "internalType": "uint256",
          "name": "amount",
          "type": "uint256"
        }
      ],
      "name": "LoanTaken",
      "type": "event"
    },
    {
      "anonymous": false,
      "inputs": [
        {
          "indexed": false,
          "internalType": "address",
          "name": "account",
          "type": "address"
        }
      ],
      "name": "Paused",
      "type": "event"
    },
    {
      "anonymous": false,
      "inputs": [
        {
          "indexed": true,
          "internalType": "bytes32",
          "name": "role",
          "type": "bytes32"
        },
        {
          "indexed": true,
          "internalType": "bytes32",
          "name": "previousAdminRole",
          "type": "bytes32"
        },
        {
          "indexed": true,
          "internalType": "bytes32",
          "name": "newAdminRole",
          "type": "bytes32"
        }
      ],
      "name": "RoleAdminChanged",
      "type": "event"
    },
    {
      "anonymous": false,
      "inputs": [
        {
          "indexed": true,
          "internalType": "bytes32",
          "name": "role",
          "type": "bytes32"
        },
        {
          "indexed": true,
          "internalType": "address",
          "name": "account",
          "type": "address"
        },
        {
          "indexed": true,
          "internalType": "address",
          "name": "sender",
          "type": "address"
        }
      ],
      "name": "RoleGranted",
      "type": "event"
    },
    {
      "anonymous": false,
      "inputs": [
        {
          "indexed": true,
          "internalType": "bytes32",
          "name": "role",
          "type": "bytes32"
        },
        {
          "indexed": true,
          "internalType": "address",
          "name": "account",
          "type": "address"
        },
        {
          "indexed": true,
          "internalType": "address",
          "name": "sender",
          "type": "address"
        }
      ],
      "name": "RoleRevoked",
      "type": "event"
    },
    {
      "anonymous": false,
      "inputs": [
        {
          "indexed": false,
          "internalType": "address",
          "name": "account",
          "type": "address"
        }
      ],
      "name": "Unpaused",
      "type": "event"
    },
    {
      "inputs": [],
      "name": "ADMIN_ROLE",
      "outputs": [
        {
          "internalType": "bytes32",
          "name": "",
          "type": "bytes32"
        }
      ],
      "stateMutability": "view",
      "type": "function"
    },
    {
      "inputs": [],
      "name": "BASIS_POINTS",
      "outputs": [
        {
          "internalType": "uint256",
          "name": "",
          "type": "uint256"
        }
      ],
      "stateMutability": "view",
      "type": "function"
    },
    {
      "inputs": [],
      "name": "DEFAULT_ADMIN_ROLE",
      "outputs": [
        {
          "internalType": "bytes32",
          "name": "",
          "type": "bytes32"
        }
      ],
      "stateMutability": "view",
      "type": "function"
    },
    {
      "inputs": [],
      "name": "INTEREST_RATE_BP",
      "outputs": [
        {
          "internalType": "uint256",
          "name": "",
          "type": "uint256"
        }
      ],
      "stateMutability": "view",
      "type": "function"
    },
    {
      "inputs": [],
      "name": "ORACLE_ROLE",
      "outputs": [
        {
          "internalType": "bytes32",
          "name": "",
          "type": "bytes32"
        }
      ],
      "stateMutability": "view",
      "type": "function"
    },
    {
      "inputs": [],
      "name": "SECONDS_PER_YEAR",
      "outputs": [
        {
          "internalType": "uint256",
          "name": "",
          "type": "uint256"
        }
      ],
      "stateMutability": "view",
      "type": "function"
    },
    {
      "inputs": [],
      "name": "VALOR_POR_FRACCION",
      "outputs": [
        {
          "internalType": "uint256",
          "name": "",
          "type": "uint256"
        }
      ],
      "stateMutability": "view",
      "type": "function"
    },
    {
      "inputs": [],
      "name": "agroToken",
      "outputs": [
        {
          "internalType": "contract IERC1155",
          "name": "",
          "type": "address"
        }
      ],
      "stateMutability": "view",
      "type": "function"
    },
    {
      "inputs": [
        {
          "internalType": "uint256",
          "name": "",
          "type": "uint256"
        }
      ],
      "name": "assetLTV",
      "outputs": [
        {
          "internalType": "uint256",
          "name": "",
          "type": "uint256"
        }
      ],
      "stateMutability": "view",
      "type": "function"
    },
    {
      "inputs": [],
      "name": "defaultLTV",
      "outputs": [
        {
          "internalType": "uint256",
          "name": "",
          "type": "uint256"
        }
      ],
      "stateMutability": "view",
      "type": "function"
    },
    {
      "inputs": [
        {
          "internalType": "uint256",
          "name": "_assetId",
          "type": "uint256"
        },
        {
          "internalType": "uint256",
          "name": "_amountCollateral",
          "type": "uint256"
        }
      ],
      "name": "depositAndBorrow",
      "outputs": [],
      "stateMutability": "nonpayable",
      "type": "function"
    },
    {
      "inputs": [
        {
          "internalType": "uint256",
          "name": "_assetId",
          "type": "uint256"
        }
      ],
      "name": "getLTV",
      "outputs": [
        {
          "internalType": "uint256",
          "name": "",
          "type": "uint256"
        }
      ],
      "stateMutability": "view",
      "type": "function"
    },
    {
      "inputs": [
        {
          "internalType": "bytes32",
          "name": "role",
          "type": "bytes32"
        }
      ],
      "name": "getRoleAdmin",
      "outputs": [
        {
          "internalType": "bytes32",
          "name": "",
          "type": "bytes32"
        }
      ],
      "stateMutability": "view",
      "type": "function"
    },
    {
      "inputs": [
        {
          "internalType": "address",
          "name": "_user",
          "type": "address"
        },
        {
          "internalType": "uint256",
          "name": "_assetId",
          "type": "uint256"
        }
      ],
      "name": "getTotalDue",
      "outputs": [
        {
          "internalType": "uint256",
          "name": "",
          "type": "uint256"
        }
      ],
      "stateMutability": "view",
      "type": "function"
    },
    {
      "inputs": [
        {
          "internalType": "bytes32",
          "name": "role",
          "type": "bytes32"
        },
        {
          "internalType": "address",
          "name": "account",
          "type": "address"
        }
      ],
      "name": "grantRole",
      "outputs": [],
      "stateMutability": "nonpayable",
      "type": "function"
    },
    {
      "inputs": [
        {
          "internalType": "bytes32",
          "name": "role",
          "type": "bytes32"
        },
        {
          "internalType": "address",
          "name": "account",
          "type": "address"
        }
      ],
      "name": "hasRole",
      "outputs": [
        {
          "internalType": "bool",
          "name": "",
          "type": "bool"
        }
      ],
      "stateMutability": "view",
      "type": "function"
    },
    {
      "inputs": [
        {
          "internalType": "address",
          "name": "_user",
          "type": "address"
        },
        {
          "internalType": "uint256",
          "name": "_assetId",
          "type": "uint256"
        }
      ],
      "name": "liquidate",
      "outputs": [],
      "stateMutability": "nonpayable",
      "type": "function"
    },
    {
      "inputs": [
        {
          "internalType": "address",
          "name": "",
          "type": "address"
        },
        {
          "internalType": "uint256",
          "name": "",
          "type": "uint256"
        }
      ],
      "name": "loans",
      "outputs": [
        {
          "internalType": "uint256",
          "name": "collateralAmount",
          "type": "uint256"
        },
        {
          "internalType": "uint256",
          "name": "principal",
          "type": "uint256"
        },
        {
          "internalType": "uint256",
          "name": "startTime",
          "type": "uint256"
        },
        {
          "internalType": "bool",
          "name": "isActive",
          "type": "bool"
        }
      ],
      "stateMutability": "view",
      "type": "function"
    },
    {
      "inputs": [
        {
          "internalType": "address",
          "name": "",
          "type": "address"
        },
        {
          "internalType": "address",
          "name": "",
          "type": "address"
        },
        {
          "internalType": "uint256[]",
          "name": "",
          "type": "uint256[]"
        },
        {
          "internalType": "uint256[]",
          "name": "",
          "type": "uint256[]"
        },
        {
          "internalType": "bytes",
          "name": "",
          "type": "bytes"
        }
      ],
      "name": "onERC1155BatchReceived",
      "outputs": [
        {
          "internalType": "bytes4",
          "name": "",
          "type": "bytes4"
        }
      ],
      "stateMutability": "nonpayable",
      "type": "function"
    },
    {
      "inputs": [
        {
          "internalType": "address",
          "name": "",
          "type": "address"
        },
        {
          "internalType": "address",
          "name": "",
          "type": "address"
        },
        {
          "internalType": "uint256",
          "name": "",
          "type": "uint256"
        },
        {
          "internalType": "uint256",
          "name": "",
          "type": "uint256"
        },
        {
          "internalType": "bytes",
          "name": "",
          "type": "bytes"
        }
      ],
      "name": "onERC1155Received",
      "outputs": [
        {
          "internalType": "bytes4",
          "name": "",
          "type": "bytes4"
        }
      ],
      "stateMutability": "nonpayable",
      "type": "function"
    },
    {
      "inputs": [],
      "name": "paused",
      "outputs": [
        {
          "internalType": "bool",
          "name": "",
          "type": "bool"
        }
      ],
      "stateMutability": "view",
      "type": "function"
    },
    {
      "inputs": [
        {
          "internalType": "bytes32",
          "name": "role",
          "type": "bytes32"
        },
        {
          "internalType": "address",
          "name": "callerConfirmation",
          "type": "address"
        }
      ],
      "name": "renounceRole",
      "outputs": [],
      "stateMutability": "nonpayable",
      "type": "function"
    },
    {
      "inputs": [
        {
          "internalType": "uint256",
          "name": "_assetId",
          "type": "uint256"
        }
      ],
      "name": "repayLoan",
      "outputs": [],
      "stateMutability": "nonpayable",
      "type": "function"
    },
    {
      "inputs": [
        {
          "internalType": "bytes32",
          "name": "role",
          "type": "bytes32"
        },
        {
          "internalType": "address",
          "name": "account",
          "type": "address"
        }
      ],
      "name": "revokeRole",
      "outputs": [],
      "stateMutability": "nonpayable",
      "type": "function"
    },
    {
      "inputs": [
        {
          "internalType": "uint256",
          "name": "_assetId",
          "type": "uint256"
        },
        {
          "internalType": "uint256",
          "name": "_newLTV",
          "type": "uint256"
        }
      ],
      "name": "setAssetCustomLTV",
      "outputs": [],
      "stateMutability": "nonpayable",
      "type": "function"
    },
    {
      "inputs": [
        {
          "internalType": "bytes4",
          "name": "interfaceId",
          "type": "bytes4"
        }
      ],
      "name": "supportsInterface",
      "outputs": [
        {
          "internalType": "bool",
          "name": "",
          "type": "bool"
        }
      ],
      "stateMutability": "view",
      "type": "function"
    },
    {
      "inputs": [],
      "name": "usdcToken",
      "outputs": [
        {
          "internalType": "contract IERC20",
          "name": "",
          "type": "address"
        }
      ],
      "stateMutability": "view",
      "type": "function"
    }
  ],
  "bytecode": "0x60c0604052611b586003553480156200001757600080fd5b50604051620029a8380380620029a883398181016040528101906200003d9190620002df565b60016000819055508173ffffffffffffffffffffffffffffffffffffffff1660808173ffffffffffffffffffffffffffffffffffffffff16815250508073ffffffffffffffffffffffffffffffffffffffff1660a08173ffffffffffffffffffffffffffffffffffffffff1681525050620000c26000801b33620000fe60201b60201c565b50620000f57fa49807205ce4d355092ef5a8a18f56e8913cf4a201fbe287825b095693c2177533620000fe60201b60201c565b50505062000326565b60006200011283836200020260201b60201c565b620001f75760016002600085815260200190815260200160002060000160008473ffffffffffffffffffffffffffffffffffffffff1673ffffffffffffffffffffffffffffffffffffffff16815260200190815260200160002060006101000a81548160ff021916908315150217905550620001936200026d60201b60201c565b73ffffffffffffffffffffffffffffffffffffffff168273ffffffffffffffffffffffffffffffffffffffff16847f2f8788117e7eff1d82e926ec794901d17c78024a50270940304540a733656f0d60405160405180910390a460019050620001fc565b600090505b92915050565b60006002600084815260200190815260200160002060000160008373ffffffffffffffffffffffffffffffffffffffff1673ffffffffffffffffffffffffffffffffffffffff16815260200190815260200160002060009054906101000a900460ff16905092915050565b600033905090565b600080fd5b600073ffffffffffffffffffffffffffffffffffffffff82169050919050565b6000620002a7826200027a565b9050919050565b620002b9816200029a565b8114620002c557600080fd5b50565b600081519050620002d981620002ae565b92915050565b60008060408385031215620002f957620002f862000275565b5b60006200030985828601620002c8565b92505060206200031c85828601620002c8565b9150509250929050565b60805160a051612632620003766000396000818161068e015281816109ee01528181610d6c01526111f10152600081816105ad0152818161094d01528181610ef10152610fcc01526126326000f3fe608060405234801561001057600080fd5b50600436106101a95760003560e01c80639fd58ee5116100f9578063bc197c8111610097578063e1f1c4a711610071578063e1f1c4a7146104e7578063e6a69ab814610505578063e900a85a14610523578063f23a6e611461053f576101a9565b8063bc197c811461047f578063bcbaf487146104af578063d547741f146104cb576101a9565b8063b30d7ac8116100d3578063b30d7ac8146103f7578063b75061bb14610427578063b79c982614610443578063b8e7f89014610461576101a9565b80639fd58ee51461038d578063a217fddf146103bd578063ab7b1c89146103db576101a9565b806336568abe116101665780635faee3e0116101405780635faee3e0146102dc57806375b238fc1461030c57806391d148541461032a57806398c61c371461035a576101a9565b806336568abe146102845780634bfccac4146102a05780635c975abb146102be576101a9565b806301ffc9a7146101ae57806307e2cea5146101de57806310c882a8146101fc57806311eac8551461021a578063248a9ca3146102385780632f2ff15d14610268575b600080fd5b6101c860048036038101906101c39190611919565b61056f565b6040516101d59190611961565b60405180910390f35b6101e6610581565b6040516101f39190611995565b60405180910390f35b6102046105a5565b60405161021191906119c9565b60405180910390f35b6102226105ab565b60405161022f9190611a63565b60405180910390f35b610252600480360381019061024d9190611aaa565b6105cf565b60405161025f9190611995565b60405180910390f35b610282600480360381019061027d9190611b15565b6105ef565b005b61029e60048036038101906102999190611b15565b610611565b005b6102a861068c565b6040516102b59190611b76565b60405180910390f35b6102c66106b0565b6040516102d39190611961565b60405180910390f35b6102f660048036038101906102f19190611bbd565b6106c7565b60405161030391906119c9565b60405180910390f35b6103146106df565b6040516103219190611995565b60405180910390f35b610344600480360381019061033f9190611b15565b610703565b6040516103519190611961565b60405180910390f35b610374600480360381019061036f9190611bea565b61076e565b6040516103849493929190611c2a565b60405180910390f35b6103a760048036038101906103a29190611bbd565b6107b8565b6040516103b491906119c9565b60405180910390f35b6103c56107fb565b6040516103d29190611995565b60405180910390f35b6103f560048036038101906103f09190611bbd565b610802565b005b610411600480360381019061040c9190611bea565b610b5d565b60405161041e91906119c9565b60405180910390f35b610441600480360381019061043c9190611c6f565b610c76565b005b61044b6110c6565b60405161045891906119c9565b60405180910390f35b6104696110cc565b60405161047691906119c9565b60405180910390f35b61049960048036038101906104949190611ebd565b6110d4565b6040516104a69190611f9b565b60405180910390f35b6104c960048036038101906104c49190611bea565b6110e9565b005b6104e560048036038101906104e09190611b15565b611363565b005b6104ef611385565b6040516104fc91906119c9565b60405180910390f35b61050d61138b565b60405161051a91906119c9565b60405180910390f35b61053d60048036038101906105389190611c6f565b611393565b005b61055960048036038101906105549190611fb6565b611457565b6040516105669190611f9b565b60405180910390f35b600061057a8261146c565b9050919050565b7f68e79a7bf1e0bc45d0a330c573bc367f9cf464fd326078812f301165fbda4ef181565b60035481565b7f000000000000000000000000000000000000000000000000000000000000000081565b600060026000838152602001908152602001600020600101549050919050565b6105f8826105cf565b610601816114e6565b61060b83836114fa565b50505050565b6106196115ec565b73ffffffffffffffffffffffffffffffffffffffff168173ffffffffffffffffffffffffffffffffffffffff161461067d576040517f6697b23200000000000000000000000000000000000000000000000000000000815260040160405180910390fd5b61068782826115f4565b505050565b7f000000000000000000000000000000000000000000000000000000000000000081565b6000600160009054906101000a900460ff16905090565b60046020528060005260406000206000915090505481565b7fa49807205ce4d355092ef5a8a18f56e8913cf4a201fbe287825b095693c2177581565b60006002600084815260200190815260200160002060000160008373ffffffffffffffffffffffffffffffffffffffff1673ffffffffffffffffffffffffffffffffffffffff16815260200190815260200160002060009054906101000a900460ff16905092915050565b6005602052816000526040600020602052806000526040600020600091509150508060000154908060010154908060020154908060030160009054906101000a900460ff16905084565b600080600460008481526020019081526020016000205411156107f057600460008381526020019081526020016000205490506107f6565b60035490505b919050565b6000801b81565b61080a6116e7565b6000600560003373ffffffffffffffffffffffffffffffffffffffff1673ffffffffffffffffffffffffffffffffffffffff16815260200190815260200160002060008381526020019081526020016000206040518060800160405290816000820154815260200160018201548152602001600282015481526020016003820160009054906101000a900460ff161515151581525050905080606001516108e6576040517f08c379a00000000000000000000000000000000000000000000000000000000081526004016108dd906120aa565b60405180910390fd5b60008160400151426108f891906120f9565b905060006127106301e1338061090e919061212d565b826101f48560200151610921919061212d565b61092b919061212d565b610935919061219e565b9050600081846020015161094991906121cf565b90507f000000000000000000000000000000000000000000000000000000000000000073ffffffffffffffffffffffffffffffffffffffff166323b872dd3330846040518463ffffffff1660e01b81526004016109a893929190612212565b6020604051808303816000875af11580156109c7573d6000803e3d6000fd5b505050506040513d601f19601f820116820180604052508101906109eb9190612275565b507f000000000000000000000000000000000000000000000000000000000000000073ffffffffffffffffffffffffffffffffffffffff1663f242432a30338888600001516040518563ffffffff1660e01b8152600401610a4f94939291906122d9565b600060405180830381600087803b158015610a6957600080fd5b505af1158015610a7d573d6000803e3d6000fd5b50505050600560003373ffffffffffffffffffffffffffffffffffffffff1673ffffffffffffffffffffffffffffffffffffffff1681526020019081526020016000206000868152602001908152602001600020600080820160009055600182016000905560028201600090556003820160006101000a81549060ff021916905550503373ffffffffffffffffffffffffffffffffffffffff167fc200a1f31dd659e356e0f112c82558e25f49f7b0f84438691cd96f5cb355882382604051610b4691906119c9565b60405180910390a250505050610b5a61172d565b50565b600080600560008573ffffffffffffffffffffffffffffffffffffffff1673ffffffffffffffffffffffffffffffffffffffff16815260200190815260200160002060008481526020019081526020016000206040518060800160405290816000820154815260200160018201548152602001600282015481526020016003820160009054906101000a900460ff16151515158152505090508060600151610c09576000915050610c70565b6000816040015142610c1b91906120f9565b905060006127106301e13380610c31919061212d565b826101f48560200151610c44919061212d565b610c4e919061212d565b610c58919061219e565b9050808360200151610c6a91906121cf565b93505050505b92915050565b610c7e6116e7565b610c86611737565b600560003373ffffffffffffffffffffffffffffffffffffffff1673ffffffffffffffffffffffffffffffffffffffff168152602001908152602001600020600083815260200190815260200160002060030160009054906101000a900460ff1615610d27576040517f08c379a0000000000000000000000000000000000000000000000000000000008152600401610d1e9061237d565b60405180910390fd5b60008111610d6a576040517f08c379a0000000000000000000000000000000000000000000000000000000008152600401610d61906123e9565b60405180910390fd5b7f000000000000000000000000000000000000000000000000000000000000000073ffffffffffffffffffffffffffffffffffffffff1663f242432a333085856040518563ffffffff1660e01b8152600401610dc994939291906122d9565b600060405180830381600087803b158015610de357600080fd5b505af1158015610df7573d6000803e3d6000fd5b505050506000631dcd650082610e0d919061212d565b90506000610e1a846107b8565b905060006127108284610e2d919061212d565b610e37919061219e565b9050604051806080016040528085815260200182815260200142815260200160011515815250600560003373ffffffffffffffffffffffffffffffffffffffff1673ffffffffffffffffffffffffffffffffffffffff168152602001908152602001600020600087815260200190815260200160002060008201518160000155602082015181600101556040820151816002015560608201518160030160006101000a81548160ff021916908315150217905550905050807f000000000000000000000000000000000000000000000000000000000000000073ffffffffffffffffffffffffffffffffffffffff166370a08231306040518263ffffffff1660e01b8152600401610f489190612409565b602060405180830381865afa158015610f65573d6000803e3d6000fd5b505050506040513d601f19601f82011682018060405250810190610f899190612439565b1015610fca576040517f08c379a0000000000000000000000000000000000000000000000000000000008152600401610fc1906124b2565b60405180910390fd5b7f000000000000000000000000000000000000000000000000000000000000000073ffffffffffffffffffffffffffffffffffffffff1663a9059cbb33836040518363ffffffff1660e01b81526004016110259291906124d2565b6020604051808303816000875af1158015611044573d6000803e3d6000fd5b505050506040513d601f19601f820116820180604052508101906110689190612275565b503373ffffffffffffffffffffffffffffffffffffffff167fd5c776eab9418d89c040ffee59f2310d225f5ff682191bcee59b0413a7fd4835826040516110af91906119c9565b60405180910390a25050506110c261172d565b5050565b6101f481565b631dcd650081565b600063bc197c8160e01b905095945050505050565b7fa49807205ce4d355092ef5a8a18f56e8913cf4a201fbe287825b095693c21775611113816114e6565b6000600560008573ffffffffffffffffffffffffffffffffffffffff1673ffffffffffffffffffffffffffffffffffffffff16815260200190815260200160002060008481526020019081526020016000206040518060800160405290816000820154815260200160018201548152602001600282015481526020016003820160009054906101000a900460ff161515151581525050905080606001516111ef576040517f08c379a00000000000000000000000000000000000000000000000000000000081526004016111e690612547565b60405180910390fd5b7f000000000000000000000000000000000000000000000000000000000000000073ffffffffffffffffffffffffffffffffffffffff1663f242432a30338685600001516040518563ffffffff1660e01b815260040161125294939291906122d9565b600060405180830381600087803b15801561126c57600080fd5b505af1158015611280573d6000803e3d6000fd5b50505050600560008573ffffffffffffffffffffffffffffffffffffffff1673ffffffffffffffffffffffffffffffffffffffff1681526020019081526020016000206000848152602001908152602001600020600080820160009055600182016000905560028201600090556003820160006101000a81549060ff021916905550503373ffffffffffffffffffffffffffffffffffffffff168473ffffffffffffffffffffffffffffffffffffffff167f81a82e67595dbd39318f981107a62c3dd01327eb6236903c29c05a16b993b6d260405160405180910390a350505050565b61136c826105cf565b611375816114e6565b61137f83836115f4565b50505050565b61271081565b6301e1338081565b7f68e79a7bf1e0bc45d0a330c573bc367f9cf464fd326078812f301165fbda4ef16113bd816114e6565b612328821115611402576040517f08c379a00000000000000000000000000000000000000000000000000000000081526004016113f9906125b3565b60405180910390fd5b816004600085815260200190815260200160002081905550827febf7eddb4e03548e462e5c4eea29b2fe5e922ed494fbd1ee2ef8fc337cd55be18360405161144a91906119c9565b60405180910390a2505050565b600063f23a6e6160e01b905095945050505050565b60007f4e2312e0000000000000000000000000000000000000000000000000000000007bffffffffffffffffffffffffffffffffffffffffffffffffffffffff1916827bffffffffffffffffffffffffffffffffffffffffffffffffffffffff191614806114df57506114de82611778565b5b9050919050565b6114f7816114f26115ec565b6117f2565b50565b60006115068383610703565b6115e15760016002600085815260200190815260200160002060000160008473ffffffffffffffffffffffffffffffffffffffff1673ffffffffffffffffffffffffffffffffffffffff16815260200190815260200160002060006101000a81548160ff02191690831515021790555061157e6115ec565b73ffffffffffffffffffffffffffffffffffffffff168273ffffffffffffffffffffffffffffffffffffffff16847f2f8788117e7eff1d82e926ec794901d17c78024a50270940304540a733656f0d60405160405180910390a4600190506115e6565b600090505b92915050565b600033905090565b60006116008383610703565b156116dc5760006002600085815260200190815260200160002060000160008473ffffffffffffffffffffffffffffffffffffffff1673ffffffffffffffffffffffffffffffffffffffff16815260200190815260200160002060006101000a81548160ff0219169083151502179055506116796115ec565b73ffffffffffffffffffffffffffffffffffffffff168273ffffffffffffffffffffffffffffffffffffffff16847ff6391f5c32d9c69d2a47ea670b442974b53935d1edc7fd64eb21e047a839171b60405160405180910390a4600190506116e1565b600090505b92915050565b600260005403611723576040517f3ee5aeb500000000000000000000000000000000000000000000000000000000815260040160405180910390fd5b6002600081905550565b6001600081905550565b61173f6106b0565b15611776576040517fd93c066500000000000000000000000000000000000000000000000000000000815260040160405180910390fd5b565b60007f7965db0b000000000000000000000000000000000000000000000000000000007bffffffffffffffffffffffffffffffffffffffffffffffffffffffff1916827bffffffffffffffffffffffffffffffffffffffffffffffffffffffff191614806117eb57506117ea82611843565b5b9050919050565b6117fc8282610703565b61183f5780826040517fe2517d3f0000000000000000000000000000000000000000000000000000000081526004016118369291906125d3565b60405180910390fd5b5050565b60007f01ffc9a7000000000000000000000000000000000000000000000000000000007bffffffffffffffffffffffffffffffffffffffffffffffffffffffff1916827bffffffffffffffffffffffffffffffffffffffffffffffffffffffff1916149050919050565b6000604051905090565b600080fd5b600080fd5b60007fffffffff0000000000000000000000000000000000000000000000000000000082169050919050565b6118f6816118c1565b811461190157600080fd5b50565b600081359050611913816118ed565b92915050565b60006020828403121561192f5761192e6118b7565b5b600061193d84828501611904565b91505092915050565b60008115159050919050565b61195b81611946565b82525050565b60006020820190506119766000830184611952565b92915050565b6000819050919050565b61198f8161197c565b82525050565b60006020820190506119aa6000830184611986565b92915050565b6000819050919050565b6119c3816119b0565b82525050565b60006020820190506119de60008301846119ba565b92915050565b600073ffffffffffffffffffffffffffffffffffffffff82169050919050565b6000819050919050565b6000611a29611a24611a1f846119e4565b611a04565b6119e4565b9050919050565b6000611a3b82611a0e565b9050919050565b6000611a4d82611a30565b9050919050565b611a5d81611a42565b82525050565b6000602082019050611a786000830184611a54565b92915050565b611a878161197c565b8114611a9257600080fd5b50565b600081359050611aa481611a7e565b92915050565b600060208284031215611ac057611abf6118b7565b5b6000611ace84828501611a95565b91505092915050565b6000611ae2826119e4565b9050919050565b611af281611ad7565b8114611afd57600080fd5b50565b600081359050611b0f81611ae9565b92915050565b60008060408385031215611b2c57611b2b6118b7565b5b6000611b3a85828601611a95565b9250506020611b4b85828601611b00565b9150509250929050565b6000611b6082611a30565b9050919050565b611b7081611b55565b82525050565b6000602082019050611b8b6000830184611b67565b92915050565b611b9a816119b0565b8114611ba557600080fd5b50565b600081359050611bb781611b91565b92915050565b600060208284031215611bd357611bd26118b7565b5b6000611be184828501611ba8565b91505092915050565b60008060408385031215611c0157611c006118b7565b5b6000611c0f85828601611b00565b9250506020611c2085828601611ba8565b9150509250929050565b6000608082019050611c3f60008301876119ba565b611c4c60208301866119ba565b611c5960408301856119ba565b611c666060830184611952565b95945050505050565b60008060408385031215611c8657611c856118b7565b5b6000611c9485828601611ba8565b9250506020611ca585828601611ba8565b9150509250929050565b600080fd5b6000601f19601f8301169050919050565b7f4e487b7100000000000000000000000000000000000000000000000000000000600052604160045260246000fd5b611cfd82611cb4565b810181811067ffffffffffffffff82111715611d1c57611d1b611cc5565b5b80604052505050565b6000611d2f6118ad565b9050611d3b8282611cf4565b919050565b600067ffffffffffffffff821115611d5b57611d5a611cc5565b5b602082029050602081019050919050565b600080fd5b6000611d84611d7f84611d40565b611d25565b90508083825260208201905060208402830185811115611da757611da6611d6c565b5b835b81811015611dd05780611dbc8882611ba8565b845260208401935050602081019050611da9565b5050509392505050565b600082601f830112611def57611dee611caf565b5b8135611dff848260208601611d71565b91505092915050565b600080fd5b600067ffffffffffffffff821115611e2857611e27611cc5565b5b611e3182611cb4565b9050602081019050919050565b82818337600083830152505050565b6000611e60611e5b84611e0d565b611d25565b905082815260208101848484011115611e7c57611e7b611e08565b5b611e87848285611e3e565b509392505050565b600082601f830112611ea457611ea3611caf565b5b8135611eb4848260208601611e4d565b91505092915050565b600080600080600060a08688031215611ed957611ed86118b7565b5b6000611ee788828901611b00565b9550506020611ef888828901611b00565b945050604086013567ffffffffffffffff811115611f1957611f186118bc565b5b611f2588828901611dda565b935050606086013567ffffffffffffffff811115611f4657611f456118bc565b5b611f5288828901611dda565b925050608086013567ffffffffffffffff811115611f7357611f726118bc565b5b611f7f88828901611e8f565b9150509295509295909350565b611f95816118c1565b82525050565b6000602082019050611fb06000830184611f8c565b92915050565b600080600080600060a08688031215611fd257611fd16118b7565b5b6000611fe088828901611b00565b9550506020611ff188828901611b00565b945050604061200288828901611ba8565b935050606061201388828901611ba8565b925050608086013567ffffffffffffffff811115612034576120336118bc565b5b61204088828901611e8f565b9150509295509295909350565b600082825260208201905092915050565b7f4e6f20686179207072657374616d6f0000000000000000000000000000000000600082015250565b6000612094600f8361204d565b915061209f8261205e565b602082019050919050565b600060208201905081810360008301526120c381612087565b9050919050565b7f4e487b7100000000000000000000000000000000000000000000000000000000600052601160045260246000fd5b6000612104826119b0565b915061210f836119b0565b9250828203905081811115612127576121266120ca565b5b92915050565b6000612138826119b0565b9150612143836119b0565b9250828202612151816119b0565b91508282048414831517612168576121676120ca565b5b5092915050565b7f4e487b7100000000000000000000000000000000000000000000000000000000600052601260045260246000fd5b60006121a9826119b0565b91506121b4836119b0565b9250826121c4576121c361216f565b5b828204905092915050565b60006121da826119b0565b91506121e5836119b0565b92508282019050808211156121fd576121fc6120ca565b5b92915050565b61220c81611ad7565b82525050565b60006060820190506122276000830186612203565b6122346020830185612203565b61224160408301846119ba565b949350505050565b61225281611946565b811461225d57600080fd5b50565b60008151905061226f81612249565b92915050565b60006020828403121561228b5761228a6118b7565b5b600061229984828501612260565b91505092915050565b600082825260208201905092915050565b50565b60006122c36000836122a2565b91506122ce826122b3565b600082019050919050565b600060a0820190506122ee6000830187612203565b6122fb6020830186612203565b61230860408301856119ba565b61231560608301846119ba565b8181036080830152612326816122b6565b905095945050505050565b7f5072657374616d6f2061637469766f206578697374656e746500000000000000600082015250565b600061236760198361204d565b915061237282612331565b602082019050919050565b600060208201905081810360008301526123968161235a565b9050919050565b7f4d6f6e746f20696e76616c69646f000000000000000000000000000000000000600082015250565b60006123d3600e8361204d565b91506123de8261239d565b602082019050919050565b60006020820190508181036000830152612402816123c6565b9050919050565b600060208201905061241e6000830184612203565b92915050565b60008151905061243381611b91565b92915050565b60006020828403121561244f5761244e6118b7565b5b600061245d84828501612424565b91505092915050565b7f53696e206c6971756964657a20656e2042616e636f0000000000000000000000600082015250565b600061249c60158361204d565b91506124a782612466565b602082019050919050565b600060208201905081810360008301526124cb8161248f565b9050919050565b60006040820190506124e76000830185612203565b6124f460208301846119ba565b9392505050565b7f4e6f2061637469766f0000000000000000000000000000000000000000000000600082015250565b600061253160098361204d565b915061253c826124fb565b602082019050919050565b6000602082019050818103600083015261256081612524565b9050919050565b7f4c5456206d757920616c746f20284d6178203930252900000000000000000000600082015250565b600061259d60168361204d565b91506125a882612567565b602082019050919050565b600060208201905081810360008301526125cc81612590565b9050919050565b60006040820190506125e86000830185612203565b6125f56020830184611986565b939250505056fea264697066735822122040611e88822f29c8b63629fae1e66a2e9f30c51aaf606a14ff620efc57d00c0464736f6c63430008140033",
  "linkReferences": {},
  "deployedLinkReferences": {}
}