{
  "_format": "hh-sol-artifact-1",
  "contractName": "AgroLendingPool",
  "sourceName": "contracts/AgroLendingPool.sol",
  "abi": [
    {
      "inputs": [
        {
          "internalType": "address",
          "name": "_usdc",
          "type": "address"
        },
        {
          "internalType": "address",
          "name": "_agroToken",
          "type": "address"
        }
      ],
      "stateMutability": "nonpayable",
      "type": "constructor"
    },
    {
      "inputs": [],
      "name": "AccessControlBadConfirmation",
      "type": "error"
    },
    {
      "inputs": [
        {
          "internalType": "address",
          "name": "account",
          "type": "address"
        },
        {
          "internalType": "bytes32",
          "name": "neededRole",
          "type": "bytes32"
        }
      ],
      "name": "AccessControlUnauthorizedAccount",
      "type": "error"
    },
    {
      "inputs": [],
      "name": "EnforcedPause",
      "type": "error"
    },
    {
      "inputs": [],
      "name": "ExpectedPause",
      "type": "error"
    },
    {
      "inputs": [],
      "name": "ReentrancyGuardReentrantCall",
      "type": "error"
    },
    {
      "anonymous": false,
      "inputs": [
        {
          "indexed": true,
          "internalType": "uint256",
          "name": "assetId",
          "type": "uint256"
        },
        {
          "indexed": false,
          "internalType": "uint256",
          "name": "newLTV",
          "type": "uint256"
        }
      ],
      "name": "LTVUpdated",
      "type": "event"
    },
    {
      "anonymous": false,
      "inputs": [
        {
          "indexed": true,
          "internalType": "address",
          "name": "user",
          "type": "address"
        },
        {
          "indexed": true,
          "internalType": "address",
          "name": "liquidator",
          "type": "address"
        }
      ],
      "name": "LoanLiquidated",
      "type": "event"
    },
    {
      "anonymous": false,
      "inputs": [
        {
          "indexed": true,
          "internalType": "address",
          "name": "user",
          "type": "address"
        },
        {
          "indexed": false,
          "internalType": "uint256",
          "name": "amount",
          "type": "uint256"
        }
      ],
      "name": "LoanRepaid",
      "type": "event"
    },
    {
      "anonymous": false,
      "inputs": [
        {
          "indexed": true,
          "internalType": "address",
          "name": "user",
          "type": "address"
        },
        {
          "indexed": false,
          "internalType": "uint256",
          "name": "amount",
          "type": "uint256"
        }
      ],
      "name": "LoanTaken",
      "type": "event"
    },
    {
      "anonymous": false,
      "inputs": [
        {
          "indexed": false,
          "internalType": "address",
          "name": "account",
          "type": "address"
        }
      ],
      "name": "Paused",
      "type": "event"
    },
    {
      "anonymous": false,
      "inputs": [
        {
          "indexed": true,
          "internalType": "bytes32",
          "name": "role",
          "type": "bytes32"
        },
        {
          "indexed": true,
          "internalType": "bytes32",
          "name": "previousAdminRole",
          "type": "bytes32"
        },
        {
          "indexed": true,
          "internalType": "bytes32",
          "name": "newAdminRole",
          "type": "bytes32"
        }
      ],
      "name": "RoleAdminChanged",
      "type": "event"
    },
    {
      "anonymous": false,
      "inputs": [
        {
          "indexed": true,
          "internalType": "bytes32",
          "name": "role",
          "type": "bytes32"
        },
        {
          "indexed": true,
          "internalType": "address",
          "name": "account",
          "type": "address"
        },
        {
          "indexed": true,
          "internalType": "address",
          "name": "sender",
          "type": "address"
        }
      ],
      "name": "RoleGranted",
      "type": "event"
    },
    {
      "anonymous": false,
      "inputs": [
        {
          "indexed": true,
          "internalType": "bytes32",
          "name": "role",
          "type": "bytes32"
        },
        {
          "indexed": true,
          "internalType": "address",
          "name": "account",
          "type": "address"
        },
        {
          "indexed": true,
          "internalType": "address",
          "name": "sender",
          "type": "address"
        }
      ],
      "name": "RoleRevoked",
      "type": "event"
    },
    {
      "anonymous": false,
      "inputs": [
        {
          "indexed": false,
          "internalType": "address",
          "name": "account",
          "type": "address"
        }
      ],
      "name": "Unpaused",
      "type": "event"
    },
    {
      "inputs": [],
      "name": "ADMIN_ROLE",
      "outputs": [
        {
          "internalType": "bytes32",
          "name": "",
          "type": "bytes32"
        }
      ],
      "stateMutability": "view",
      "type": "function"
    },
    {
      "inputs": [],
      "name": "BASIS_POINTS",
      "outputs": [
        {
          "internalType": "uint256",
          "name": "",
          "type": "uint256"
        }
      ],
      "stateMutability": "view",
      "type": "function"
    },
    {
      "inputs": [],
      "name": "DEFAULT_ADMIN_ROLE",
      "outputs": [
        {
          "internalType": "bytes32",
          "name": "",
          "type": "bytes32"
        }
      ],
      "stateMutability": "view",
      "type": "function"
    },
    {
      "inputs": [],
      "name": "INTEREST_RATE_BP",
      "outputs": [
        {
          "internalType": "uint256",
          "name": "",
          "type": "uint256"
        }
      ],
      "stateMutability": "view",
      "type": "function"
    },
    {
      "inputs": [],
      "name": "ORACLE_ROLE",
      "outputs": [
        {
          "internalType": "bytes32",
          "name": "",
          "type": "bytes32"
        }
      ],
      "stateMutability": "view",
      "type": "function"
    },
    {
      "inputs": [],
      "name": "SECONDS_PER_YEAR",
      "outputs": [
        {
          "internalType": "uint256",
          "name": "",
          "type": "uint256"
        }
      ],
      "stateMutability": "view",
      "type": "function"
    },
    {
      "inputs": [],
      "name": "VALOR_POR_FRACCION",
      "outputs": [
        {
          "internalType": "uint256",
          "name": "",
          "type": "uint256"
        }
      ],
      "stateMutability": "view",
      "type": "function"
    },
    {
      "inputs": [],
      "name": "agroToken",
      "outputs": [
        {
          "internalType": "contract IERC1155",
          "name": "",
          "type": "address"
        }
      ],
      "stateMutability": "view",
      "type": "function"
    },
    {
      "inputs": [
        {
          "internalType": "uint256",
          "name": "",
          "type": "uint256"
        }
      ],
      "name": "assetLTV",
      "outputs": [
        {
          "internalType": "uint256",
          "name": "",
          "type": "uint256"
        }
      ],
      "stateMutability": "view",
      "type": "function"
    },
    {
      "inputs": [],
      "name": "defaultLTV",
      "outputs": [
        {
          "internalType": "uint256",
          "name": "",
          "type": "uint256"
        }
      ],
      "stateMutability": "view",
      "type": "function"
    },
    {
      "inputs": [
        {
          "internalType": "uint256",
          "name": "_assetId",
          "type": "uint256"
        },
        {
          "internalType": "uint256",
          "name": "_amountCollateral",
          "type": "uint256"
        }
      ],
      "name": "depositAndBorrow",
      "outputs": [],
      "stateMutability": "nonpayable",
      "type": "function"
    },
    {
      "inputs": [
        {
          "internalType": "uint256",
          "name": "_assetId",
          "type": "uint256"
        }
      ],
      "name": "getLTV",
      "outputs": [
        {
          "internalType": "uint256",
          "name": "",
          "type": "uint256"
        }
      ],
      "stateMutability": "view",
      "type": "function"
    },
    {
      "inputs": [
        {
          "internalType": "bytes32",
          "name": "role",
          "type": "bytes32"
        }
      ],
      "name": "getRoleAdmin",
      "outputs": [
        {
          "internalType": "bytes32",
          "name": "",
          "type": "bytes32"
        }
      ],
      "stateMutability": "view",
      "type": "function"
    },
    {
      "inputs": [
        {
          "internalType": "address",
          "name": "_user",
          "type": "address"
        },
        {
          "internalType": "uint256",
          "name": "_assetId",
          "type": "uint256"
        }
      ],
      "name": "getTotalDue",
      "outputs": [
        {
          "internalType": "uint256",
          "name": "",
          "type": "uint256"
        }
      ],
      "stateMutability": "view",
      "type": "function"
    },
    {
      "inputs": [
        {
          "internalType": "bytes32",
          "name": "role",
          "type": "bytes32"
        },
        {
          "internalType": "address",
          "name": "account",
          "type": "address"
        }
      ],
      "name": "grantRole",
      "outputs": [],
      "stateMutability": "nonpayable",
      "type": "function"
    },
    {
      "inputs": [
        {
          "internalType": "bytes32",
          "name": "role",
          "type": "bytes32"
        },
        {
          "internalType": "address",
          "name": "account",
          "type": "address"
        }
      ],
      "name": "hasRole",
      "outputs": [
        {
          "internalType": "bool",
          "name": "",
          "type": "bool"
        }
      ],
      "stateMutability": "view",
      "type": "function"
    },
    {
      "inputs": [
        {
          "internalType": "address",
          "name": "_user",
          "type": "address"
        },
        {
          "internalType": "uint256",
          "name": "_assetId",
          "type": "uint256"
        }
      ],
      "name": "liquidate",
      "outputs": [],
      "stateMutability": "nonpayable",
      "type": "function"
    },
    {
      "inputs": [
        {
          "internalType": "address",
          "name": "",
          "type": "address"
        },
        {
          "internalType": "uint256",
          "name": "",
          "type": "uint256"
        }
      ],
      "name": "loans",
      "outputs": [
        {
          "internalType": "uint256",
          "name": "collateralAmount",
          "type": "uint256"
        },
        {
          "internalType": "uint256",
          "name": "principal",
          "type": "uint256"
        },
        {
          "internalType": "uint256",
          "name": "startTime",
          "type": "uint256"
        },
        {
          "internalType": "bool",
          "name": "isActive",
          "type": "bool"
        }
      ],
      "stateMutability": "view",
      "type": "function"
    },
    {
      "inputs": [
        {
          "internalType": "address",
          "name": "",
          "type": "address"
        },
        {
          "internalType": "address",
          "name": "",
          "type": "address"
        },
        {
          "internalType": "uint256[]",
          "name": "",
          "type": "uint256[]"
        },
        {
          "internalType": "uint256[]",
          "name": "",
          "type": "uint256[]"
        },
        {
          "internalType": "bytes",
          "name": "",
          "type": "bytes"
        }
      ],
      "name": "onERC1155BatchReceived",
      "outputs": [
        {
          "internalType": "bytes4",
          "name": "",
          "type": "bytes4"
        }
      ],
      "stateMutability": "nonpayable",
      "type": "function"
    },
    {
      "inputs": [
        {
          "internalType": "address",
          "name": "",
          "type": "address"
        },
        {
          "internalType": "address",
          "name": "",
          "type": "address"
        },
        {
          "internalType": "uint256",
          "name": "",
          "type": "uint256"
        },
        {
          "internalType": "uint256",
          "name": "",
          "type": "uint256"
        },
        {
          "internalType": "bytes",
          "name": "",
          "type": "bytes"
        }
      ],
      "name": "onERC1155Received",
      "outputs": [
        {
          "internalType": "bytes4",
          "name": "",
          "type": "bytes4"
        }
      ],
      "stateMutability": "nonpayable",
      "type": "function"
    },
    {
      "inputs": [],
      "name": "paused",
      "outputs": [
        {
          "internalType": "bool",
          "name": "",
          "type": "bool"
        }
      ],
      "stateMutability": "view",
      "type": "function"
    },
    {
      "inputs": [
        {
          "internalType": "bytes32",
          "name": "role",
          "type": "bytes32"
        },
        {
          "internalType": "address",
          "name": "callerConfirmation",
          "type": "address"
        }
      ],
      "name": "renounceRole",
      "outputs": [],
      "stateMutability": "nonpayable",
      "type": "function"
    },
    {
      "inputs": [
        {
          "internalType": "uint256",
          "name": "_assetId",
          "type": "uint256"
        }
      ],
      "name": "repayLoan",
      "outputs": [],
      "stateMutability": "nonpayable",
      "type": "function"
    },
    {
      "inputs": [
        {
          "internalType": "bytes32",
          "name": "role",
          "type": "bytes32"
        },
        {
          "internalType": "address",
          "name": "account",
          "type": "address"
        }
      ],
      "name": "revokeRole",
      "outputs": [],
      "stateMutability": "nonpayable",
      "type": "function"
    },
    {
      "inputs": [
        {
          "internalType": "uint256",
          "name": "_assetId",
          "type": "uint256"
        },
        {
          "internalType": "uint256",
          "name": "_newLTV",
          "type": "uint256"
        }
      ],
      "name": "setAssetCustomLTV",
      "outputs": [],
      "stateMutability": "nonpayable",
      "type": "function"
    },
    {
      "inputs": [
        {
          "internalType": "bytes4",
          "name": "interfaceId",
          "type": "bytes4"
        }
      ],
      "name": "supportsInterface",
      "outputs": [
        {
          "internalType": "bool",
          "name": "",
          "type": "bool"
        }
      ],
      "stateMutability": "view",
      "type": "function"
    },
    {
      "inputs": [],
      "name": "usdcToken",
      "outputs": [
        {
          "internalType": "contract IERC20",
          "name": "",
          "type": "address"
        }
      ],
      "stateMutability": "view",
      "type": "function"
    }
  ],
  "bytecode": "0x60c0604052611b5860035534801562000016575f80fd5b506040516200313e3803806200313e83398181016040528101906200003c91906200038e565b60015f819055506200005f67923db2a4c42465a060c01b620001bf60201b60201c565b6200007b6793a0d6c59535824c60c01b620001bf60201b60201c565b8173ffffffffffffffffffffffffffffffffffffffff1660808173ffffffffffffffffffffffffffffffffffffffff1681525050620000cb673a2fc4d02c3343a760c01b620001bf60201b60201c565b8073ffffffffffffffffffffffffffffffffffffffff1660a08173ffffffffffffffffffffffffffffffffffffffff16815250506200011b67e2cc86522ea3be2360c01b620001bf60201b60201c565b6200013767d64f55ffb01a626e60c01b620001bf60201b60201c565b6200014b5f801b33620001c260201b60201c565b5062000168673fd156c4c09cb61f60c01b620001bf60201b60201c565b6200018467f35485f4373e079460c01b620001bf60201b60201c565b620001b67fa49807205ce4d355092ef5a8a18f56e8913cf4a201fbe287825b095693c2177533620001c260201b60201c565b505050620003d3565b50565b5f620001d58383620002be60201b60201c565b620002b457600160025f8581526020019081526020015f205f015f8473ffffffffffffffffffffffffffffffffffffffff1673ffffffffffffffffffffffffffffffffffffffff1681526020019081526020015f205f6101000a81548160ff021916908315150217905550620002506200032260201b60201c565b73ffffffffffffffffffffffffffffffffffffffff168273ffffffffffffffffffffffffffffffffffffffff16847f2f8788117e7eff1d82e926ec794901d17c78024a50270940304540a733656f0d60405160405180910390a460019050620002b8565b5f90505b92915050565b5f60025f8481526020019081526020015f205f015f8373ffffffffffffffffffffffffffffffffffffffff1673ffffffffffffffffffffffffffffffffffffffff1681526020019081526020015f205f9054906101000a900460ff16905092915050565b5f33905090565b5f80fd5b5f73ffffffffffffffffffffffffffffffffffffffff82169050919050565b5f62000358826200032d565b9050919050565b6200036a816200034c565b811462000375575f80fd5b50565b5f8151905062000388816200035f565b92915050565b5f8060408385031215620003a757620003a662000329565b5b5f620003b68582860162000378565b9250506020620003c98582860162000378565b9150509250929050565b60805160a051612d1f6200041f5f395f81816106c301528181610c2d0152818161120c015261187d01525f81816105e501528181610b670152818161144a015261155f0152612d1f5ff3fe608060405234801561000f575f80fd5b50600436106101a7575f3560e01c80639fd58ee5116100f7578063bc197c8111610095578063e1f1c4a71161006f578063e1f1c4a7146104e4578063e6a69ab814610502578063e900a85a14610520578063f23a6e611461053c576101a7565b8063bc197c811461047c578063bcbaf487146104ac578063d547741f146104c8576101a7565b8063b30d7ac8116100d1578063b30d7ac8146103f4578063b75061bb14610424578063b79c982614610440578063b8e7f8901461045e576101a7565b80639fd58ee51461038a578063a217fddf146103ba578063ab7b1c89146103d8576101a7565b806336568abe116101645780635faee3e01161013e5780635faee3e0146102d957806375b238fc1461030957806391d148541461032757806398c61c3714610357576101a7565b806336568abe146102815780634bfccac41461029d5780635c975abb146102bb576101a7565b806301ffc9a7146101ab57806307e2cea5146101db57806310c882a8146101f957806311eac85514610217578063248a9ca3146102355780632f2ff15d14610265575b5f80fd5b6101c560048036038101906101c0919061207c565b61056c565b6040516101d291906120c1565b60405180910390f35b6101e36105b9565b6040516101f091906120f2565b60405180910390f35b6102016105dd565b60405161020e9190612123565b60405180910390f35b61021f6105e3565b60405161022c91906121b6565b60405180910390f35b61024f600480360381019061024a91906121f9565b610607565b60405161025c91906120f2565b60405180910390f35b61027f600480360381019061027a919061225f565b610624565b005b61029b6004803603810190610296919061225f565b610646565b005b6102a56106c1565b6040516102b291906122bd565b60405180910390f35b6102c36106e5565b6040516102d091906120c1565b60405180910390f35b6102f360048036038101906102ee9190612300565b6106fa565b6040516103009190612123565b60405180910390f35b61031161070f565b60405161031e91906120f2565b60405180910390f35b610341600480360381019061033c919061225f565b610733565b60405161034e91906120c1565b60405180910390f35b610371600480360381019061036c919061232b565b610797565b6040516103819493929190612369565b60405180910390f35b6103a4600480360381019061039f9190612300565b6107da565b6040516103b19190612123565b60405180910390f35b6103c26108cc565b6040516103cf91906120f2565b60405180910390f35b6103f260048036038101906103ed9190612300565b6108d2565b005b61040e6004803603810190610409919061232b565b610dc9565b60405161041b9190612123565b60405180910390f35b61043e600480360381019061043991906123ac565b610ff0565b005b61044861167e565b6040516104559190612123565b60405180910390f35b610466611684565b6040516104739190612123565b60405180910390f35b610496600480360381019061049191906125ea565b61168c565b6040516104a391906126c4565b60405180910390f35b6104c660048036038101906104c1919061232b565b6116a0565b005b6104e260048036038101906104dd919061225f565b611a1c565b005b6104ec611a3e565b6040516104f99190612123565b60405180910390f35b61050a611a44565b6040516105179190612123565b60405180910390f35b61053a600480360381019061053591906123ac565b611a4c565b005b610556600480360381019061055191906126dd565b611bd6565b60405161056391906126c4565b60405180910390f35b5f61058167b189999a319c076160c01b611bea565b61059567cdac4a914c14feae60c01b611bea565b6105a96734e4e54515b3b87260c01b611bea565b6105b282611bed565b9050919050565b7f68e79a7bf1e0bc45d0a330c573bc367f9cf464fd326078812f301165fbda4ef181565b60035481565b7f000000000000000000000000000000000000000000000000000000000000000081565b5f60025f8381526020019081526020015f20600101549050919050565b61062d82610607565b61063681611c66565b6106408383611c7a565b50505050565b61064e611d64565b73ffffffffffffffffffffffffffffffffffffffff168173ffffffffffffffffffffffffffffffffffffffff16146106b2576040517f6697b23200000000000000000000000000000000000000000000000000000000815260040160405180910390fd5b6106bc8282611d6b565b505050565b7f000000000000000000000000000000000000000000000000000000000000000081565b5f60015f9054906101000a900460ff16905090565b6004602052805f5260405f205f915090505481565b7fa49807205ce4d355092ef5a8a18f56e8913cf4a201fbe287825b095693c2177581565b5f60025f8481526020019081526020015f205f015f8373ffffffffffffffffffffffffffffffffffffffff1673ffffffffffffffffffffffffffffffffffffffff1681526020019081526020015f205f9054906101000a900460ff16905092915050565b6005602052815f5260405f20602052805f5260405f205f9150915050805f015490806001015490806002015490806003015f9054906101000a900460ff16905084565b5f6107ef671ece07d44390ac1760c01b611bea565b61080367d87372d3e61b4b8a60c01b611bea565b6108176786824767a390b1a360c01b611bea565b5f60045f8481526020019081526020015f2054111561088557610844670b33b1ffab2702b160c01b611bea565b610858678317b7b5cbc3987260c01b611bea565b61086c67a387ac537875d51e60c01b611bea565b60045f8381526020019081526020015f205490506108c7565b61089967faa9c3cc0c3eb9dc60c01b611bea565b6108ad67a9091f04a44957bf60c01b611bea565b6108c1673349c64d0a4fb31260c01b611bea565b60035490505b919050565b5f801b81565b6108e667f8ba46e54e56054160c01b611bea565b6108ee611e55565b6109026765a238e5b235c9ce60c01b611bea565b6109166796528ff9d31b358260c01b611bea565b61092a67690948e3a3fdc9e360c01b611bea565b61093e6780ad3fe9070b27f760c01b611bea565b5f60055f3373ffffffffffffffffffffffffffffffffffffffff1673ffffffffffffffffffffffffffffffffffffffff1681526020019081526020015f205f8381526020019081526020015f206040518060800160405290815f82015481526020016001820154815260200160028201548152602001600382015f9054906101000a900460ff16151515158152505090506109e3677c0b3310bfa2e79060c01b611bea565b6109f767b907cefc4552470e60c01b611bea565b610a0b67b4ad693478e5d22e60c01b611bea565b8060600151610a4f576040517f08c379a0000000000000000000000000000000000000000000000000000000008152600401610a46906127ca565b60405180910390fd5b610a636719dc266d020b330860c01b611bea565b610a776724f80c226b35470660c01b611bea565b610a8b67c5fc25a9ab4ff2d960c01b611bea565b5f816040015142610a9c9190612815565b9050610ab2679ba9590f452a687060c01b611bea565b610ac6671543f22327c6bb9760c01b611bea565b5f6127106301e13380610ad99190612848565b826101f48560200151610aec9190612848565b610af69190612848565b610b0091906128b6565b9050610b16679a2b1cf28f4ced0760c01b611bea565b610b2a67435c14d6e663552660c01b611bea565b5f818460200151610b3b91906128e6565b9050610b5167560df863fabd183760c01b611bea565b610b6567c00776193564b5e360c01b611bea565b7f000000000000000000000000000000000000000000000000000000000000000073ffffffffffffffffffffffffffffffffffffffff166323b872dd3330846040518463ffffffff1660e01b8152600401610bc293929190612928565b6020604051808303815f875af1158015610bde573d5f803e3d5ffd5b505050506040513d601f19601f82011682018060405250810190610c029190612987565b50610c1767bed662db791bc02560c01b611bea565b610c2b67a4d9d2de0e4a4f7460c01b611bea565b7f000000000000000000000000000000000000000000000000000000000000000073ffffffffffffffffffffffffffffffffffffffff1663f242432a303388885f01516040518563ffffffff1660e01b8152600401610c8d94939291906129e5565b5f604051808303815f87803b158015610ca4575f80fd5b505af1158015610cb6573d5f803e3d5ffd5b50505050610cce6711e0765781e0667e60c01b611bea565b60055f3373ffffffffffffffffffffffffffffffffffffffff1673ffffffffffffffffffffffffffffffffffffffff1681526020019081526020015f205f8681526020019081526020015f205f8082015f9055600182015f9055600282015f9055600382015f6101000a81549060ff02191690555050610d586740ae695136070b4360c01b611bea565b610d6c67ec08651a82a6850f60c01b611bea565b3373ffffffffffffffffffffffffffffffffffffffff167fc200a1f31dd659e356e0f112c82558e25f49f7b0f84438691cd96f5cb355882382604051610db29190612123565b60405180910390a250505050610dc6611e99565b50565b5f610dde67533fb3b954e7417760c01b611bea565b610df267aa30b628ab68f2d960c01b611bea565b610e06676edc0dd198c7712460c01b611bea565b5f60055f8573ffffffffffffffffffffffffffffffffffffffff1673ffffffffffffffffffffffffffffffffffffffff1681526020019081526020015f205f8481526020019081526020015f206040518060800160405290815f82015481526020016001820154815260200160028201548152602001600382015f9054906101000a900460ff1615151515815250509050610eab675abacb6de8488af660c01b611bea565b610ebf67b50fcd9125f1072f60c01b611bea565b8060600151610ef957610edc676f7202c23def354060c01b611bea565b610ef0670f77755f4faeda1b60c01b611bea565b5f915050610fea565b610f0d67c9cf76845d04ff7660c01b611bea565b610f2167b447744b20dd8d9560c01b611bea565b610f3567f64245bb4b98859560c01b611bea565b5f816040015142610f469190612815565b9050610f5c678460206ba01508f660c01b611bea565b610f7067fbbfca7a00634b7560c01b611bea565b5f6127106301e13380610f839190612848565b826101f48560200151610f969190612848565b610fa09190612848565b610faa91906128b6565b9050610fc0672c4c6259c5733a5460c01b611bea565b610fd4673effb4a5cd89689760c01b611bea565b808360200151610fe491906128e6565b93505050505b92915050565b61100467a47908f1aa0ec7f960c01b611bea565b61100c611e55565b61102067adce0bdfc84f258460c01b611bea565b611034675e293479504d8e6860c01b611bea565b61103c611ea2565b6110506745938171e259697460c01b611bea565b6110646724c4f72a35b0e68e60c01b611bea565b61107867e094000ae9565f3e60c01b611bea565b61108c67b2d3bf988cd8fd3160c01b611bea565b6110a0675194cf550e0393fd60c01b611bea565b60055f3373ffffffffffffffffffffffffffffffffffffffff1673ffffffffffffffffffffffffffffffffffffffff1681526020019081526020015f205f8381526020019081526020015f206003015f9054906101000a900460ff161561113c576040517f08c379a000000000000000000000000000000000000000000000000000000000815260040161113390612a85565b60405180910390fd5b6111506720117fa920127bcb60c01b611bea565b61116467ba9e1f1a8025227560c01b611bea565b61117867660f894e3557b3ef60c01b611bea565b61118c67aad5c2b1898426ab60c01b611bea565b5f81116111ce576040517f08c379a00000000000000000000000000000000000000000000000000000000081526004016111c590612aed565b60405180910390fd5b6111e267b59c3a9b8aed6bd260c01b611bea565b6111f667b39d4b95baccff7f60c01b611bea565b61120a67671c7870d3d1123660c01b611bea565b7f000000000000000000000000000000000000000000000000000000000000000073ffffffffffffffffffffffffffffffffffffffff1663f242432a333085856040518563ffffffff1660e01b815260040161126994939291906129e5565b5f604051808303815f87803b158015611280575f80fd5b505af1158015611292573d5f803e3d5ffd5b505050506112aa673da76a50a30e304e60c01b611bea565b6112be678136e045e8e3506f60c01b611bea565b5f631dcd6500826112cf9190612848565b90506112e5679e2e9bdc7b81331c60c01b611bea565b6112f967437d8a8bb5c9034160c01b611bea565b5f611303846107da565b905061131967f06fee8203914c9260c01b611bea565b61132d678b065aa50ddddcf360c01b611bea565b5f612710828461133d9190612848565b61134791906128b6565b905061135d679f5254f0320fe9b060c01b611bea565b60405180608001604052808581526020018281526020014281526020016001151581525060055f3373ffffffffffffffffffffffffffffffffffffffff1673ffffffffffffffffffffffffffffffffffffffff1681526020019081526020015f205f8781526020019081526020015f205f820151815f015560208201518160010155604082015181600201556060820151816003015f6101000a81548160ff02191690831515021790555090505061141f67e7211ba59cfe514260c01b611bea565b61143367e56cee5dfb26c89760c01b611bea565b611447677b23b16faf20536e60c01b611bea565b807f000000000000000000000000000000000000000000000000000000000000000073ffffffffffffffffffffffffffffffffffffffff166370a08231306040518263ffffffff1660e01b81526004016114a19190612b0b565b602060405180830381865afa1580156114bc573d5f803e3d5ffd5b505050506040513d601f19601f820116820180604052508101906114e09190612b38565b1015611521576040517f08c379a000000000000000000000000000000000000000000000000000000000815260040161151890612bad565b60405180910390fd5b61153567c40a6a93491a491560c01b611bea565b61154967c2e13281e23a0f7c60c01b611bea565b61155d6766ebd9aba703a59060c01b611bea565b7f000000000000000000000000000000000000000000000000000000000000000073ffffffffffffffffffffffffffffffffffffffff1663a9059cbb33836040518363ffffffff1660e01b81526004016115b8929190612bcb565b6020604051808303815f875af11580156115d4573d5f803e3d5ffd5b505050506040513d601f19601f820116820180604052508101906115f89190612987565b5061160d678cff971dcd221eb160c01b611bea565b6116216739c8d752ee08fa4960c01b611bea565b3373ffffffffffffffffffffffffffffffffffffffff167fd5c776eab9418d89c040ffee59f2310d225f5ff682191bcee59b0413a7fd4835826040516116679190612123565b60405180910390a250505061167a611e99565b5050565b6101f481565b631dcd650081565b5f63bc197c8160e01b905095945050505050565b6116b467ae0f77038ddeac5d60c01b611bea565b7fa49807205ce4d355092ef5a8a18f56e8913cf4a201fbe287825b095693c217756116de81611c66565b6116f2672b77fa099ab21f5a60c01b611bea565b61170667cb54edd5b1b06fb460c01b611bea565b61171a672526d8d3f65b739d60c01b611bea565b61172e6799bc714f70b8204960c01b611bea565b5f60055f8573ffffffffffffffffffffffffffffffffffffffff1673ffffffffffffffffffffffffffffffffffffffff1681526020019081526020015f205f8481526020019081526020015f206040518060800160405290815f82015481526020016001820154815260200160028201548152602001600382015f9054906101000a900460ff16151515158152505090506117d3673a463e63731a383a60c01b611bea565b6117e767bf1c66fae424c3c460c01b611bea565b6117fb67295074072885075460c01b611bea565b806060015161183f576040517f08c379a000000000000000000000000000000000000000000000000000000000815260040161183690612c3c565b60405180910390fd5b6118536781b210254b538cc960c01b611bea565b6118676796025765190f1eec60c01b611bea565b61187b670c5015b5bc49703a60c01b611bea565b7f000000000000000000000000000000000000000000000000000000000000000073ffffffffffffffffffffffffffffffffffffffff1663f242432a303386855f01516040518563ffffffff1660e01b81526004016118dd94939291906129e5565b5f604051808303815f87803b1580156118f4575f80fd5b505af1158015611906573d5f803e3d5ffd5b5050505061191e6752f934a3a84effb960c01b611bea565b60055f8573ffffffffffffffffffffffffffffffffffffffff1673ffffffffffffffffffffffffffffffffffffffff1681526020019081526020015f205f8481526020019081526020015f205f8082015f9055600182015f9055600282015f9055600382015f6101000a81549060ff021916905550506119a867cff9b123f2b19fed60c01b611bea565b6119bc67c5b386ee7bb3930460c01b611bea565b3373ffffffffffffffffffffffffffffffffffffffff168473ffffffffffffffffffffffffffffffffffffffff167f81a82e67595dbd39318f981107a62c3dd01327eb6236903c29c05a16b993b6d260405160405180910390a350505050565b611a2582610607565b611a2e81611c66565b611a388383611d6b565b50505050565b61271081565b6301e1338081565b611a60674531d164d142db0260c01b611bea565b7f68e79a7bf1e0bc45d0a330c573bc367f9cf464fd326078812f301165fbda4ef1611a8a81611c66565b611a9e67abf8c00397ecf88860c01b611bea565b611ab267ad5e153617b1af8a60c01b611bea565b611ac667140cec616708019c60c01b611bea565b611ada6798ace1164e71ff2760c01b611bea565b611aee67dcedde109e094d4760c01b611bea565b612328821115611b33576040517f08c379a0000000000000000000000000000000000000000000000000000000008152600401611b2a90612ca4565b60405180910390fd5b611b47674a657102945c26f660c01b611bea565b611b5b674509af5e1473936c60c01b611bea565b8160045f8581526020019081526020015f2081905550611b85678ee4f451fab2d32260c01b611bea565b611b9967c6aeab6a38cc1b9060c01b611bea565b827febf7eddb4e03548e462e5c4eea29b2fe5e922ed494fbd1ee2ef8fc337cd55be183604051611bc99190612123565b60405180910390a2505050565b5f63f23a6e6160e01b905095945050505050565b50565b5f7f4e2312e0000000000000000000000000000000000000000000000000000000007bffffffffffffffffffffffffffffffffffffffffffffffffffffffff1916827bffffffffffffffffffffffffffffffffffffffffffffffffffffffff19161480611c5f5750611c5e82611ee3565b5b9050919050565b611c7781611c72611d64565b611f5c565b50565b5f611c858383610733565b611d5a57600160025f8581526020019081526020015f205f015f8473ffffffffffffffffffffffffffffffffffffffff1673ffffffffffffffffffffffffffffffffffffffff1681526020019081526020015f205f6101000a81548160ff021916908315150217905550611cf7611d64565b73ffffffffffffffffffffffffffffffffffffffff168273ffffffffffffffffffffffffffffffffffffffff16847f2f8788117e7eff1d82e926ec794901d17c78024a50270940304540a733656f0d60405160405180910390a460019050611d5e565b5f90505b92915050565b5f33905090565b5f611d768383610733565b15611e4b575f60025f8581526020019081526020015f205f015f8473ffffffffffffffffffffffffffffffffffffffff1673ffffffffffffffffffffffffffffffffffffffff1681526020019081526020015f205f6101000a81548160ff021916908315150217905550611de8611d64565b73ffffffffffffffffffffffffffffffffffffffff168273ffffffffffffffffffffffffffffffffffffffff16847ff6391f5c32d9c69d2a47ea670b442974b53935d1edc7fd64eb21e047a839171b60405160405180910390a460019050611e4f565b5f90505b92915050565b60025f5403611e90576040517f3ee5aeb500000000000000000000000000000000000000000000000000000000815260040160405180910390fd5b60025f81905550565b60015f81905550565b611eaa6106e5565b15611ee1576040517fd93c066500000000000000000000000000000000000000000000000000000000815260040160405180910390fd5b565b5f7f7965db0b000000000000000000000000000000000000000000000000000000007bffffffffffffffffffffffffffffffffffffffffffffffffffffffff1916827bffffffffffffffffffffffffffffffffffffffffffffffffffffffff19161480611f555750611f5482611fad565b5b9050919050565b611f668282610733565b611fa95780826040517fe2517d3f000000000000000000000000000000000000000000000000000000008152600401611fa0929190612cc2565b60405180910390fd5b5050565b5f7f01ffc9a7000000000000000000000000000000000000000000000000000000007bffffffffffffffffffffffffffffffffffffffffffffffffffffffff1916827bffffffffffffffffffffffffffffffffffffffffffffffffffffffff1916149050919050565b5f604051905090565b5f80fd5b5f80fd5b5f7fffffffff0000000000000000000000000000000000000000000000000000000082169050919050565b61205b81612027565b8114612065575f80fd5b50565b5f8135905061207681612052565b92915050565b5f602082840312156120915761209061201f565b5b5f61209e84828501612068565b91505092915050565b5f8115159050919050565b6120bb816120a7565b82525050565b5f6020820190506120d45f8301846120b2565b92915050565b5f819050919050565b6120ec816120da565b82525050565b5f6020820190506121055f8301846120e3565b92915050565b5f819050919050565b61211d8161210b565b82525050565b5f6020820190506121365f830184612114565b92915050565b5f73ffffffffffffffffffffffffffffffffffffffff82169050919050565b5f819050919050565b5f61217e6121796121748461213c565b61215b565b61213c565b9050919050565b5f61218f82612164565b9050919050565b5f6121a082612185565b9050919050565b6121b081612196565b82525050565b5f6020820190506121c95f8301846121a7565b92915050565b6121d8816120da565b81146121e2575f80fd5b50565b5f813590506121f3816121cf565b92915050565b5f6020828403121561220e5761220d61201f565b5b5f61221b848285016121e5565b91505092915050565b5f61222e8261213c565b9050919050565b61223e81612224565b8114612248575f80fd5b50565b5f8135905061225981612235565b92915050565b5f80604083850312156122755761227461201f565b5b5f612282858286016121e5565b92505060206122938582860161224b565b9150509250929050565b5f6122a782612185565b9050919050565b6122b78161229d565b82525050565b5f6020820190506122d05f8301846122ae565b92915050565b6122df8161210b565b81146122e9575f80fd5b50565b5f813590506122fa816122d6565b92915050565b5f602082840312156123155761231461201f565b5b5f612322848285016122ec565b91505092915050565b5f80604083850312156123415761234061201f565b5b5f61234e8582860161224b565b925050602061235f858286016122ec565b9150509250929050565b5f60808201905061237c5f830187612114565b6123896020830186612114565b6123966040830185612114565b6123a360608301846120b2565b95945050505050565b5f80604083850312156123c2576123c161201f565b5b5f6123cf858286016122ec565b92505060206123e0858286016122ec565b9150509250929050565b5f80fd5b5f601f19601f8301169050919050565b7f4e487b71000000000000000000000000000000000000000000000000000000005f52604160045260245ffd5b612434826123ee565b810181811067ffffffffffffffff82111715612453576124526123fe565b5b80604052505050565b5f612465612016565b9050612471828261242b565b919050565b5f67ffffffffffffffff8211156124905761248f6123fe565b5b602082029050602081019050919050565b5f80fd5b5f6124b76124b284612476565b61245c565b905080838252602082019050602084028301858111156124da576124d96124a1565b5b835b8181101561250357806124ef88826122ec565b8452602084019350506020810190506124dc565b5050509392505050565b5f82601f830112612521576125206123ea565b5b81356125318482602086016124a5565b91505092915050565b5f80fd5b5f67ffffffffffffffff821115612558576125576123fe565b5b612561826123ee565b9050602081019050919050565b828183375f83830152505050565b5f61258e6125898461253e565b61245c565b9050828152602081018484840111156125aa576125a961253a565b5b6125b584828561256e565b509392505050565b5f82601f8301126125d1576125d06123ea565b5b81356125e184826020860161257c565b91505092915050565b5f805f805f60a086880312156126035761260261201f565b5b5f6126108882890161224b565b95505060206126218882890161224b565b945050604086013567ffffffffffffffff81111561264257612641612023565b5b61264e8882890161250d565b935050606086013567ffffffffffffffff81111561266f5761266e612023565b5b61267b8882890161250d565b925050608086013567ffffffffffffffff81111561269c5761269b612023565b5b6126a8888289016125bd565b9150509295509295909350565b6126be81612027565b82525050565b5f6020820190506126d75f8301846126b5565b92915050565b5f805f805f60a086880312156126f6576126f561201f565b5b5f6127038882890161224b565b95505060206127148882890161224b565b9450506040612725888289016122ec565b9350506060612736888289016122ec565b925050608086013567ffffffffffffffff81111561275757612756612023565b5b612763888289016125bd565b9150509295509295909350565b5f82825260208201905092915050565b7f4e6f20686179207072657374616d6f00000000000000000000000000000000005f82015250565b5f6127b4600f83612770565b91506127bf82612780565b602082019050919050565b5f6020820190508181035f8301526127e1816127a8565b9050919050565b7f4e487b71000000000000000000000000000000000000000000000000000000005f52601160045260245ffd5b5f61281f8261210b565b915061282a8361210b565b9250828203905081811115612842576128416127e8565b5b92915050565b5f6128528261210b565b915061285d8361210b565b925082820261286b8161210b565b91508282048414831517612882576128816127e8565b5b5092915050565b7f4e487b71000000000000000000000000000000000000000000000000000000005f52601260045260245ffd5b5f6128c08261210b565b91506128cb8361210b565b9250826128db576128da612889565b5b828204905092915050565b5f6128f08261210b565b91506128fb8361210b565b9250828201905080821115612913576129126127e8565b5b92915050565b61292281612224565b82525050565b5f60608201905061293b5f830186612919565b6129486020830185612919565b6129556040830184612114565b949350505050565b612966816120a7565b8114612970575f80fd5b50565b5f815190506129818161295d565b92915050565b5f6020828403121561299c5761299b61201f565b5b5f6129a984828501612973565b91505092915050565b5f82825260208201905092915050565b50565b5f6129d05f836129b2565b91506129db826129c2565b5f82019050919050565b5f60a0820190506129f85f830187612919565b612a056020830186612919565b612a126040830185612114565b612a1f6060830184612114565b8181036080830152612a30816129c5565b905095945050505050565b7f5072657374616d6f2061637469766f206578697374656e7465000000000000005f82015250565b5f612a6f601983612770565b9150612a7a82612a3b565b602082019050919050565b5f6020820190508181035f830152612a9c81612a63565b9050919050565b7f4d6f6e746f20696e76616c69646f0000000000000000000000000000000000005f82015250565b5f612ad7600e83612770565b9150612ae282612aa3565b602082019050919050565b5f6020820190508181035f830152612b0481612acb565b9050919050565b5f602082019050612b1e5f830184612919565b92915050565b5f81519050612b32816122d6565b92915050565b5f60208284031215612b4d57612b4c61201f565b5b5f612b5a84828501612b24565b91505092915050565b7f53696e206c6971756964657a20656e2042616e636f00000000000000000000005f82015250565b5f612b97601583612770565b9150612ba282612b63565b602082019050919050565b5f6020820190508181035f830152612bc481612b8b565b9050919050565b5f604082019050612bde5f830185612919565b612beb6020830184612114565b9392505050565b7f4e6f2061637469766f00000000000000000000000000000000000000000000005f82015250565b5f612c26600983612770565b9150612c3182612bf2565b602082019050919050565b5f6020820190508181035f830152612c5381612c1a565b9050919050565b7f4c5456206d757920616c746f20284d61782039302529000000000000000000005f82015250565b5f612c8e601683612770565b9150612c9982612c5a565b602082019050919050565b5f6020820190508181035f830152612cbb81612c82565b9050919050565b5f604082019050612cd55f830185612919565b612ce260208301846120e3565b939250505056fea2646970667358221220c48e1b432a89565ecb56cdbc3d02efa6c30f9903a28252324beeb8447f1d374e64736f6c63430008140033",
  "linkReferences": {},
  "deployedLinkReferences": {}
}